:100000000000082075080000A1080000A1080000F9
:10001000A1080000A1080000A1080000A10800003C
:10002000A1080000A1080000A1080000A10800002C
:10003000A1080000A0080000A1080000952700000A
:10004000A1080000A1080000A1080000A10800000C
:10005000A1080000A1080000A1080000A1080000FC
:10006000A1080000A1080000A1080000A1080000EC
:10007000A1080000A1080000A1080000A1080000DC
:10008000A1080000A1080000A1080000A1080000CC
:10009000A1080000A1080000A1080000A1080000BC
:1000A000A1080000A1080000A1080000A1080000AC
:1000B000A1080000A1080000A1080000A10800009C
:1000C000A1080000A1080000A1080000A10800008C
:1000D000A1080000A1080000A1080000A10800007C
:1000E000A1080000A1080000A1080000A10800006C
:1000F000A1080000A1080000A1080000A10800005C
:10010000A1080000A1080000A1080000A10800004B
:10011000A1080000A1080000A1080000A10800003B
:10012000A1080000A1080000A1080000A10800002B
:10013000A1080000A1080000A1080000A10800001B
:10014000A1080000A1080000A1080000A10800000B
:1001500010B5054C237833B9044B13B10448AFF301
:1001600000800123237010BD7C00002000000000EF
:10017000802C000008B5034B1BB103490348AFF3C3
:10018000008008BD0000000080000020802C0000DE
:10019000154B002B08BF134B9D46A3F5803A002159
:1001A0008B460F461348144A121A02F087FB0F4B76
:1001B000002B00D098470E4B002B00D09847002012
:1001C000002104000D000D48002802D00C48AFF3B8
:1001D000008002F04FFB2000290002F001FB02F03A
:1001E00035FB00BF000008000000082000000000F0
:1001F000000000007C000020A4000020000000009F
:100200000000000080B485B000AF786039607B6882
:1002100003F10473DA003B6813449B00FB60FB6846
:100220001B6818461437BD465DF8047B704780B4E0
:1002300085B000AF786039607B6803F1C063FB6014
:10024000FB683A681A6000BF1437BD465DF8047B4E
:10025000704780B485B000AF786039607B6803F187
:100260008063FB60FB683A681A6000BF1437BD46C4
:100270005DF8047B7047000080B582B000AF034694
:100280003960FB71FB79002B31D0FB79012B2BD02E
:10029000FB79022B25D0FB79032B1FD0FB79042B94
:1002A00019D0FB79052B13D0FB79062B0DD0FB79E8
:1002B000072B07D0FB79082B02D14FF6FF7318E00C
:1002C000002316E04FF6FF7313E04FF6FF7310E0C4
:1002D0004FF6FF730DE04FF6FF730AE04FF6FF7322
:1002E00007E04FF6FF7304E04FF6FF7301E04FF6AF
:1002F000FF733A68134103F00103002B04D14FF45C
:1003000077710C4800F088FBFA7913465B001344C0
:100310001B010C3303F1804303F5082301213A68E4
:1003200001FA02F211461846FFF793FF00BF0837A3
:10033000BD4680BDE828000080B582B000AF03460E
:100340003960FB71FB79002B31D0FB79012B2BD06D
:10035000FB79022B25D0FB79032B1FD0FB79042BD3
:1003600019D0FB79052B13D0FB79062B0DD0FB7927
:10037000072B07D0FB79082B02D14FF6FF7318E04B
:10038000002316E04FF6FF7313E04FF6FF7310E003
:100390004FF6FF730DE04FF6FF730AE04FF6FF7361
:1003A00007E04FF6FF7304E04FF6FF7301E04FF6EE
:1003B000FF733A68134103F00103002B04D140F2AC
:1003C000F6310B4800F028FBFA7913465B00134422
:1003D0001B010C3303F1804303F5082339681846E9
:1003E000FFF710FF034618460837BD4680BD00BF23
:1003F000E828000080B582B000AF03463960FB7189
:10040000FB79002B31D0FB79012B2BD0FB79022B10
:1004100025D0FB79032B1FD0FB79042B19D0FB7956
:10042000052B13D0FB79062B0DD0FB79072B07D0BA
:10043000FB79082B02D14FF6FF7318E0002316E07A
:100440004FF6FF7313E04FF6FF7310E04FF6FF73A4
:100450000DE04FF6FF730AE04FF6FF7307E04FF62B
:10046000FF7304E04FF6FF7301E04FF6FF733A6845
:10047000134103F00103002B04D140F20B410C485F
:1004800000F0CAFAFA7913465B0013441B010C33DF
:1004900003F1804303F5082301213A6801FA02F2CF
:1004A00011461846FFF7C3FE00BF0837BD4680BDA2
:1004B000E828000090B587B000AF786000237B612A
:1004C00001233B617B68002B4BDB7B68012B48DC05
:1004D0000023FB6038E02548FB687A68D9001346A2
:1004E000DB009B1A9B000B44034404331C781F4819
:1004F000FB687A68D9001346DB009B1A9B000B440B
:10050000034408331B6819462046FFF715FF0346CE
:10051000002B14BF01230023FB7214497A68134691
:10052000DB009B1A9B000B441B78FA7A9A4201D19C
:100530003B6900E000237A6913447B613B695B00FF
:100540003B61FB680133FB6008497A681346DB00B6
:100550009B1A9B000B4401331B781A46FB6893429D
:10056000B9DB7B6918461C37BD4690BD6029000089
:1005700090B585B000AF786039600123BB607B68BF
:10058000002B65DB7B68012B62DC0023FB6052E003
:100590003A68BB681340BA689A420CBF0123002333
:1005A000DBB218462C497A681346DB009B1A9B0085
:1005B0000B441B7898421CD12748FB687A68D90005
:1005C0001346DB009B1A9B000B44034404331C7846
:1005D0002148FB687A68D9001346DB009B1A9B0010
:1005E0000B44034408331B6819462046FFF702FFFB
:1005F0001BE01948FB687A68D9001346DB009B1A98
:100600009B000B44034404331C781348FB687A684E
:10061000D9001346DB009B1A9B000B4403440833AC
:100620001B6819462046FFF727FEBB685B00BB60CE
:10063000FB680133FB6008497A681346DB009B1AAC
:100640009B000B4401331B781A46FB6893429FDBE7
:1006500000BF1437BD4690BD6029000090B583B03F
:1006600000AF0121274800F051FC0121264800F08D
:100670004DFC00237B603DE000233B602AE02348E3
:100680003B687A68D9001346DB009B1A9B000B4439
:10069000034404331C781D483B687A68D90013462C
:1006A000DB009B1A9B000B4403440833186817496E
:1006B0007A681346DB009B1A9B000B441B7883F07F
:1006C0000103DBB204220146204601F021FF3B6812
:1006D00001333B600D497A681346DB009B1A9B008F
:1006E0000B4401331B781A463B689342C7DB7B6897
:1006F00001337B607B68012BBEDD002318460C377D
:10070000BD4690BD4041050000550A00602900002B
:1007100080B584B000AF78607B68002B13DB7B680A
:10072000012B10DC7868FFF7C5FEF860FB68002B32
:1007300002D14FF0FF3300E0002319467868FFF73D
:1007400017FF002301E04FF0FF3318461037BD4676
:1007500080BD000080B582B000AF3C4BD3F8B03014
:100760003A4A43F02003C2F8B030394BD3F8403452
:10077000374A43F01003C2F84034354BD3F84434C1
:10078000334A23F00303C2F84434314BD3F8F43036
:100790002F4A23F47063C2F8F4302D4BD3F8F430B1
:1007A0002B4A43F48063C2F8F430284B10221A66B7
:1007B00000BF264BD3F8903003F02003002BF8D075
:1007C000244B1B68234A43F001031360214BDB6871
:1007D000204A43F08073D3601F4B204A1A602048A0
:1007E00000F042FC034603F5D52303F2FC437B6093
:1007F0007B68DB081B4AA2FB03239B0A3B601A4A67
:100800003B68013B1361184B0222C3F8F020164BE2
:100810004FF48072C3F804234FF06043134AC3F8C7
:10082000B02F4FF06043124AC3F8802E4FF0604360
:10083000D3F8003E4FF0604243F00103C2F8003E9F
:10084000012318460837BD4680BD00BF00400E405A
:1008500000800840F0ED00E0001000E0FF130140D0
:1008600006000E0017916502000004E055CEACC5ED
:1008700009000100064880470649074A074B9A428B
:10088000BEBF51F8040B42F8040BF8E7FFF780FCF9
:10089000B10900008C2C0000000000207C0000202A
:1008A000FEE700BF80B483B000AF334BD3F8943081
:1008B00003F00703023B042B49D801A252F823F0AE
:1008C000E5080000DD080000D5080000450900002B
:1008D000ED080000294B1B687B603CE04FF40043AF
:1008E0007B6038E0264B1B687B6034E0224B9B68C2
:1008F0001B0C03F01F03073B072B1FD801A252F864
:1009000023F000BF250900003D0900003D0900005B
:100910003D0900002B0900003D09000031090000DD
:1009200037090000174B7B600BE0174B7B6008E03A
:10093000164B7B6005E0164B7B6002E000237B607A
:1009400000BF08E0134B1B685B087B6003E0114BA2
:100950001B687B6000BF084BD3F800311B0A03F013
:100960001F0301337A68B2FBF3F318460C37BD4618
:100970005DF8047B704700BF00400E40040000207B
:10098000000000200024F4000048E801006CDC02B4
:1009900080F0FA020800002080B400AF034B1B680F
:1009A0001846BD465DF8047B704700BF000000207C
:1009B00080B400AF074B084A9A60064BD3F88830E2
:1009C000044A43F47003C2F8883000BFBD465DF8A6
:1009D000047B704700ED00E00000000080B400AF31
:1009E0004FF400431846BD465DF8047B704780B461
:1009F00000AF4FF47A731846BD465DF8047B70472C
:100A000080B400AF034B1B681846BD465DF8047BFD
:100A1000704700BF0400002080B483B000AF78604E
:100A20003960FEE780B487B000AFF860B9607A60E3
:100A3000FB6803F10473DA00BB6813449B007B611D
:100A40007B697A681A6000BF1C37BD465DF8047B7D
:100A50007047000080B582B000AF78607B681F2BC4
:100A600004D94FF496710548FFF7D6FF01227B6841
:100A700002FA03F318460837BD4680BD98290000E6
:100A800080B483B000AF054B1B687B607B68184661
:100A90000C37BD465DF8047B704700BF0C0000209A
:100AA00080B582B000AFFFF7FDFE7860064BD3F84B
:100AB00000311B0A03F01F0301337A6802FB03F3C2
:100AC00018460837BD4680BD00400E4080B582B054
:100AD00000AF0F4800F0B0FC0346FB70FB78072B1B
:100AE00005D0092B07D1FFF7DDFE78600BE0FFF79B
:100AF000C7FF786007E000237B6040F6125105488D
:100B0000FFF78AFF00BF7B6818460837BD4680BDE7
:100B100006000E008C2A000080B584B000AF78601B
:100B20007B68002B02D0012B06D00BE0224800F09E
:100B300083FC0346FB720CE0204800F07DFC03467A
:100B4000FB7206E040F632511D48FFF765FF0023B7
:100B50002EE0FB7A013B072B21D801A252F823F0AB
:100B6000810B00009F0B00009F0B00008F0B00000B
:100B70009F0B00009F0B0000870B0000970B0000ED
:100B80000023FB6013E0FFF77BFFF8600FE0FFF747
:100B900003FFF8600BE0FFF783FFF86007E0002336
:100BA000FB6040F649510648FFF736FF00BFFB687F
:100BB00018461037BD4680BDB8003200B900340079
:100BC0008C2A000080B582B000AF1C4800F034FCD5
:100BD0000346FB70FB78043B062B21D801A252F898
:100BE00023F000BF090C0000010C0000210C0000E4
:100BF000110C0000210C0000210C0000190C000059
:100C00000F4B1B687B6013E0FFF7C6FE78600FE0B8
:100C1000FFF736FF78600BE00A4B1B687B6007E04C
:100C200000237B6040F673510748FFF7F5FE00BFD5
:100C30007B6818460837BD4680BD00BF0A7B36007A
:100C400008000020100000208C2A000080B584B02D
:100C500000AF78607B68002B1AD11F4800F0ECFBD6
:100C60000346FB7200BFFB7A043B062B27D801A288
:100C700052F823F0A70C00009F0C0000BF0C0000EE
:100C8000AF0C0000BF0C0000BF0C0000B70C000050
:100C900040F68E511148FFF7BFFE002318E0104BBD
:100CA0001B68FB6013E0FFF777FEF8600FE0FFF7CB
:100CB000E7FEF8600BE00B4B1B68FB6007E00023CE
:100CC000FB6040F6A5510548FFF7A6FE00BFFB6894
:100CD00018461037BD4680BD0B7C38008C2A0000BA
:100CE000080000201000002080B582B000AF24482A
:100CF00000F0A2FB0346FB70FB78023B092B31D8C6
:100D000001A252F823F000BF550D00005D0D000058
:100D1000390D00004D0D0000650D0000650D00004F
:100D2000650D0000650D0000310D0000410D000053
:100D3000144B1B687B601DE0FFF72EFE786019E006
:100D4000FFF72AFE03465B007B6013E00E4B1B6837
:100D50007B600FE0FFF754FE78600BE0FFF73EFE8C
:100D6000786007E000237B6040F6FC510748FFF7FE
:100D700053FE00BF7B6818460837BD4680BD00BFE4
:100D80000C7F3A0010000020080000208C2A000090
:100D900090B585B000AF78600023BB607B68474AA0
:100DA000934212D0454A934203D8454A93420CD00D
:100DB00005E0444A934208D0434A934205D04FF499
:100DC00075614248FFF728FE00E000BF786800F038
:100DD00033FB0346FB607B68384A934214D0374AA2
:100DE000934203D8364A934207D022E0354A9342D1
:100DF00011D0354A934215D01BE0354BD3F88030E3
:100E000003F00703FB601AE0314BD3F8843003F0A2
:100E10000703FB6013E02E4BD3F88C3003F007037D
:100E2000FB600CE02A4BD3F8883003F00703FB602B
:100E300005E040F67F712548FFF7EEFD00BFFB6837
:100E4000042B2ED801A252F823F000BF9D0E000003
:100E5000610E0000690E0000790E0000710E0000A6
:100E6000FFF7BCFDB86024E0FFF7CAFDB86020E0E2
:100E7000FFF7BDFDB8601CE0FFF714FD0446144BFE
:100E8000D3F800311B0E03F0030301331846FFF7BC
:100E9000E1FD0346B4FBF3F3BB600AE00023BB6053
:100EA00007E00023BB6040F6D7710848FFF7B4FDA8
:100EB00000BFBB6818461437BD4690BD0300200034
:100EC00002001E0004002200050024008C2A0000FD
:100ED00000400E4080B483B000AF78600A4BD3F876
:100EE000443103F00103002B08D100BF064BD3F8B7
:100EF00040217B681340002BF8D100E000BF0C3785
:100F0000BD465DF8047B704700400E4080B586B05A
:100F100000AF78600B46FB7000233B617B681B0AC7
:100F200003F00F03013B0E2B6AD801A252F823F005
:100F30006D0F0000790F000001100000011000008B
:100F4000730F0000850F00008F0F0000990F000045
:100F5000A50F0000FB0F0000B10F0000D30F000031
:100F6000011000007F0F0000F50F0000314B7B6186
:100F70004CE0314B7B6149E0304B7B6146E0304BCC
:100F80007B6143E02F4B7B6101233B613EE02E4BB5
:100F90007B6110233B6139E02C4B7B614FF4807304
:100FA0003B6133E02A4B7B614FF480333B612DE0A2
:100FB000284B7B61FB78002B14BF01230023DBB29D
:100FC00083F00103DBB2FB70FB7803F00103FB70DD
:100FD0001CE0214B7B61FB78002B14BF0123002315
:100FE000DBB283F00103DBB2FB70FB7803F001039B
:100FF000FB700BE0194B7B6108E0194B7B6105E04E
:1010000041F2DB311748FFF707FD10E07B681B0B4F
:1010100003F01F03FB603B69002B02D03869FFF728
:1010200059FFFB781A46F9687869FFF7FBFC183717
:10103000BD4680BD00400E40B0400E40C0400E4056
:10104000C4400E40E0400E40E8400E40EC400E40F0
:10105000F0400E4060410E4064410E40F0410E40B1
:1010600050410E408C2A000080B584B000AF7860FB
:101070007B6803F47813B3F5D01F00F04D81B3F50E
:10108000D01F3CD8B3F5402F00F0C980B3F5402FF6
:1010900018D8B3F5802F77D0B3F5802F06D8002B62
:1010A0006ED0B3F5003F00F0AB80ACE1B3F5002F9C
:1010B00000F08880B3F5202F00F09380B3F5C02FA7
:1010C00071D0A0E1B3F5901F00F0BD80B3F5901F83
:1010D00008D8B3F5602F00F06281B3F5801F00F0EF
:1010E000628190E1B3F5B01F00F0CA80B3F5C01F74
:1010F00000F0D880B3F5A01F00F0B48083E1B3F511
:10110000381F00F0F580B3F5381F1CD8B3F5001F69
:1011100000F0FD80B3F5001F08D8B3F5E01F00F024
:101120000D81B3F5F01F00F089806CE1B3F5201F4D
:1011300000F02B81B3F5281F00F0C780B3F5101F16
:1011400000F028815FE1B3F5501F00F03F81B3F557
:10115000501F08D8B3F5401F00F00381B3F5481FB6
:1011600000F025814FE1B3F5601F00F04381B3F536
:10117000681F00F04481B3F5581F00F0378142E149
:10118000FFF790FBF86046E1FFF78CFBF860A44B9B
:10119000D3F80C311B0AC3F308030133FA68B2FB1E
:1011A000F3F3FB6037E1FFF77DFBF8609C4BD3F86E
:1011B00018311B0AC3F308030133FA68B2FBF3F3D7
:1011C000FB6028E1FFF76EFBF860954BD3F81C310C
:1011D0001B0AC3F308030133FA68B2FBF3F3FB60A5
:1011E00019E1FFF75FFBF8608D4BD3F804311B0A60
:1011F000C3F308030133FA68B2FBF3F3FB600AE1BF
:10120000FFF750FBF860864BD3F808311B0AC3F395
:1012100008030133FA68B2FBF3F3FB60FBE0FFF76E
:1012200041FBF8607E4BD3F814311B0A03F01F0317
:101230000133FA68B2FBF3F3FB60ECE07948FFF7A7
:10124000A7FDF860E7E07748FFF7A2FDF860744B70
:10125000D3F820311B0C03F00F03FA6822FA03F3D2
:10126000FB60D8E07048FFF793FDF8606C4BD3F853
:10127000303103F00303FA6822FA03F3FB60CAE09B
:101280006848FFF785FDF860654BD3F8203103F01F
:101290000F031846FFF7DEFB0246FB68B3FBF2F3D1
:1012A000FB60B8E05F48FFF773FDF8605C4BD3F874
:1012B00020311B0903F00F031846FFF7CBFB024652
:1012C000FB68B3FBF2F3FB60A5E05648FFF760FD57
:1012D000F860534BD3F820311B0B03F0070318467B
:1012E000FFF7B8FB0246FB68B3FBF2F3FB6092E04A
:1012F0004C48FFF74DFDF860494BD3F820311B0AED
:1013000003F00303FA6822FA03F3FB6083E0474823
:10131000FFF73EFDF8607EE04448FFF739FDF860D6
:101320003F4BD3F8283103F003031846FFF792FB35
:101330000246FB68B3FBF2F3FB606CE03B48FFF74F
:1013400027FDF860364BD3F828311B0903F003035F
:101350001846FFF77FFB0246FB68B3FBF2F3FB6026
:1013600059E03248FFF714FDF8602D4BD3F82831CF
:101370001B0B03F0030304331846FFF76BFB024615
:10138000FB68B3FBF2F3FB6045E02948FFF700FD83
:10139000F86040E02448FFF7FBFCF8603BE0FFF713
:1013A00095FBF86037E0FFF76BFBF86033E0002057
:1013B000FFF7B2FBF8601A4BD3F85C3103F003037C
:1013C0000133FA68B2FBF3F3FB6024E00120FFF77E
:1013D000A3FBF860124BD3F85C311B0C03F0030342
:1013E0000133FA68B2FBF3F3FB6014E0FFF7EAFBAA
:1013F000F86010E00020FFF729FCF8600BE0FFF731
:1014000073FCF86007E00023FB6041F201510948DA
:10141000FFF702FB00BFFB6818461037BD4680BDD2
:1014200000400E4002001E000500240003002000C2
:10143000040022008C2A000080B584B000AF7860E0
:101440000123FB737B6803F00F03BB60BB68013BA8
:101450000B2B00F2748101A252F823F08D140000CE
:10146000E914000019150000911500006115000035
:10147000C11500003F170000E51500002716000009
:101480006B160000AB160000EB160000B54BD3F84E
:10149000943003F00703023B052B21D801A252F838
:1014A00023F000BFC9140000C3140000BD140000E5
:1014B000CF140000DB140000D51400000223FB73DE
:1014C00011E00323FB730EE00423FB730BE00D23F9
:1014D000FB7308E00E23FB7305E00A23FB7302E0B5
:1014E0000523FB7300BF37E19E4BD3F8803003F038
:1014F0000703022B06D0042B07D0012B08D10323AE
:10150000FB7308E00223FB7305E00C23FB7302E08E
:101510000123FB7300BF1FE1924BD3F8843003F02B
:101520000703013B032B17D801A252F823F000BF99
:101530004115000047150000531500004D1500002F
:101540000323FB730BE00223FB7308E00C23FB7304
:1015500005E00623FB7302E00123FB7300BFFBE001
:10156000804BD3F8883003F00703022B06D0042BFE
:1015700007D0012B08D10323FB7308E00223FB7380
:1015800005E00C23FB7302E00123FB7300BFE3E0E3
:10159000744BD3F88C3003F00703022B06D0042BD6
:1015A00007D0012B08D10323FB7308E00223FB7350
:1015B00005E00C23FB7302E00123FB7300BFCBE0CB
:1015C000684B1B6F03F00303002B04D0012B05D1E4
:1015D0000923FB7305E00723FB7302E00123FB7380
:1015E00000BFB9E05F4BD3F85C3103F03003102B40
:1015F0000CD0102B02D8002B05D010E0202B08D0E7
:10160000302B09D00BE00123FB730BE00723FB73A6
:1016100008E00423FB7305E00823FB7302E00123C9
:10162000FB7300BF98E04F4BD3F85C3103F44013D9
:10163000B3F5801F0FD0B3F5801F02D8002B07D061
:101640008AE0B3F5001F09D0B3F5401F09D083E04D
:101650000123FB7308E00723FB7305E00423FB73FE
:1016600002E00823FB7300BF76E03E4BD3F8603105
:1016700003F00303032B6AD801A252F823F000BF42
:1016800091160000971600009D160000A31600009A
:101690000523FB7308E00423FB7305E00723FB73BA
:1016A00002E00A23FB7300BF51E02E4BD3F86431F4
:1016B00003F00303032B4CD801A252F823F000BF20
:1016C000D1160000D7160000DD160000E31600005A
:1016D0000523FB7308E00423FB7305E00723FB737A
:1016E00002E00A23FB7300BF33E01E4BD3F8F03156
:1016F00003F00703052B2ED801A252F823F000BFF8
:10170000191700001F170000251700002B170000F5
:1017100031170000371700000A23FB730EE0042383
:10172000FB730BE00B23FB7308E00523FB7305E061
:101730000223FB7302E00323FB7300BF0BE00023D3
:10174000FB7341F628110848FFF766F904E000BF73
:1017500002E000BF00E000BFFB7B18461037BD462B
:1017600080BD00BF00400E408C2A000080B487B0CE
:1017700000AFF860B9607A60FB6803F10473DA00C7
:10178000BB6813449B007B617B697A681A6000BF69
:101790001C37BD465DF8047B704780B485B000AF50
:1017A000786039607B6803F10473DA003B681344A6
:1017B0009B00FB60FB681B6818461437BD465DF84C
:1017C000047B704780B483B000AF7860044A7B68C4
:1017D000D36200BF0C37BD465DF8047B704700BF85
:1017E00000300E4080B400AF034B5B6A1846BD4624
:1017F0005DF8047B704700BF00300E4080B400AF3E
:10180000034B00225A6300BFBD465DF8047B70475E
:1018100000300E4080B400AF044B4AF6E8525A63E1
:1018200000BFBD465DF8047B704700BF00300E402E
:1018300080B400AF01231846BD465DF8047B7047B5
:1018400080B582B000AF0C4BDB6E0B4A43F0807367
:10185000D36600210948FFF7A0FF78607B68002B62
:1018600003D0042000F03EFD02E0002000F03AFD2D
:1018700000BF0837BD4680BD00300E404C300E40E2
:1018800080B58AB000AF01237B627B6A1B053B6297
:10189000404BDB6C1B0A03F00F03FB613E4B1B88C4
:1018A0001A463D4B1B8828335B08134403F128017B
:1018B000FB695A1C13469B001344B1FBF3F3013B35
:1018C000BB61BB697B6107233B613A697B699342DA
:1018D00028BF1346BB61BB691B06BB61BB6923F014
:1018E000E063002B04D04FF4FA612C48FFF794F822
:1018F0003B6A23F4E003002B04D040F2D171274867
:10190000FFF78AF8234BDB6C23F0EE62B9693B6A80
:101910000B4320491343CB64214BB3F90030002B18
:1019200033DB1F4BB3F90030FB81FA89FB89283385
:101930005B08134403F12802FB6901335900FB697A
:1019400001335B080B44B2FBF3F3BB60BB687B6005
:1019500007233B603A687B68934228BF1346BB600D
:10196000BB681B01BB60BB6823F07003002B04D075
:1019700040F2E9710948FFF74FF8064B1B6D23F061
:1019800070020449BB6813430B6500BF2837BD468E
:1019900080BD00BF00300E4098000020042B0000E6
:1019A0009C00002080B483B000AF78600B467B8041
:1019B0007B689AB2054B1A80054A7B88138000BF6A
:1019C0000C37BD465DF8047B704700BF98000020CF
:1019D0009C00002080B582B000AF0346FB71FB790C
:1019E000002B02D0012B04D007E0094B094A9A656D
:1019F00009E0074B084A9A6505E040F615010748DB
:101A0000FFF70AF800BF00BF0837BD4680BD00BF22
:101A100000300E4077402057372110B7042B0000CC
:101A200080B584B000AF0346FB710B46BB71134613
:101A30007B71334BD3F88031FB60BB79032B1DD80E
:101A400001A252F823F000BF591A0000611A0000E9
:101A50006B1A0000751A0000FB68DBB2FB6014E033
:101A6000FB681B0ADBB2FB600FE0FB681B0CDBB200
:101A7000FB600AE0FB681B0EFB6006E040F65901C4
:101A80002048FEF7C9FF002336E07B79002B16D1F2
:101A9000FB681B03FB60FB6823F47043002B06D03C
:101AA00040F664011748FEF7B7FF002324E0164B09
:101AB000DB6E23F470421449FB681343CB667B79D9
:101AC000012B18D1FB681B03FB60FB6823F47043F8
:101AD000002B06D04FF407610A48FEF79DFF002354
:101AE0000AE0094BD3F8EC3023F470420649FB6856
:101AF0001343C1F8EC30012318461037BD4680BDB2
:101B0000B081E00F042B000000300E4080B588B09B
:101B100000AFF860B96011461A460B46FB711346D8
:101B2000BB710023FB610023BB61BB791B02FA7907
:101B3000002A01D0012200E0002213437B617B696F
:101B400040F2011293422AD0B3F5817F07D2012BD4
:101B500019D0012B47D3B3F5807F50D073E040F20A
:101B60000122934227D040F20122934203D8B3F5D9
:101B7000007F50D067E0B3F5407F58D040F201328B
:101B8000934224D05FE0384BD3F87431FB61FB699A
:101B90001B0ADBB2BB61FB69DBB2FB6159E0324B74
:101BA000D3F87431FB61FB691B0EBB61FB691B0C35
:101BB000DBB2FB614DE02C4BD3F87831FB61FB6964
:101BC0001B0ADBB2BB61FB69DBB2FB6141E0264B68
:101BD000D3F87831FB61FB691B0EBB61FB691B0C01
:101BE000DBB2FB6135E0204BD3F86C31FB61FB6964
:101BF0001B0ADBB2BB61FB69DBB2FB6129E01A4B5C
:101C0000D3F86C31FB61FB691B0EBB61FB691B0CDC
:101C1000DBB2FB611DE0144BD3F87031FB61FB6953
:101C20001B0ADBB2BB61FB69DBB2FB6111E00E4B4F
:101C3000D3F87031FB61FB691B0EBB61FB691B0CA8
:101C4000DBB2FB6105E040F6D5010848FEF7E4FE93
:101C500000BFFB68FA691A60BB68BA691A6000BF06
:101C60002037BD4680BD00BFB081E00F042B0000CF
:101C700080B584B000AF0346FB713E4B5B6B012B1C
:101C80000CBF01230023FB73FFF7C4FD00BF394BDA
:101C90009B6F03F00103002BF9D1364B1B6C03F053
:101CA0000303BB60BB68002B04D001220D21324826
:101CB000FFF75CFDBB68DBB2FA799A4208D1FB7989
:101CC000002B53D100220D212B48FFF74FFD4DE093
:101CD000BB68032B02D0BB68002B20D1FB79022B01
:101CE00002D0FB79012B1AD14FF40020FFF76AFDD7
:101CF00000BF204B9B6F03F00103002BF9D11D4B5C
:101D00001B6C23F003031B4A43F00103136400BF61
:101D1000FFF768FD034603F40023002BF8D000BF53
:101D2000144B9B6F03F00103002BF9D1114B1B6C7B
:101D300023F00302FB790F4913430B6400BF0D4BE3
:101D40009B6F03F00103002BF9D1FB79002B14BF2B
:101D500001230023DBB21A460D210748FFF706FDD9
:101D6000FB7B002B03D0FFF749FD00E000BF1037DD
:101D7000BD4680BD00300E4054300E4080B584B06A
:101D800000AF7860FFF754FD7B681B89C82B04D92E
:101D900040F681115F48FEF73FFE7B689A887B68BA
:101DA0001B899A4204D940F682115A48FEF734FE44
:101DB0007B68B3F90C30C82B04DD40F6831155481D
:101DC000FEF72AFE7B685B78012B09D17B689B8834
:101DD000C82B12D940F687114E48FEF71DFE0CE0C5
:101DE0007B685B78022B08D17B689B880A2B04D91F
:101DF00040F68C114748FEF70FFE7B68DB8842F205
:101E00001072934204D940F694114248FEF704FE42
:101E10007B68DB884A2B02D80023FB6015E07B68D7
:101E2000DB88B3F5FA7F03D24FF08053FB600CE000
:101E30007B68DB8840F6C312934203D84FF000530F
:101E4000FB6002E04FF04053FB60334BDB6C23F050
:101E5000405323F001037A68B2F90C20002A01DB19
:101E6000012100E00021FA680A432B491343CB64A7
:101E7000294BD3F8EC30284A43F44073C2F8EC30D5
:101E80007B689A88254B1A80FFF7DAFC7B681B89F0
:101E90001A467B68B3F90C3019461046FFF782FDED
:101EA0007B689B88184600F0A9F97B689B7B1846E5
:101EB000FFF790FD7B685B8801220121184600F046
:101EC00031F8034683F00103DBB2002B06D040F665
:101ED000CB111048FEF7A0FD002317E00E4BDB6B83
:101EE0000D4A43F48063D3637B685B781846FFF741
:101EF000BFFE7B689B7A202B01D1012300E00023E9
:101F00001A4605210648FFF731FC01231846103711
:101F1000BD4680BD042B000000300E409A0000201A
:101F20003C300E4090B595B000AF78600B46FB702A
:101F30001346BB700023FB6400237B6407F124037A
:101F400000221A605A609A6007F1180300221A6092
:101F50005A609A6007F10C0300221A605A609A6076
:101F600007F1080300210A461A800A469A707B6826
:101F7000B3F5E16F06D37B6840F6B832934201D8DF
:101F8000012300E0002387F8433097F8433003F043
:101F9000010387F8433097F8433083F00103DBB245
:101FA000002B06D04FF421619148FEF735FD002348
:101FB00019E17B68B3F5E16F8CBF0123002387F83B
:101FC000423097F84230002B0AD04FF4E163FB64B3
:101FD00040F6B8337B647A6CFB6CD31ABB6409E0BF
:101FE0004FF49663FB644FF4E1637B647A6CFB6CA3
:101FF000D31ABB6497F84230002B0BD07D4BD3F83B
:1020000068313B623B6A1B0E7B613B6A1B0CDBB297
:102010003B620AE0774BD3F868313B623B6A1B0AAC
:10202000DBB27B613B6ADBB23B62734BDB6C1B0F49
:10203000DBB203F00303DBB23B723B7A97F842203A
:1020400007F10C0107F11800FFF760FD6A4BD3F8A8
:10205000EC301B0ADBB203F00303DBB27B727C7A49
:1020600097F8422007F10C03191D07F11803181DFA
:102070002346FFF74BFD7A68FB6CD31A79693A6AFD
:102080008A1A02FB03F2BB6CB2FBF3F3FB62FA6A3F
:102090003B6A1344FB627A68FB6CD31AF968BA692D
:1020A0008A1A02FB03F2BB6CB2FBF3F37B627A6A1F
:1020B000BB6913447B627A68FB6CD31A3969FA698D
:1020C0008A1A02FB03F2BB6CB2FBF3F3BB62BA6A7F
:1020D000FB691344BB62FA6A7B699A4213D8FA6AB5
:1020E0003B6A9A420FD3BA6A3B699A420BD8BA6AE2
:1020F000FB699A4207D37A6AFB689A4203D87A6AE4
:10210000BB699A4206D240F65E213948FEF784FC4C
:10211000002368E0BB78002B12D0374BDB6D23F433
:10212000FE4323F00203FA6A1202134397F8422097
:10213000002A01D0022200E000222F491343CB6580
:10214000FB78002B4ED0397A97F84230002218469F
:10215000FFF766FC034683F00103DBB2002B06D0D9
:1021600040F66D212248FEF757FC00233BE0797AC8
:1021700097F8423001221846FFF752FC034683F0DD
:102180000103DBB2002B06D040F675211848FEF79C
:1021900043FC002327E07B6AFB63BB6ABB63BA6B2B
:1021A000FB6B934238BF13467B627B6A7B63E723FA
:1021B0003B633A6B7B6B934228BF13467B620E4BAB
:1021C0005B6E23F4FF7323F001037A6A520013431A
:1021D00097F84220002A01D0012200E0002206499F
:1021E00013434B66012318465437BD4690BD00BFCC
:1021F000042B0000B081E00F00300E4080B584B0A9
:1022000000AF78600023FB60344B1B6F03F00703C3
:10221000BB60324BDB6C03F00103002B14D0BB68B6
:10222000012B11D97B68132B02D80423FB603DE0FE
:102230007B68132B05D97B68272B02D80823FB600A
:1022400034E01023FB6031E0244BDB6C03F001032E
:10225000002B14D1BB68012B11D87B68092B02D845
:102260000423FB6022E07B68092B05D97B68132BD4
:1022700002D80823FB6019E01023FB6016E0174B1F
:10228000DB6C03F00103002B0BD0BB68012B08D8DB
:102290007B68272B02D80823FB6007E01023FB6034
:1022A00004E040F6B3210E48FEF7B6FBFB68013BA5
:1022B000FB60FB681A02FB681B031343FB60074BC0
:1022C000DB6C23F47F420549FB681343CB64FFF7C3
:1022D000D7FA00BF1037BD4680BD00BF00300E40AA
:1022E000042B000080B584B000AF0346FB710021D1
:1022F0001148FFF752FAF860FB68002B02D1FB7916
:10230000012B07D9FB68002B04D140F6D2210B48E2
:10231000FEF782FB0A4B1B6F23F00702FB7908498B
:1023200013430B67074B1B881846FFF767FF00BF77
:102330001037BD4680BD00BF4C300E40042B00005E
:1023400000300E409A00002080B485B000AF786065
:1023500039607B6803F1C063FB60FB683A681A6010
:1023600000BF1437BD465DF8047B704780B485B06C
:1023700000AF786039607B6803F18063FB60FB68C5
:102380003A681A6000BF1437BD465DF8047B704799
:1023900080B582B000AF03463960FB71FB79002B3A
:1023A00031D0FB79012B2BD0FB79022B25D0FB7987
:1023B000032B1FD0FB79042B19D0FB79052B13D0ED
:1023C000FB79062B0DD0FB79072B07D0FB79082B67
:1023D00002D14FF6FF7318E0002316E04FF6FF73AB
:1023E00013E04FF6FF7310E04FF6FF730DE04FF66A
:1023F000FF730AE04FF6FF7307E04FF6FF7304E048
:102400004FF6FF7301E04FF6FF733A68134103F094
:102410000103002B04D14FF477710C48FEF7FCFA4E
:10242000FA7913465B0013441B010C3303F180431C
:1024300003F5082301213A6801FA02F21146184611
:10244000FFF794FF00BF0837BD4680BD7C2B00001E
:1024500080B582B000AF03463960FB71FB79002B79
:1024600031D0FB79012B2BD0FB79022B25D0FB79C6
:10247000032B1FD0FB79042B19D0FB79052B13D02C
:10248000FB79062B0DD0FB79072B07D0FB79082BA6
:1024900002D14FF6FF7318E0002316E04FF6FF73EA
:1024A00013E04FF6FF7310E04FF6FF730DE04FF6A9
:1024B000FF730AE04FF6FF7307E04FF6FF7304E087
:1024C0004FF6FF7301E04FF6FF733A68134103F0D4
:1024D0000103002B04D140F20B410C48FEF79CFA9B
:1024E000FA7913465B0013441B010C3303F180435C
:1024F00003F5082301213A6801FA02F21146184651
:10250000FFF722FF00BF0837BD4680BD7C2B0000CF
:1025100080B584B000AFB9607B600346FB7313469F
:10252000BB73FB7B002B31D0FB7B012B2BD0FB7BC8
:10253000022B25D0FB7B032B1FD0FB7B042B19D058
:10254000FB7B052B13D0FB7B062B0DD0FB7B072BD6
:1025500007D0FB7B082B02D14FF6FF7318E0002356
:1025600016E04FF6FF7313E04FF6FF7310E04FF6DF
:10257000FF730DE04FF6FF730AE04FF6FF7307E0BD
:102580004FF6FF7304E04FF6FF7301E04FF6FF7361
:10259000BA68134103F00103002B04D140F21B1170
:1025A0003948FEF739FABB7B002B0DD07B68002B36
:1025B00005D0FB7BB9681846FFF74AFF04E0FB7BB8
:1025C000B9681846FFF7E4FEBB68072B20D82F49EF
:1025D000FA7B13465B0013441B010B4404331A6857
:1025E000BB689B000F2101FA03F3DB431340B97B67
:1025F000BA68920001FA02F211462448FA7B1943A4
:1026000013465B0013441B0103440433196025E0A7
:102610001E49FA7B13465B0013441B010B4408332D
:102620001A68BB6803F18043083B9B000F2101FA45
:1026300003F3DB4302EA0301BA7BBB6803F1804387
:10264000083B9B0002FA03F31048FA7B1943134638
:102650005B0013441B01034408331960BB7B002B50
:102660000DD17B68002B05D0FB7BB9681846FFF7BE
:10267000EFFE04E0FB7BB9681846FFF789FE00BF58
:102680001037BD4680BD00BFF42B0000008008401D
:1026900080B483B000AF03463960FB7197F907300F
:1026A000002B0ADB3B68DAB20C4997F9073052017C
:1026B000D2B20B4483F800230AE03B68DAB208493F
:1026C000FB7903F00F03043B5201D2B20B441A769C
:1026D00000BF0C37BD465DF8047B704700E100E0A9
:1026E00000ED00E080B582B000AF78607B68013B10
:1026F000B3F1807F01D301230FE00A4A7B68013BDD
:10270000536007214FF0FF30FFF7C2FF054B002257
:102710009A60044B07221A60002318460837BD460A
:1027200080BD00BF10E000E080B400AF4FF08043F8
:1027300001225A64154BD3F8B030144A43F0010318
:10274000C2F8B030114BD3F8E030104A43F0080320
:10275000C2F8E0300E4B1B680D4A43F480531360FF
:102760000A4BD3F8E030094A23F00803C2F8E030FE
:10277000064BD3F8B030054A23F00103C2F8B0305D
:1027800000BFBD465DF8047B704700BF00400E40AF
:102790003440054080B400AF044B1B680133034A4A
:1027A000136000BFBD465DF8047B7047A0000020A9
:1027B00080B485B000AF7860084B1B68FB6000BF39
:1027C000064B1A68FB68D31A7A689A42F8D800BF99
:1027D0001437BD465DF8047B704700BFA0000020A1
:1027E00090B585B000AF164B3C460FCB84E80F0088
:1027F000FFF79AFF3B461846FFF7C0FAFDF7AAFF1E
:102800001048FEF731FC02460F4BA3FB02239B0945
:102810001846FFF767FF0346002B00D0FEE7FDF7E1
:102820001DFF0120FDF774FF4FF47A70FFF7C0FF22
:102830000020FDF76DFF0120FDF76AFFF4E700BF00
:102840006C2C000070000200D34D621008B5074BDD
:10285000044613B10021AFF30080054B1868836A6A
:1028600003B19847204600F031F800BF0000000097
:102870007C2C000070B50D4E0D4CA41BA41000253F
:10288000A54209D10B4E0C4C00F022F8A41BA41059
:102890000025A54205D170BD56F825309847013571
:1028A000EEE756F8253098470135F2E7740000202E
:1028B00074000020740000207800002002440346C9
:1028C000934200D1704703F8011BF9E7FEE700BF10
:1028D000F8B500BFF8BC08BC9E467047F8B500BF0D
:1028E000F8BC08BC9E4670472F4170706C696361EC
:1028F00074696F6E732F53696D706C696369747955
:102900002053747564696F2E6170702F436F6E74FD
:10291000656E74732F45636C697073652F6465769B
:10292000656C6F7065722F73646B732F6765636B73
:102930006F5F73646B5F73756974652F76322E37C2
:102940002F2F706C6174666F726D2F656D6C69628C
:102950002F696E632F656D5F6770696F2E68000069
:1029600000030000070000000A000000070000004C
:102970000B000000070000000C0000000003000036
:10298000070000000D000000070000000E0000001E
:10299000070000000F0000002F4170706C69636138
:1029A00074696F6E732F53696D706C6963697479A4
:1029B0002053747564696F2E6170702F436F6E744D
:1029C000656E74732F45636C697073652F646576EB
:1029D000656C6F7065722F73646B732F6765636BC3
:1029E0006F5F73646B5F73756974652F76322E3712
:1029F0002F2F706C6174666F726D2F656D6C6962DC
:102A00002F696E632F656D5F636F6D6D6F6E2E68DE
:102A1000000000002F4170706C69636174696F6E13
:102A2000732F53696D706C69636974792053747581
:102A300064696F2E6170702F436F6E74656E74736E
:102A40002F45636C697073652F646576656C6F7074
:102A500065722F73646B732F6765636B6F5F73644D
:102A60006B5F73756974652F76322E372F2F706CFC
:102A70006174666F726D2F656D6C69622F696E632C
:102A80002F656D5F636D752E680000002F417070BB
:102A90006C69636174696F6E732F53696D706C69D3
:102AA000636974792053747564696F2E6170702F37
:102AB000436F6E74656E74732F45636C69707365D4
:102AC0002F646576656C6F7065722F73646B732FFE
:102AD0006765636B6F5F73646B5F73756974652F94
:102AE00076322E372F706C6174666F726D2F656D44
:102AF0006C69622F7372632F656D5F636D752E63F2
:102B0000000000002F4170706C69636174696F6E22
:102B1000732F53696D706C69636974792053747590
:102B200064696F2E6170702F436F6E74656E74737D
:102B30002F45636C697073652F646576656C6F7083
:102B400065722F73646B732F6765636B6F5F73645C
:102B50006B5F73756974652F76322E372F706C61D9
:102B600074666F726D2F656D6C69622F7372632F5F
:102B7000656D5F656D752E63000000002F417070FC
:102B80006C69636174696F6E732F53696D706C69E2
:102B9000636974792053747564696F2E6170702F46
:102BA000436F6E74656E74732F45636C69707365E3
:102BB0002F646576656C6F7065722F73646B732F0D
:102BC0006765636B6F5F73646B5F73756974652FA3
:102BD00076322E372F2F706C6174666F726D2F6591
:102BE0006D6C69622F696E632F656D5F6770696FC9
:102BF0002E6800002F4170706C69636174696F6E9C
:102C0000732F53696D706C6963697479205374759F
:102C100064696F2E6170702F436F6E74656E74738C
:102C20002F45636C697073652F646576656C6F7092
:102C300065722F73646B732F6765636B6F5F73646B
:102C40006B5F73756974652F76322E372F706C61E8
:102C500074666F726D2F656D6C69622F7372632F6E
:102C6000656D5F6770696F2E6300000000020807E2
:102C700005000A00C8000000FFFF0100140000204A
:042C80000000000050
:082C84000CD5FF7F01000000E8
:102C8C0080F0FA0200800000C0EA2101C0EA2101B4
:102C9C00006CDC02000000000000000000000000DE
:102CAC000000000000000000000000000000000018
:102CBC000000000000000000000000000000000008
:102CCC0000000000000000000000000000000000F8
:102CDC0000000000000000000000000000000000E8
:102CEC0000000000000000000000000000000000D8
:0C2CFC0000000000750100005101000004
:04000003000008757C
:00000001FF
