:100000000000082089710000B5710000B571000082
:10001000B5710000B5710000B5710000B571000048
:10002000B5710000B5710000B5710000B571000038
:10003000B5710000B5710000E522010075250100D1
:10004000B5710000B5710000DD3C00008D3C000082
:10005000B5710000993B0000B5710000B57100005A
:10006000B5710000B5710000B5710000B5710000F8
:10007000B5710000B53C0000B5710000B57100001D
:10008000B5710000B5710000B5710000B5710000D8
:10009000B5710000B5710000B5710000B5710000C8
:1000A000B5710000B5710000B5710000B5710000B8
:1000B000B5710000B5710000B5710000B5710000A8
:1000C000B5710000B5710000B5710000B571000098
:1000D000B5710000B5710000B5710000E148000085
:1000E000B5710000B5710000B5710000B571000078
:1000F000B5710000B5710000B5710000B571000068
:10010000B5710000B5710000B5710000B571000057
:10011000B5710000B5710000B5710000B571000047
:10012000B5710000B5710000B5710000B571000037
:10013000B5710000B5710000B5710000B571000027
:10014000B5710000B5710000B5710000B571000017
:1001500010B5054C237833B9044B13B10448AFF301
:1001600000800123237010BD000200200000000069
:1001700098A40400084B10B51BB108480849AFF318
:1001800000800848036803B910BD074B002BFBD063
:10019000BDE81040184700BF0000000098A404000C
:1001A00004020020A801002000000000154B002BD5
:1001B00008BF134B9D46A3F5803A00218B460F469E
:1001C0001348144A121A42F06CFD0F4B002B00D05A
:1001D00098470E4B002B00D09847002000210400C8
:1001E0000D000D48002802D00C48AFF3008042F00B
:1001F00027FD2000290006F03BF842F017FC00BF65
:1002000000000800000008200000000000000000BE
:1002100000020020945702200000000000000000AF
:1002200080B483B000AF78603960FEE780B487B0F7
:1002300000AFF860B9607A60FB6803F10473DA001C
:10024000BB6813449B007B617B697A681A601C372A
:10025000BD465DF8047B704780B485B000AF786020
:1002600039607B6803F10473DA003B6813449B0038
:10027000FB60FB681B6818461437BD465DF8047BBD
:10028000704700BF80B485B000AF786039607B688C
:1002900003F1C063FB60FB683A681A601437BD461F
:1002A0005DF8047B704700BF80B485B000AF786014
:1002B00039607B6803F18063FB60FB683A681A6011
:1002C0001437BD465DF8047B704700BF80B483B02F
:1002D00000AF78607B68012202FA03F318460C37FE
:1002E000BD465DF8047B704780B584B000AF786090
:1002F0007B68B3F5004F04D30E4840F23671FFF728
:100300008FFF7B680133B3FA83F3C3F11F03FB60F4
:10031000F868FFF7DBFF03465A1E7B689A4204D059
:10032000044840F23C71FFF77BFFFB68184610372A
:10033000BD4680BD9C3D040080B500AF00BF0448B1
:100340001221FFF789FF0346002BF8D180BD00BFC3
:1003500004300E4080B500AFFFF7EEFF034B5B6843
:1003600003F440331B0CDBB2184680BD00300E4056
:1003700080B584B000AF78600123FB607B68124ACF
:10038000934204D80023FB600023BB6008E07B6835
:100390000E4A934202D80123BB6001E00223BB60F6
:1003A0000B481021FA68FFF741FF0949084BD3F8C1
:1003B000003123F04072BB681B061343C1F80031C3
:1003C0001037BD4680BD00BF0048E8010090D00353
:1003D00000400E4080B483B000AF054B1B687B60CB
:1003E0007B6818460C37BD465DF8047B704700BF3C
:1003F0000000002080B582B000AF06F009FF7860F1
:10040000064BD3F8003103F4F8531B0A01337A6822
:1004100002FB03F318460837BD4680BD00400E407E
:1004200080B582B000AF0F4801F0DCF80346FB70E6
:10043000FB78072B05D0092B07D106F0E9FE786081
:100440000BE0FFF7C7FF786007E0074840F2EF11C5
:10045000FFF7E6FE00237B6000BF7B681846083785
:10046000BD4680BD06000C00083E040080B584B087
:1004700000AF78607B68002B02D0012B06D00BE028
:10048000224801F0AFF80346FB720CE0204801F06F
:10049000A9F80346FB7206E01E484FF40471FFF70B
:1004A000BFFE00232EE0FB7A013B072B21D801A2DF
:1004B00052F823F0D5040000F3040000F304000018
:1004C000E3040000F3040000F3040000DB04000078
:1004D000EB0400000023FB6013E0FFF77BFFF860F4
:1004E0000FE006F0CDFEF8600BE0FFF783FFF86049
:1004F00007E0084840F22621FFF792FE0023FB6048
:1005000000BFFB6818461037BD4680BD98002E001E
:1005100099003000083E040080B582B000AF1C484E
:1005200001F060F80346FB70FB78043B062B21D8F2
:1005300001A252F823F000BF5D0500005505000040
:1005400075050000650500007505000075050000D3
:100550006D0500000F4B1B687B6013E006F090FEFA
:1005600078600FE0FFF736FF78600BE00A4B1B68FE
:100570007B6007E009484FF41471FFF751FE002338
:100580007B6000BF7B6818460837BD4680BD00BF52
:100590000A7B32005400002004000020083E0400C2
:1005A00080B584B000AF78607B68002B1AD11F48FB
:1005B00001F018F80346FB7200BFFB7A043B062BE0
:1005C00027D801A252F823F0FB050000F305000034
:1005D00013060000030600001306000013060000C7
:1005E0000B06000012484FF41B71FFF719FE0023A1
:1005F00018E0104B1B68FB6013E006F041FEF8604A
:100600000FE0FFF7E7FEF8600BE00B4B1B68FB60A9
:1006100007E0074840F28221FFF702FE0023FB605B
:1006200000BFFB6818461037BD4680BD0B7C340008
:10063000083E0400540000200400002080B582B071
:1006400000AF244800F0CEFF0346FB70FB78023B6E
:10065000092B31D801A252F823F000BFA9060000EF
:10066000B10600008D060000A1060000B9060000DA
:10067000B9060000B9060000B906000085060000B2
:1006800095060000144B1B687B601DE006F0F8FD2A
:10069000786019E006F0F4FD03465B007B6013E030
:1006A0000E4B1B687B600FE006F010FE78600BE0DD
:1006B00006F0F8FD786007E0094840F2B321FFF743
:1006C000AFFD00237B6000BF7B6818460837BD463E
:1006D00080BD00BF0C7F36000400002054000020C5
:1006E000083E040080B586B000AF786039604FF0F6
:1006F00080431B6C002B14BF01230023FB734FF0BE
:10070000804341F671321A644FF080435B6803F016
:1007100040737B6100233B6113E01F4A3B69DB00B0
:1007200013441B791A463B689A4207D11A4A3B691F
:1007300052F833207B689A4200D305E03B690133CD
:100740003B613B69062BE8D93B69072B07D113486E
:1007500040F20B31FFF764FD03237B6105E00E4A95
:100760003B69DB0013445B797B617B691B067B6122
:100770004FF080414FF080435B6823F040727B690B
:1007800013434B60FB7B002B03D04FF080430022D0
:100790001A641837BD4680BD403E0400083E040080
:1007A00080B500AF06F02AFD034618460021FFF78A
:1007B00099FF80BD80B584B000AF786039600B4B85
:1007C000FB603B68022B01D1094BFB607A68FB6838
:1007D0009A4204D907480849FFF754FD03E0054849
:1007E0000549FFF761FD1037BD4680BD80D5430246
:1007F0000024F400000100400202020080B582B033
:1008000000AF786039607B680A4A934209D93B6837
:10081000002B06D14FF080404FF48051FFF732FD9E
:1008200005E04FF080404FF48051FFF73DFD083761
:10083000BD4680BD80F0FA0280B582B000AF78601E
:10084000396078683968FFF74DFF78683968FFF7D5
:10085000B1FF78683968FFF7D1FF0837BD4680BD22
:1008600080B400AF044B5B6A03F030031846BD460A
:100870005DF8047B704700BF00400E4080B483B039
:1008800000AF78600649064B5B6A23F030027B6854
:1008900013434B620C37BD465DF8047B704700BFC5
:1008A00000400E4090B585B000AF78600023BB607B
:1008B0007B68434A934212D0414A934203D8414A4B
:1008C00093420CD005E0404A934208D03F4A9342FD
:1008D00005D03F4840F2ED31FFF7A2FC00E000BF39
:1008E000786800F07FFE0346FB607B68344A9342E1
:1008F00014D0334A934203D8324A934207D022E0BD
:10090000314A934211D0314A934215D01BE0314B0A
:10091000D3F8803003F00703FB601AE02D4BD3F8C7
:10092000843003F00703FB6013E02A4BD3F88C30CC
:1009300003F00703FB600CE0264BD3F8883003F08C
:100940000703FB6005E0224840F21C41FFF768FC0A
:1009500000BFFB68042B2ED801A252F823F000BF81
:10096000B1090000750900007D0900008D09000033
:100970008509000006F096FCB8601CE006F0A6FCB5
:10098000B86018E006F098FCB86014E006F014FCBB
:100990000446104BD3F8003103F040731B0E0133B3
:1009A0001846FFF793FC0346B4FBF3F3BB6002E089
:1009B0000023BB6000BFBB6818461437BD4690BD1E
:1009C00003001C0002001A0004001E0005002000A5
:1009D000083E040000400E4080B483B000AF786051
:1009E0000A4BD3F8443103F00103002B00D007E099
:1009F00000BF064BD3F840217B681340002BF8D191
:100A00000C37BD465DF8047B704700BF00400E40C8
:100A100080B582B000AF7860786800F04DFA034688
:100A2000013318460837BD4680BD00BF80B582B08F
:100A300000AF786039603B68013B7868194600F088
:100A400087FB0837BD4680BD80B586B000AF7860B3
:100A50000B46FB7000233B617B681B0A03F00F030E
:100A6000013B0E2B6AD801A252F823F0A90A00001C
:100A7000B50A00003D0B00003D0B0000AF0A00006E
:100A8000C10A0000CB0A0000D50A0000E10A0000FC
:100A9000370B0000ED0A00000F0B00003D0B0000BB
:100AA000BB0A0000310B0000314B7B614CE0314B45
:100AB0007B6149E0304B7B6146E0304B7B6143E03A
:100AC0002F4B7B6101233B613EE02E4B7B6110236A
:100AD0003B6139E02C4B7B614FF480733B6133E029
:100AE0002A4B7B614FF480333B612DE0284B7B61C7
:100AF000FB78002B14BF01230023DBB283F001033A
:100B0000DBB2FB70FB7803F00103FB701CE0214BB0
:100B10007B61FB78002B14BF01230023DBB283F041
:100B20000103DBB2FB70FB7803F00103FB700BE009
:100B3000194B7B6108E0194B7B6105E018484FF4C5
:100B40000161FFF76DFB10E07B681B0B03F01F03D7
:100B5000FB603B69002B02D03869FFF73DFFFB7853
:100B60007869F9681A46FFF761FB1837BD4680BD02
:100B700000400E40B0400E40C0400E40C4400E4009
:100B8000E0400E40E8400E40EC400E40F0400E4089
:100B900060410E4064410E40F0410E4050410E4015
:100BA000083E040080B584B000AF78607B6803F431
:100BB0007813B3F5C01F00F00581B3F5C01F31D81D
:100BC000B3F5402F00F02A81B3F5402F12D8B3F5CA
:100BD000802F62D0B3F5802F05D8002B59D0B3F504
:100BE000003F6DD04EE1B3F5002F65D0B3F5202F57
:100BF00075D047E1B3F5901F00F09480B3F5901FD6
:100C000007D8B3F5602F00F00D81B3F5801F7AD0BF
:100C100038E1B3F5A01F00F08A80B3F5B01F00F0F3
:100C2000BF802FE1B3F5301F00F0DF80B3F5301F38
:100C300016D8B3F5001F00F0EC80B3F5001F07D8FD
:100C4000B3F5D01F5AD0B3F5E01F00F0A48019E12E
:100C5000B3F5181F7DD0B3F5281F00F08D8011E18A
:100C6000B3F5481F00F00181B3F5481F08D8B3F56C
:100C7000381F00F0DB80B3F5401F00F0E68001E193
:100C8000B3F5501F00F0F580B3F5581F00F0F68063
:100C9000F8E006F0BDFAF860FCE006F0B9FAF8609A
:100CA0007F4BD3F80C217F4B13401B0A0133FA68AA
:100CB000B2FBF3F3FB60EDE006F0AAFAF860E9E0BE
:100CC00006F0A6FAF860764BD3F80821754B13406E
:100CD0001B0A0133FA68B2FBF3F3FB60DAE006F0BB
:100CE00097FAF8606E4BD3F8143103F4F8531B0AEB
:100CF0000133FA68B2FBF3F3FB60CBE06A48FFF71D
:100D0000D1FDF860C6E06848FFF7CCFDF860644BA1
:100D1000D3F8203103F470231B0C1A46FB68D34030
:100D2000FB60B7E06148FFF7BDFDF860B2E05E48E8
:100D3000FFF7B8FDF8605A4BD3F8203103F00F03EA
:100D40001846FFF7C3FA0246FB68B3FBF2F3FB60F9
:100D5000A0E05548FFF7A6FDF860514BD3F82031CD
:100D600003F4E0431B0B1846FFF7B0FA0246FB689A
:100D7000B3FBF2F3FB608DE04B48FFF793FDF860A7
:100D8000474BD3F8203103F440731B0A1A46FB6823
:100D9000D340FB607EE04648FFF784FDF86079E0D1
:100DA0004348FFF77FFDF8603D4BD3F8283103F04F
:100DB00003031846FFF78AFA0246FB68B3FBF2F317
:100DC000FB6067E03A48FFF76DFDF860344BD3F8FD
:100DD000283103F030031B091846FFF777FA024663
:100DE000FB68B3FBF2F3FB6054E03148FFF75AFDB8
:100DF000F8602B4BD3F8283103F440531B0B04331A
:100E00001846FFF763FA0246FB68B3FBF2F3FB6098
:100E100040E02648FFF746FDF8603BE0FFF700FBA7
:100E2000F86037E0FFF7D6FAF86033E00020FFF70C
:100E30001DFBF8601A4BD3F85C3103F00303013358
:100E4000FA68B2FBF3F3FB6024E00120FFF70EFB2E
:100E5000F860134BD3F85C3103F440331B0C0133BF
:100E6000FA68B2FBF3F3FB6014E0FFF755FBF860A0
:100E700010E00020FFF794FBF8600BE0FFF7DEFBCB
:100E8000F86007E00B4840F60411FFF7C9F90023AA
:100E9000FB6000BFFB6818461037BD4680BD00BF31
:100EA00000400E4000FF010002001A000500200073
:100EB00003001C00083E040080B584B000AF7860D9
:100EC0007B681B0903F00F03BB60BB68013B082B69
:100ED00000F2128101A252F823F000BF010F0000BE
:100EE000110F0000210F0000310F0000410F000022
:100EF000510F00001D10000099100000B9100000F3
:100F0000844BD3F8003103F4F8531B0AFB60FBE079
:100F1000804BD3F8143103F4F8531B0AFB60F3E061
:100F20007C4BD3F8003103F040731B0EFB60EBE009
:100F3000784BD3F80C21784B13401B0AFB60E3E09D
:100F4000744BD3F80821744B13401B0AFB60DBE0A1
:100F50007B68724A93422ED0704A934206D8704AF8
:100F6000934244D06F4A93420AD04EE06E4A934275
:100F70002FD06E4A934210D06D4A934229D044E05C
:100F8000644BD3F8203103F00F03FB60F868FFF7E0
:100F90009DF90346013BFB603FE05E4BD3F82031F7
:100FA00003F440731B0AFB60F868FFF78FF90346F0
:100FB000013BFB6031E0574BD3F8203103F0F003E5
:100FC0001B09FB60F868FFF781F90346013BFB60F2
:100FD00023E0504BD3F8203103F4E0431B0BFB60BC
:100FE000F868FFF773F90346013BFB6015E0494BD6
:100FF000D3F8203103F470231B0CFB60F868FFF773
:1010000065F90346013BFB6007E04A4840F6691179
:10101000FFF706F90023FB6000BF75E07B68464AD6
:10102000934212D0454A93421DD0454A93422AD159
:10103000384BD3F8283103F00303FB60F868FFF75F
:1010400045F90346013BFB6025E0324BD3F82831DC
:1010500003F030031B09FB60F868FFF737F903461C
:10106000013BFB6017E02B4BD3F8283103F44053CE
:101070001B0BFB60FB6804331846FFF727F9034698
:10108000013BFB6007E02B4840F68D11FFF7C8F8E5
:101090000023FB6000BF37E07B682A4A934202D1FD
:1010A0000023FB6007E0234840F69D11FFF7B8F8E6
:1010B0000023FB6000BF27E07B68234A934203D0F4
:1010C000224A934207D00EE0124BD3F85C3103F072
:1010D0000303FB600FE00F4BD3F85C3103F44033A4
:1010E0001B0CFB6007E0134840F6B311FFF798F8BC
:1010F0000023FB6000BF07E00E4840F6BA11FFF77F
:101100008FF80023FB6000BFFB6818461037BD4610
:1011100080BD00BF00400E4000FF010060161400BB
:1011200060461000600614000036280060262A0081
:1011300060002600083E04007017180070372C006D
:10114000700716008009120098002E0099003000E8
:1011500080B584B000AF786039607B681B0903F00C
:101160000F03FB60FB68013B082B00F2288201A201
:1011700052F823F099110000ED1100001512000043
:101180003D1200006B120000C51200000D1400009B
:101190000F150000531500003B681F2B04D9BB48F6
:1011A0004FF41E61FFF73CF8FFF7FAFAB848FFF773
:1011B000DFF8B849B74BD3F8003123F4F8523B6855
:1011C0001B021343C1F8003105F0F6FFB860FFF7CA
:1011D000C1F80346B8681946FFF72EFBAE48FFF783
:1011E000E1FC03461846FFF7C3F8EEE13B681F2B0E
:1011F00004D9A64840F6F211FFF712F8A549A54B0D
:10120000D3F8143123F4F8523B681B021343C1F89E
:101210001431DAE13B68022B04D99C4840F6FA11FC
:10122000FEF7FEFF9B499B4BD3F8003123F0407241
:101230003B681B061343C1F80031C6E13B68B3F5B8
:10124000007F04D3914840F60721FEF7E9FF91495A
:10125000904BD3F80C3123F4FF3323F480733A68B6
:1012600012021343C1F80C31AFE13B68B3F5007FC4
:1012700004D3864840F60E21FEF7D2FFFFF790FA1E
:101280008348FFF775F88349824BD3F8083123F47C
:10129000FF3323F480733A6812021343C1F8083114
:1012A00005F08AFFB860FFF755F80346B86819469D
:1012B000FFF7C2FA7848FFF775FC03461846FFF7B8
:1012C00057F882E17B68754A934246D0734A93424D
:1012D00006D8734A93420DD0724A934226D08EE0CC
:1012E000714A93426FD0714A934251D0704A9342EF
:1012F00069D084E03B68B3F5004F04D9634840F6F9
:101300002221FEF78DFF3868FEF7EEFF38600420DB
:10131000FFF762FB5F495F4BD3F8203123F4702263
:101320003B681B041343C1F820316EE03B68002B7F
:1013300004D0564840F63321FEF772FF4FF4802068
:10134000FFF74AFB5349534BD3F8303123F00302E4
:101350003B681343C1F8303157E03B68B3F5004FA9
:1013600004D94A4840F64B21FEF75AFF3868FEF789
:10137000BBFF38600420FFF72FFB4649454BD3F8ED
:10138000203123F00F023B681343C1F820313CE0C9
:101390003B68082B04D93D4840F65A21FEF740FF30
:1013A0003868FEF7A1FF38600420FFF715FB3949C4
:1013B000384BD3F8203123F440723B681B021343AF
:1013C000C1F8203121E03B68B3F5004F04D92F4824
:1013D00040F66B21FEF724FF3868FEF785FF386082
:1013E0000420FFF7F9FA2B492A4BD3F8203123F4D4
:1013F000E0423B681B031343C1F8203105E023485A
:1014000040F67921FEF70CFF00BFDEE07B68294A39
:1014100093421FD0284A934252D0284A93426FD118
:101420003B68082B04D9194840F68221FEF7F8FEE4
:101430003868FEF759FF38604020FFF7CDFA1549AC
:10144000144BD3F8283123F003023B681343C1F84F
:1014500028315BE03B68082B04D90C4840F6912109
:10146000FEF7DEFE3868FEF73FFF38604020FFF7EA
:10147000B3FA0849074BD3F8283123F030023B6810
:101480001B011343C1F8283140E000BF083E0400AF
:101490000148E80100400E40000508006006140005
:1014A00060461000800912000036280060262A00DD
:1014B000600026007017180070372C0070071600A7
:1014C0003B687F2B02D83B680E2B04D840484FF472
:1014D0002A61FEF7A5FE3868FEF706FF0346043BC7
:1014E0003B604020FFF778FA3A493A4BD3F828316D
:1014F00023F440523B681B031343C1F8283105E035
:10150000334840F6AF21FEF78BFE00BF5DE07B68FD
:10151000314A934216D13B68002B04D02C4840F648
:10152000B821FEF77DFE4FF48020FFF755FA2949D8
:10153000284BD3F8303123F003023B681343C1F842
:10154000303105E0224840F6C321FEF769FE00BFB6
:101550003BE07B68214A934203D0214A934213D057
:1015600026E03B68032B04D9194840F6CC21FEF74E
:1015700057FE1849174BD3F85C3123F003023B6840
:101580001343C1F85C3119E03B68032B04D91048C0
:1015900040F6D421FEF744FE0E490E4BD3F85C31E1
:1015A00023F440323B681B041343C1F85C3105E06F
:1015B000074840F6DA21FEF733FE00BF05E0044895
:1015C0004FF42E61FEF72CFE00BF1037BD4680BDE4
:1015D000083E040000400E408009120098002E00D2
:1015E0009900300080B584B000AF78600123FB73B0
:1015F0007B6803F00F03BB60BB68013B0B2B00F261
:10160000408101A252F823F0391600006B16000049
:101610009B16000083180000E1160000111700005F
:1016200083180000311700006D170000B11700008B
:10163000EF1700002F1800009B4BD3F8943003F0F5
:101640000703032B07D0042B02D0022B06D008E09F
:101650000223FB7308E00323FB7305E00423FB7301
:1016600002E00523FB7300BF18E18F4BD3F88030F5
:1016700003F00703022B06D0042B07D0012B08D15F
:101680000323FB7308E00223FB7305E00C23FB73C9
:1016900002E00123FB7300BF00E1834BD3F88430E9
:1016A00003F00703013B032B16D801A252F823F0E5
:1016B000C1160000C7160000D3160000CD160000AA
:1016C0000323FB730BE00223FB7308E00C23FB7383
:1016D00005E00623FB7302E00123FB7300BFDDE09E
:1016E000714BD3F8883003F00703022B06D0042B8C
:1016F00007D0012B08D10323FB7308E00223FB73FF
:1017000005E00C23FB7302E00123FB7300BFC5E07F
:10171000654B1B6F03F00303002B05D0012B00D09A
:10172000BCE00923FB7302E00723FB7300BFB5E0B5
:101730005D4BD3F85C3103F03003102B0CD0102B31
:1017400002D8002B05D0A9E0202B08D0302B09D0DF
:10175000A4E00123FB7308E00723FB7305E00423E7
:10176000FB7302E00823FB7300BF97E04E4BD3F8F6
:101770005C3103F44013B3F5801F0FD0B3F5801F25
:1017800002D8002B07D089E0B3F5001F09D0B3F5CC
:10179000401F09D082E00123FB7308E00723FB739D
:1017A00005E00423FB7302E00823FB7300BF75E030
:1017B0003D4BD3F8603103F00303032B69D801A23A
:1017C00052F823F0D5170000DB170000E1170000E6
:1017D000E71700000523FB7308E00423FB7305E013
:1017E0000723FB7302E00A23FB7300BF51E02E4B7B
:1017F000D3F8643103F00303032B4CD801A252F851
:1018000023F000BF151800001B180000211800006D
:10181000271800000523FB7308E00423FB7305E091
:101820000723FB7302E00A23FB7300BF33E01E4B68
:10183000D3F8F03103F00703052B2ED801A252F89C
:1018400023F000BF5D180000631800006918000055
:101850006F180000751800007B1800000A23FB7346
:101860000EE00423FB730BE00B23FB7308E005235E
:10187000FB7305E00223FB7302E00323FB7300BF4D
:101880000BE00A4840F6A841FEF7CAFC0023FB73B0
:1018900004E000BF02E000BF00E000BFFB7B184691
:1018A0001037BD4680BD00BF00400E40083E04001A
:1018B00080B58AB000AF78600B46FB7003237B6273
:1018C000032387F823300023BB6100237B617B68FF
:1018D000112B19D1FB78042B03D105F0D1FC7861D1
:1018E0000BE0FB78052B08D100F0D8FA0246BC4B80
:1018F0009A4202D900F0D2FA78617B69002B03D0BA
:101900007869002100F0C8FD7B6803F00F033B619C
:101910003B69013B0B2B00F2B18201A252F823F08C
:1019200051190000371A0000911A0000551A0000E2
:10193000731A0000391B00007D1E0000631B0000AD
:10194000091C0000891C0000171D0000A31D0000D9
:10195000FB78023B0A2B3DD801A252F823F000BFCE
:101960008D19000099190000A5190000B719000091
:10197000D5190000D5190000D5190000D5190000AF
:10198000D5190000D5190000C919000004237B6295
:10199000002387F8233023E003237B62012387F8A9
:1019A00023301DE002237B62022387F823308D4819
:1019B000FEF7DEFC14E001237B62032387F823306B
:1019C0008848FEF7D5FC0BE0874840F64C51FEF7FF
:1019D00027FC59E2844840F65151FEF721FC53E2BE
:1019E00097F8233018460121012200F0D5FAFEF7BE
:1019F000D7FE7B69002B01D0FEF79EFC7B4A7B6AF9
:101A000053677B48FFF7CEF803461846FEF7B0FC55
:101A100005F0D2FBF860FEF79DFC0346F868194616
:101A2000FEF70AFF7B69002B04D10020012100F0A2
:101A300033FD29E228E2BB69002B01D0BB6900E03D
:101A40006C4BBB61FB78062B04D1674840F6835191
:101A5000FEF7E6FBBB69002B01D0BB6900E0664BDB
:101A6000BB61FB78062B04D15F4840F68C51FEF732
:101A7000D7FBBB69002B01D0BB6900E05F4BBB61AA
:101A8000FB78062B04D1584840F69551FEF7C8FB69
:101A9000BB69002B01D0BB6900E0594BBB61FB78EF
:101AA000013B0B2B3ED801A252F823F0DD1A0000B7
:101AB000E31A0000F31A0000251B0000251B00009C
:101AC000031B0000251B0000251B0000251B000038
:101AD000251B0000251B00001F1B00000023FB61CD
:101AE00026E000200121012200F056FA0223FB61CA
:101AF0001EE001200121012200F04EFA0123FB61CA
:101B000016E005F059FB03461846FEF731FC3D4848
:101B100000210122FEF78AFB0323FB6108E0042376
:101B2000FB6105E0304840F6C151FEF779FBABE1BF
:101B3000BB69FA691A60A7E1FB78072B02D0092B71
:101B400004D007E0294B00221A6709E0274B012245
:101B50001A6705E0244840F64B61FEF761FB93E10C
:101B600092E1FB78013B072B28D801A252F823F021
:101B7000911B0000BD1B0000BD1B0000A71B000047
:101B8000BD1B0000BD1B0000971B0000B71B000021
:101B90000023FB6118E004200121012200F0FCF980
:101BA0000123FB6110E002200121012200F0F4F981
:101BB0000223FB6108E00323FB6105E00A4840F6CD
:101BC000A961FEF72DFB5FE10849084BD3F85C31B2
:101BD00023F03002FB691B011343C1F85C3153E170
:101BE000002D31010148E801083E040000400E408C
:101BF0000005080080400E408C400E4088400E409A
:101C000084400E40B0400E40FB78013B072B29D8A2
:101C100001A252F823F000BF391C0000651C00002F
:101C2000651C00004F1C0000651C0000651C0000C6
:101C30003F1C00005F1C00000023FB6118E0042033
:101C40000121012200F0A8F90123FB6110E002202C
:101C50000121012200F0A0F90223FB6108E0032327
:101C6000FB6105E08A4840F6CC61FEF7D9FA0BE14A
:101C70008849884BD3F85C3123F44012FB691B057B
:101C80001343C1F85C31FFE0FB78043B062B31D8ED
:101C900001A252F823F000BFC51C0000B51C0000D3
:101CA000F51C0000D51C0000F51C0000F51C000010
:101CB000E51C000003200121012200F06DF9002342
:101CC000FB611DE002200121012200F065F90123E2
:101CD000FB6115E004200121012200F05DF90223DF
:101CE000FB610DE005200121012200F055F90323DD
:101CF000FB6105E0664840F6F361FEF791FAC3E048
:101D00006449644BD3F8603123F00302FB69134349
:101D1000C1F86031B8E0FB78043B062B30D801A253
:101D200052F823F0511D0000411D0000811D0000EC
:101D3000611D0000811D0000811D0000711D00005B
:101D400003200121012200F027F90023FB611DE09F
:101D500002200121012200F01FF90123FB6115E09F
:101D600004200121012200F017F90223FB610DE09C
:101D700005200121012200F00FF90323FB6105E09A
:101D8000434840F61A71FEF74BFA7DE04149414B5A
:101D9000D3F8643123F00302FB691343C1F86431C3
:101DA00072E0FB78023B092B57D801A252F823F0CE
:101DB0003B1E00004B1E0000E91D00002B1E000012
:101DC0005B1E00005B1E00005B1E00005B1E00002F
:101DD000D91D0000F91D000005200121012200F09D
:101DE000DBF80023FB613EE002200121012200F02C
:101DF000D3F80123FB6136E005F042FA0246264B98
:101E00009A4204D9224840F63571FEF709FA214A70
:101E1000204B5B6A43F00803536202200121012238
:101E200000F0BAF80223FB611DE00320012101222A
:101E300000F0B2F80323FB6115E00020012101222C
:101E400000F0AAF80423FB610DE00120012101222A
:101E500000F0A2F80523FB6105E00D4840F654713F
:101E6000FEF7DEF910E00B490A4BD3F8F03123F00E
:101E70000702FB691343C1F8F03105E0044840F65E
:101E80005F71FEF7CDF900BF2837BD4680BD00BFAA
:101E9000083E040000400E4040787D0180B400AF51
:101EA000034B1B681846BD465DF8047B704700BFB6
:101EB0005400002080B584B000AF78601120FFF797
:101EC00091FB0346042B04D1304841F2D411FEF7B4
:101ED000A7F902200021012200F05EF80023FB6038
:101EE0007B68DB7A012B09D0022B04D0002B08D1B0
:101EF0000023FB600AE00323FB6007E00123FB6093
:101F000004E0224841F2E711FEF78AF92049204B0C
:101F10005B6A23F00302FB6813434B620023FB6000
:101F200005F0AEF902461B4B9A4203D8FB6843F01A
:101F30000803FB601649164B5B6A23F00802FB6836
:101F400013434B6212497B681B88DB027A689288D4
:101F50001343CB620E490E4B1B6B1B0D1B057A689E
:101F60005288D20213437A68D28813430B6308491C
:101F70007B681B7A1A037B685B7A1B0113437A68C0
:101F8000927A13434B631037BD4680BD083E040070
:101F900000400E4040787D0180B588B000AF034618
:101FA000FB710B46BB7113467B71FB79052B49D83E
:101FB00001A252F823F000BF192000000720000002
:101FC000E31F0000D11F0000F51F00002F200000BC
:101FD00001237B6102233B610123FB610023BB6181
:101FE00036E004237B6108233B610323FB6102236A
:101FF000BB612DE010237B6120233B610523FB6146
:102000000423BB6124E040237B6180233B610723E1
:10201000FB610623BB611BE04FF480737B614FF4CF
:1020200000733B610923FB610823BB6110E04FF49F
:1020300080637B614FF400633B610B23FB610A23E8
:10204000BB6105E03A4841F20631FEF7E9F86CE081
:10205000BB79002B5ED00023FB73FB79022B1AD1D6
:10206000FEF7FEFB0346012B15D1324BDB6B03F46D
:102070008063002B04D12E4841F21431FEF7D0F8D2
:102080000123FB732C4B5B6A03F00303032B02D188
:102090000220FEF7F3FB284A7B69136600BF27483E
:1020A000B969FEF7D9F80346002BF8D07B79002BED
:1020B0002FD000BF2148F969FEF7CEF80346002B68
:1020C000F8D0FB79022B24D1FB7B002B21D01A4BBB
:1020D0005B6A03F00303032B03D00220002100F00E
:1020E0000DF9022000F02CF8B86002200021012236
:1020F000FFF752FF0220B96800F062F80E4A7B69D0
:10210000136600BF0D48F969FEF7A6F80346002BD9
:10211000F8D00AE0084A3B69136600BF0748B9696E
:10212000FEF79AF80346002BF8D12037BD4680BD54
:10213000083E040000300E4000400E4090400E402B
:1021400080B584B000AF0346FB71FB79013B042BE3
:1021500024D801A252F823F06D2100009D21000037
:10216000792100009121000085210000124B1B6A9B
:10217000C3F30803FB6019E00F4B1B6903F07F03F7
:10218000FB6013E00C4B9B6803F07F03FB600DE0EA
:10219000094B9B6903F07F03FB6007E0074841F2AE
:1021A0008331FEF73DF80023FB6000BFFB68184653
:1021B0001037BD4680BD00BF00400E40083E040001
:1021C00080B582B000AF03463960FB71FB79013BFB
:1021D000042B00F2848001A252F823F0F1210000C8
:1021E000DF22000031220000A52200006B22000047
:1021F0003B68B3F5007F04D33D4841F2AA31FEF7B6
:102200000FF83B68C3F308033B6000BF39481A214D
:10221000FEF722F80346002BF8D13749364B1B6AEC
:1022200023F4FF7323F001033A6813430B625CE06D
:102230003B687F2B04D92E4841F2B531FDF7F0FF02
:102240003B6803F07F033B6000BF2A481821FEF77C
:1022500003F80346002BF8D12749274B1B6923F0CD
:102260007F023B6813430B613FE03B687F2B04D93F
:102270001F4841F2C231FDF7D3FF3B6803F07F03F3
:102280003B6000BF1B481E21FDF7E6FF0346002B05
:10229000F8D11949184B9B6823F07F023B68134320
:1022A0008B6022E03B687F2B04D9114841F2CF318B
:1022B000FDF7B6FF3B6803F07F033B6000BF0D48AE
:1022C0001921FDF7C9FF0346002BF8D10A490A4B33
:1022D0009B6923F07F023B6813438B6105E0044850
:1022E00041F2F731FDF79CFF00BF0837BD4680BDC6
:1022F000083E040040410E4000400E4080B584B0CE
:1023000000AF03460A46FB711346BB71FB79022BF3
:1023100004D0154841F20F41FDF782FFFEF7A0FA05
:102320000346012B03D14FF48003FB600DE0BB7922
:10233000002B03D14FF48003FB6006E00B4BFB60E6
:10234000094841F22A41FDF76BFF00BF084BD3F863
:102350009020FB681A40FB689A42F7D10123184687
:102360001037BD4680BD00BF083E0400FF3F473A1E
:1023700000400E4080B483B000AFEFF310833B60A9
:102380003B687B6072B67B6818460C37BD465DF8CB
:10239000047B704780B483B000AF78607B68002B0B
:1023A00000D162B60C37BD465DF8047B704700BFB4
:1023B00080B487B000AFF860B9607A60FB6803F161
:1023C0000473DA00BB6813449B007B617B697A6805
:1023D0001A601C37BD465DF8047B704780B485B039
:1023E00000AF786039607B6803F10473DA003B6802
:1023F00013449B00FB60FB681B6818461437BD46FE
:102400005DF8047B704700BF80B500AF00BF044893
:102410001221FFF7E3FF0346002BF8D180BD00BF78
:1024200004300E4080B500AFFFF7EEFF034B5B6852
:1024300003F440331B0CDBB2184680BD00300E4065
:1024400080B483B000AF7860034A7B68D3620C37F6
:10245000BD465DF8047B704700300E4080B400AF8D
:10246000034B5B6A1846BD465DF8047B704700BFAE
:1024700000300E4080B483B000AF0346FB71FB799F
:10248000C3F102031A461023934018460C37BD4689
:102490005DF8047B704700BF80B584B000AF786002
:1024A0000B46FB70154BD3F8003103F4F8531B0AAD
:1024B0000133BB607B68002B07D104F0A9FE024604
:1024C000BB6803FB02F3FB6001E07B68FB600C4B25
:1024D0001B78002B09D0FB680A4A934205D8FB7889
:1024E0000220194600F010F804E0FB78002019469D
:1024F00000F00AF81037BD4680BD00BF00400E4016
:1025000024020020FF2C310190B587B000AF0346B4
:102510000A46FB711346BB711F4BD3F8003103F41D
:10252000F8531B0A01337B6104F072FE3861FFF738
:1025300079FF0346FB73FA7BFB799A4200D127E0CF
:102540003B697A6902FB03F3BB60FB79022B0CD178
:10255000BB68124A934204D9114840F23941FDF751
:102560005FFE38690221FEF767F90E4CFB791846C9
:10257000FFF780FF03462361FB79002B03D1386905
:102580000021FEF759F9BB79002B01D0FFF73CFF82
:102590001C37BD4690BD00BF00400E40002D3101EC
:1025A000783E040000300E4080B400AF012318468E
:1025B000BD465DF8047B704780B582B000AF0C4A21
:1025C0000B4BDB6E43F08073D3660A480021FFF7A4
:1025D00005FF78607B68002B03D0042000F042FDEB
:1025E00002E0002000F03EFD0837BD4680BD00BF80
:1025F00000300E404C300E4080B58AB000AF012351
:102600007B627B6A1B053B62414BDB6C03F47063AE
:102610001B0AFB613F4B1B8803F128023D4B1B88C3
:102620002833D90F0B445B1013441946FB695A1C1D
:1026300013469B001344B1FBF3F3013BBB61BB6941
:102640007B6107233B613A697B69934228BF13464C
:10265000BB61BB691B06BB61BB6923F0E063002B58
:1026600004D02D4840F2DA51FDF7DAFD3B6A23F43D
:10267000E003002B04D0284840F2DB51FDF7D0FDE9
:102680002348234BDB6C23F0EE62B9693B6A0B43B2
:102690001343C364214B1B881BB2002B35DB1F4B3C
:1026A0001B88FB81FB8903F12802FB892833D90FA2
:1026B0000B445B1013441946FB6901335A00FB6954
:1026C00001335B081344B1FBF3F3BB60BB687B6071
:1026D00007233B603A687B68934228BF1346BB6080
:1026E000BB681B01BB60BB6823F07003002B04D0E8
:1026F000094840F2F251FDF793FD0549044B1B6D6B
:1027000023F07002BB6813430B652837BD4680BDBC
:1027100000300E401C020020783E04002002002001
:1027200080B483B000AF78600B467B807B689AB240
:10273000044B1A80044A7B8813800C37BD465DF831
:10274000047B70471C0200202002002080B582B06C
:1027500000AF0346FB71FB79002B02D0012B04D0A4
:1027600007E0084B084A9A6509E0064B074A9A6554
:1027700005E0074840F21E61FDF752FD00BF083733
:10278000BD4680BD00300E4077402057372110B73E
:10279000783E040080B584B000AF0346FB710B4661
:1027A000BB7113467B71344BD3F88031FB60BB792E
:1027B000032B1FD801A252F823F000BFCD27000041
:1027C000D5270000E1270000ED270000FB68DBB201
:1027D000FB6016E0FB6803F47F431B0AFB6010E01C
:1027E000FB6803F47F031B0CFB600AE0FB681B0E15
:1027F000FB6006E0214840F26261FDF711FD002315
:1028000036E07B79002B16D1FB681B03FB60FB686D
:1028100023F47043002B06D0184840F26D61FDF799
:10282000FFFC002324E01649154BDB6E23F47042B5
:10283000FB681343CB667B79012B18D1FB681B0324
:10284000FB60FB6823F47043002B06D00B4840F27A
:102850007961FDF7E5FC00230AE00949084BD3F84C
:10286000EC3023F47042FB681343C1F8EC300123D1
:1028700018461037BD4680BDB081E00F783E040099
:1028800000300E4080B588B000AFF860B9601146E6
:102890001A460B46FB711346BB710023FB610023F4
:1028A000BB61BB791A02FB7913437B617B6940F200
:1028B000011293422BD0B3F5817F07D2012B19D09F
:1028C000012B4BD3B3F5807F55D07BE040F2012242
:1028D000934229D040F20122934203D8B3F5007FFE
:1028E00056D06FE0B3F5407F5FD040F201329342A3
:1028F00027D067E03B4BD3F87431FB61FB6903F4ED
:102900007F431B0ABB61FB69DBB2FB6160E0354BB7
:10291000D3F87431FB61FB691B0EBB61FB6903F4E7
:102920007F031B0CFB6153E02E4BD3F87831FB6126
:10293000FB6903F47F431B0ABB61FB69DBB2FB61EC
:1029400046E0284BD3F87831FB61FB691B0EBB6175
:10295000FB6903F47F031B0CFB6139E0214BD3F8C7
:102960006C31FB61FB6903F47F431B0ABB61FB69AC
:10297000DBB2FB612CE01B4BD3F86C31FB61FB69D4
:102980001B0EBB61FB6903F47F031B0CFB611FE0A3
:10299000144BD3F87031FB61FB6903F47F431B0ACE
:1029A000BB61FB69DBB2FB6112E00E4BD3F8703107
:1029B000FB61FB691B0EBB61FB6903F47F031B0C0E
:1029C000FB6105E0084840F2DE61FDF729FC00BF2D
:1029D000FB68FA691A60BB68BA691A602037BD469D
:1029E00080BD00BFB081E00F783E040080B584B0A8
:1029F00000AF0346FB7100BF364B9B6F03F0010332
:102A0000002BF9D1334B1B6C03F00303FB60FB6815
:102A1000002B04D030480D210122FFF7C9FCFB68D0
:102A2000DBB2FA799A4209D1FB79002B05D12A4809
:102A30000D210022FFF7BCFC48E047E0FB68032BB8
:102A400002D0FB68002B20D1FB79022B02D0FB794E
:102A5000012B1AD14FF40020FFF7F2FC00BF1D4BF1
:102A60009B6F03F00103002BF9D11A4A194B1B6C21
:102A700023F0030343F00103136400BFFFF7EEFCF0
:102A8000034603F40023002BF8D000BF114B9B6FCB
:102A900003F00103002BF9D10E490E4B1B6C23F000
:102AA0000302FB7913430B6400BF0A4B9B6F03F0D7
:102AB0000103002BF9D1FB79002B14BF0123002364
:102AC000DBB205480D211A46FFF772FC1037BD46F0
:102AD00080BD00BF00300E4054300E4080B584B041
:102AE00000AF7860FFF760FD7B681B89C82B04D9B5
:102AF000604840F27671FDF793FB7B689A887B68AB
:102B00001B899A4204D95B4840F27771FDF788FB34
:102B10007B689B891BB2C82B04DD56484FF4EF61DC
:102B2000FDF77EFB7B685B78012B09D17B689B8876
:102B3000C82B12D94F4840F27C71FDF771FB0CE0B5
:102B40007B685B78022B08D17B689B880A2B04D9B1
:102B5000484840F28171FDF763FB7B68DB8842F2F5
:102B60001072934204D9434840F28671FDF758FB36
:102B70007B68DB884A2B02D80023FB6015E07B686A
:102B8000DB88B3F5FA7F03D24FF08053FB600CE093
:102B90007B68DB8840F6C312934203D84FF00053A2
:102BA000FB6002E04FF04053FB603348324BDB6C7C
:102BB00023F0405323F001037A68928912B2002A6D
:102BC00001DB012100E00021FA680A431343C364DA
:102BD000294A294BD3F8EC3043F44073C2F8EC3067
:102BE000FFF7EAFC7B681B891A467B689B891BB24E
:102BF00010461946FFF794FD7B689A881F4B1A8090
:102C00007B689B88184600F0B9F97B689B7B184667
:102C1000FFF79CFD7B685B8818460121012200F0CC
:102C200031F8034683F00103DBB2002B06D01148D4
:102C300040F2BD71FDF7F4FA002317E00E4A0E4B87
:102C4000DB6B43F48063D3637B685B781846FFF7E4
:102C5000CDFE7B689B7A002B14BF01230023DBB2DF
:102C6000074805211A46FFF7A3FB01231846103732
:102C7000BD4680BD783E040000300E401E0200209C
:102C80003C300E4090B595B000AF78600B46FB70BD
:102C90001346BB700023FB6400237B6407F124030D
:102CA00000221A60043300221A60043300221A60E2
:102CB000043307F1180300221A60043300221A605B
:102CC000043300221A60043307F10C0300221A6057
:102CD000043300221A60043300221A6004330023F4
:102CE0003B810023BB727B68B3F5E16F06D37B6841
:102CF00040F6B832934201D8012300E0002387F860
:102D0000433097F8433003F0010387F8433097F8D6
:102D1000433083F00103DBB2002B06D0944840F629
:102D20000101FDF77DFA00231EE17B68B3F5E16F39
:102D30008CBF0123002387F8423097F84230002BE4
:102D40000AD04FF4E163FB6440F6B8337B647A6CDD
:102D5000FB6CD31ABB6409E04FF49663FB644FF439
:102D6000E1637B647A6CFB6CD31ABB6497F84230E6
:102D7000002B0CD07F4BD3F868313B623B6A1B0EB3
:102D80007B613B6A03F47F031B0C3B620BE0794BD6
:102D9000D3F868313B623B6A03F47F431B0A7B61D3
:102DA0003B6ADBB23B62744BDB6C03F040531B0F9E
:102DB000DBB23B723B7A07F1180007F10C0197F880
:102DC0004220FFF75FFD6C4BD3F8EC3003F4407307
:102DD0001B0ADBB27B727C7A07F11803191D07F11D
:102DE0000C031A1D97F84230084611461A4623462E
:102DF000FFF748FD7A68FB6CD31A79693A6A8A1A38
:102E000002FB03F2BB6CB2FBF3F3FB62FA6A3B6AB0
:102E10001344FB627A68FB6CD31AF968BA698A1AA0
:102E200002FB03F2BB6CB2FBF3F37B627A6ABB6911
:102E300013447B627A68FB6CD31A3969FA698A1A7F
:102E400002FB03F2BB6CB2FBF3F3BB62BA6AFB6931
:102E50001344BB62FA6A7B699A4213D8FA6A3B6AE6
:102E60009A420FD3BA6A3B699A420BD8BA6AFB6995
:102E70009A4207D37A6AFB689A4203D87A6ABB6996
:102E80009A4206D23A4840F64D01FDF7C9F90023AF
:102E90006AE0BB78002B12D03749374BDB6D23F447
:102EA000FE4323F00203FA6A12021A4397F84230F3
:102EB000002B01D0022300E000231343CB65FB78F5
:102EC000002B50D03B7A97F842201046194600223A
:102ED000FFF760FC034683F00103DBB2002B06D052
:102EE000234840F65C01FDF79BF900233CE07B7A28
:102EF00097F84220104619460122FFF74BFC034683
:102F000083F00103DBB2002B06D0194840F66401C0
:102F1000FDF786F9002327E07B6AFB63BB6ABB638E
:102F2000BA6BFB6B934238BF13467B627B6A7B6351
:102F3000E7233B633A6B7B6B934228BF13467B626C
:102F40000D490D4B5B6E23F4FF7323F001037A6A86
:102F500052001A4397F84230002B01D0012300E0C1
:102F6000002313434B66012318465437BD4690BDDA
:102F7000783E0400B081E00F00300E4080B584B090
:102F800000AF78600023FB60344B1B6F03F0070336
:102F9000BB60324BDB6C03F00103002B15D0BB6828
:102FA000012B12D97B68132B02D80423FB600BE0A2
:102FB0007B68132B05D97B68272B02D80823FB607D
:102FC00002E01023FB6033E032E0244BDB6C03F0C3
:102FD0000103002B15D1BB68012B12D87B68092B8C
:102FE00002D80423FB600BE07B68092B05D97B68C2
:102FF000132B02D80823FB6002E01023FB6017E0CC
:1030000016E0164BDB6C03F00103002B0BD0BB6802
:10301000012B08D87B68272B02D80823FB6007E028
:103020001023FB6004E00E4840F69F01FDF7F8F81E
:10303000FB68013BFB60FB681A02FB681B03134340
:10304000FB600649054BDB6C23F47F42FB681343AE
:10305000CB64FFF7D1FA1037BD4680BD00300E407B
:10306000783E040080B584B000AF0346FB71114880
:103070000021FFF7B3F9F860FB68002B02D1FB7960
:10308000012B07D9FB68002B04D10B4840F6BD018A
:10309000FDF7C6F80949094B1B6F23F00702FB79BE
:1030A00013430B67064B1B881846FFF767FF103763
:1030B000BD4680BD4C300E40783E040000300E40CE
:1030C0001E02002080B485B000AF786039607B6854
:1030D00003F1C063FB60FB683A681A601437BD46B1
:1030E0005DF8047B704700BF80B485B000AF7860A6
:1030F00039607B6803F18063FB60FB683A681A60A3
:103100001437BD465DF8047B704700BF80B582B0C0
:1031100000AF03463960FB71FB79002B31D0FB799E
:10312000012B2BD0FB79022B25D0FB79032B1FD051
:10313000FB79042B19D0FB79052B13D0FB79062BD7
:103140000DD0FB79072B07D0FB79082B02D14FF666
:10315000FF7318E0002316E04FF6FF7313E04FF6FD
:10316000FF7310E04FF6FF730DE04FF6FF730AE0B8
:103170004FF6FF7307E04FF6FF7304E04FF6FF735F
:1031800001E04FF6FF733A68134103F00103002B8F
:1031900004D10D484FF45D71FDF742F8FA791346FA
:1031A0005B0013441B010C3303F1804303F5082338
:1031B0003A68012101FA02F218461146FFF794FF1E
:1031C0000837BD4680BD00BFB03E040080B582B068
:1031D00000AF03463960FB71FB79002B31D0FB79DE
:1031E000012B2BD0FB79022B25D0FB79032B1FD091
:1031F000FB79042B19D0FB79052B13D0FB79062B17
:103200000DD0FB79072B07D0FB79082B02D14FF6A5
:10321000FF7318E0002316E04FF6FF7313E04FF63C
:10322000FF7310E04FF6FF730DE04FF6FF730AE0F7
:103230004FF6FF7307E04FF6FF7304E04FF6FF739E
:1032400001E04FF6FF733A68134103F00103002BCE
:1032500004D10D4840F2A131FCF7E2FFFA791346A0
:103260005B0013441B010C3303F1804303F5082377
:103270003A68012101FA02F218461146FFF722FFCF
:103280000837BD4680BD00BFB03E040090B585B094
:1032900000AFB9607B600346FB731346BB73FB7BD7
:1032A000002B31D0FB7B012B2BD0FB7B022B25D0BD
:1032B000FB7B032B1FD0FB7B042B19D0FB7B052B47
:1032C00013D0FB7B062B0DD0FB7B072B07D0FB7BA2
:1032D000082B02D14FF6FF7318E0002316E04FF6DB
:1032E000FF7313E04FF6FF7310E04FF6FF730DE02E
:1032F0004FF6FF730AE04FF6FF7307E04FF6FF73D8
:1033000004E04FF6FF7301E04FF6FF73BA68134114
:1033100003F00103002B04D137484FF48571FCF70B
:103320007FFFBB7B002B0DD07B68002B05D0FB7B88
:103330001846B968FFF74AFF04E0FB7B1846B968F6
:10334000FFF7E4FEBB68072B1CD82C4CFA7B2B48FC
:10335000F97B0B465B000B441B0103445968BB68B7
:103360009B0018460F238340DB430B40B97BB868B2
:1033700080008140194313465B0013441B01234422
:10338000596024E01D4CFA7B1C48F97B0B465B001E
:103390000B441B01034408331968BB6803F18043E5
:1033A000083B9B0018460F238340DB431940B87B42
:1033B000BB6803F18043083B9B0000FA03F3194309
:1033C00013465B0013441B01234408331960BB7B85
:1033D000002B0DD17B68002B05D0FB7B1846B9680C
:1033E000FFF7F4FE04E0FB7B1846B968FFF78EFE9A
:1033F0001437BD4690BD00BF1C3F0400008008404C
:1034000080B584B000AFF860B9607A60FB68172BB4
:1034100003D90A487721FCF703FF0949BB6803F485
:10342000FE427B6803F00703134343F08042FB68CE
:10343000143341F823201037BD4680BD543F0400AB
:1034400000600E4080B487B000AFF860B9607A6069
:10345000FB6803F10473DA00BB6813449B007B61D3
:103460007B697A681A601C37BD465DF8047B70473B
:1034700080B582B000AF786039607B68022B03DDD5
:1034800017485321FCF7CCFE3B685B791F2B03D90F
:1034900013485621FCF7C4FE12493B681B781A46B4
:1034A0003B685B789B001A433B689B789B011A43FF
:1034B0003B68DB781B011A433B681B79DB021A432C
:1034C0003B685B791B031A433B689B795B041A4397
:1034D0007B6804331B010B441A600837BD4680BD6E
:1034E0008C3F04000020064080B582B000AF034648
:1034F000FB71FB79034800211A46FFF7A3FF083749
:10350000BD4680BD0020064080B483B000AF786027
:1035100016497B681B781A467B685B789B001A43C8
:103520007B689B781B011A437B68DB785B011A433D
:103530007B681B791B021A437B685B791B031A4368
:103540007B689B799B031A437B68DB79DB031A4317
:103550007B681B7A1B041A437B685B7A5B0413430A
:103560000B600C37BD465DF8047B704700200640B9
:1035700080B586B000AFF860B9607A60FB707B6898
:10358000002B03D14348C621FCF74AFEBB68002B41
:1035900003D14148FDF706FBB860FB78202B15D01E
:1035A000202B02DC002B05D037E0402B1AD0602BFB
:1035B00027D032E0BB681A097B689A4203D23548AB
:1035C000EC21FCF72DFE10237B612CE0BB68DA08B0
:1035D0007B689A4203D22F48F121FCF721FE082391
:1035E0007B6120E0BB682D4AA2FB03239A087B681D
:1035F0009A4203D22748F621FCF712FE06237B618C
:1036000011E0BB689A087B689A4203D22148FB21EB
:10361000FCF706FE04237B6105E01E4840F2011121
:10362000FCF7FEFD32E0BB685A017B69796801FB5B
:1036300003F35B0813443B617B697A6802FB03F385
:103640003A69B2FBF3F33B613B69203B3B613B6969
:10365000DB003B613B69124A934204D90D4840F2BA
:103660001711FCF7DDFD3A690D4B13403B61FB6818
:103670001B6823F06002FB681A60FB681A68FB781D
:103680001A43FB681A60FB683A695A611837BD46ED
:1036900080BD00BFC43F040040410500ABAAAAAAF8
:1036A000F8FF7F0080B586B000AFF860B9607A603F
:1036B0007B68002B04D113484FF4F971FCF7B0FD7F
:1036C000BB68002B03D11048FDF76CFAB860BB68EB
:1036D0005A1E7B685B00B2FBF3F37B617B691B02C4
:1036E0007B617A69094B1340002B04D0054840F2F6
:1036F0000321FCF795FDFB687A695A611837BD46CE
:1037000080BD00BFC43F040040410500070080FFAA
:1037100080B584B000AF78600B46FB707B681A4AB6
:10372000934220D07B68194A93421CD07B68184A88
:10373000934218D07B68174A934214D07B68164A8C
:10374000934210D07B68154A93420CD07B68144A90
:10375000934208D07B68134A934204D0124840F247
:103760001E21FCF75DFDFB78DB43FB60FB6803F08B
:103770000503FB60FB685A007B68DA60FA787B68B7
:10378000DA601037BD4680BD0000014000040140F2
:1037900000080140000C01400010014000140140ED
:1037A0000040014000440140C43F040080B582B0A5
:1037B00000AF786039607B68374A934220D07B68DD
:1037C000364A93421CD07B68354A934218D07B68B6
:1037D000344A934214D07B68334A934210D07B68BA
:1037E000324A93420CD07B68314A934208D07B68BE
:1037F000304A934204D0304840F24521FCF710FD96
:10380000786800F0F1F83B689B7C002B05D07B6862
:103810001B6843F080427B681A603B68DB7C002BAE
:1038200007D03B681B7D63F07F03DBB21A467B68E1
:103830009A653B685B7B1A463B681B8A13433A6870
:10384000D2891A437B685A603B6859683B689A681A
:103850003B681B7B7868FFF78BFE3B689B7D1B07F3
:1038600003F0E0423B68DB7D1B0503F4E0031A43F1
:103870007B681A663B685B7D002B05D07B681B6804
:1038800043F480327B681A603B681B781A467B6879
:10389000DA600837BD4680BD0000014000040140E9
:1038A00000080140000C01400010014000140140DC
:1038B0000040014000440140C43F040080B582B094
:1038C00000AF786039607B68404A934218D07B68CB
:1038D0003F4A934214D07B683E4A934210D07B68A3
:1038E0003D4A93420CD07B683C4A934208D07B68A7
:1038F0003B4A934204D03B4840F28621FCF790FCBF
:10390000786800F071F87B681A683B681B8A43F09E
:1039100001039BB219463B689B7B002B02D04FF4FE
:10392000806300E000230B431A437B681A607B68C6
:103930001A683B681B7D002B02D04FF0005300E05B
:1039400000231A437B681A603B689B7C002B07D0DE
:103950003B68DB7C63F07F03DBB21A467B689A65C9
:103960003B681B7B43F480527B685A603B685A6813
:103970003B689B68786811461A46FFF793FE3B68E0
:103980005B7B002B02D07B681022DA603B689B7D5A
:103990001B0703F0E0423B68DB7D1B0503F4E003FB
:1039A0001A437B681A663B685B7D002B05D07B68F9
:1039B0001B6843F480327B681A603B681B781A46A8
:1039C0007B68DA600837BD4680BD00BF000001405B
:1039D0000004014000080140000C014000100140BB
:1039E00000140140C43F040080B582B000AF78608D
:1039F0007B68324A934220D07B68314A93421CD084
:103A00007B68304A934218D07B682F4A934214D087
:103A10007B682E4A934210D07B682D4A93420CD08B
:103A20007B682C4A934208D07B682B4A934204D08F
:103A30002A4840F25631FCF7F3FB7B6840F6AA6255
:103A4000DA607B6800221A607B6841F205025A60E6
:103A50007B6800229A607B6800225A617B680022A2
:103A6000DA647B681E4A9A647B6800225A677B6826
:103A700000229A677B680022DA677B680F4A9342CC
:103A800003D07B680F4A934202D17B6800221A65FB
:103A90007B6800229A657B68094A934207D07B685D
:103AA000094A934203D07B68084A934202D17B685B
:103AB0000022DA650837BD4680BD00BF0000014026
:103AC0000004014000080140000C014000100140CA
:103AD000001401400040014000440140C43F040084
:103AE000F9FF010080B483B000AF786000BF7B684D
:103AF0001B6903F08003002BF9D07B68DB69DBB224
:103B000018460C37BD465DF8047B704780B483B01F
:103B100000AF78600B46FB7000BF7B681B6903F049
:103B20004003002BF9D0FA787B685A630C37BD4606
:103B30005DF8047B704700BF80B483B000AF78604D
:103B40000B467B8000BF7B681B6903F04003002BA2
:103B5000F9D07A887B68DA630C37BD465DF8047B60
:103B6000704700BF80B483B000AF786039607B6875
:103B70003A685A610C37BD465DF8047B704700BF58
:103B800080B483B000AF78607B68DB6818460C3780
:103B9000BD465DF8047B704780B582B000AF094830
:103BA000FFF7EEFF78607B6803F01003002B06D070
:103BB00004481021FFF7D6FF034B01221A70083783
:103BC000BD4680BD008001402502002080B483B046
:103BD00000AF7860044A7B68C2F824340C37BD46D5
:103BE0005DF8047B704700BF0080084080B483B05C
:103BF00000AF074BD3F828347B60054BD3F81C2467
:103C00007B68134018460C37BD465DF8047B70474F
:103C10000080084080B485B000AF78607B68FB60AE
:103C2000FB6893FAA3F3BB60BB68B3FA83F318464F
:103C30001437BD465DF8047B704700BF80B584B083
:103C400000AF786019E07868FFF7E4FFF860FB6880
:103C5000012202FA03F3DB431A467B6813407B60C0
:103C6000094AFB6852F82330BB60BB68002B04D0C4
:103C7000FB68DAB2BB68104698477B68002BE2D13C
:103C80001037BD4680BD00BF2802002080B582B03D
:103C900000AFFFF7ABFF024645F2555313407B6080
:103CA0007868FFF793FF7868FFF7C8FF0837BD46CD
:103CB00080BD00BF80B582B000AFFFF797FF02461E
:103CC0004AF6AA2313407B607868FFF77FFF786885
:103CD000FFF7B4FF0837BD4680BD00BF80B586B092
:103CE00000AF324B1B6EFB60304BDB6EFA6813404B
:103CF000FB60FB68002B00DAFEE700237B610123F9
:103D00003B614CE0FA683B691340002B41D0274AE5
:103D10003B6993667B691B01254A1344BB60BB6802
:103D20001B68002B35D0BB689B685A1CBB689A6027
:103D3000BB681B68BA689168BA6852687869984726
:103D40000346002B14BF01230023DBB283F00103E1
:103D5000DBB2FB71FB7903F00103FB71BB685B7B9A
:103D6000012B16D1FB79002B13D0124A7B695B0122
:103D7000134403F1080213796FF3410313710D4AE1
:103D80007B695B01134403F1180213796FF341035C
:103D900013717B6901337B613B695B003B617B692C
:103DA000172BAFD91837BD4680BD00BF002000409B
:103DB00068020020E803002080B582B000AF114BFC
:103DC0007B60114B1B7883F00103DBB2002B13D017
:103DD0000D4B01221A700BE07B681B689847386016
:103DE0003B68002B01D03B6807E07B6804337B60B5
:103DF0007B681B68002BEFD1002318460837BD46AF
:103E000080BD00BF080000201407002080B584B0EA
:103E100000AF78603960114B1B7883F00103DBB28F
:103E2000002B02D00E4BFB6012E07B68002B0DDCF8
:103E30007B682C2202FB03F30A4A134438681946B4
:103E40002C223EF023FF0023FB6001E0064BFB60C9
:103E5000FB6818461037BD4680BD00BF1407002020
:103E600005001180E80600200200118080B584B0B2
:103E700000AF7860134B1B7883F00103DBB2002B9B
:103E800002D0114BFB6017E0104B1B68002B11DCBC
:103E90000E4B1B685A1C0D490A602C2202FB03F3CF
:103EA0000B4A1344184679682C223EF0EFFE00239B
:103EB000FB6001E0074BFB60FB6818461037BD460E
:103EC00080BD00BF140700200500118018070020E6
:103ED000E80600200100118080B58CB000AF00F032
:103EE000E5FA00F075FA00F0FBFA02200F2100223B
:103EF000002300F005FB00200E210022002300F02B
:103F0000FFFA02200E210022002300F0F9FA00201F
:103F100009210022002300F0F3FA00200B210022E7
:103F2000002300F0EDFA00200B21012200F02EFB0F
:103F3000F862FB6A002B01D0FB6A2AE0174B3B605A
:103F400002233B7400237B7480237B608023FB600F
:103F50007A6813465B001344BB60114B7B61114BC5
:103F6000BB61114BFB61114B3B62114B7B62114BEF
:103F7000BB623B461846FFF779FFF862FB6A002BED
:103F800006D13B461846012100F026F800F03EF825
:103F9000FB6A18463037BD4680BD00BFFC3F0400B9
:103FA000D93F000049400000BD4000001941000019
:103FB000D9400000B93F000080B584B000AF786000
:103FC0000023FB6000F072FA00F002FAFB6818466A
:103FD0001037BD4680BD00BF80B582B000AF7860AD
:103FE0000B46FB70FB78002B07D00020092100F066
:103FF000A9FAA02000F066FA03E00020092100F0F1
:10400000B3FA002318460837BD4680BD80B582B09C
:1040100000AF02200E2100F095FA032000F052FAC2
:104020000423FB80BB1D1846022100F005FA012085
:1040300000F048FA02200E2100F096FA00231846FC
:104040000837BD4680BD00BF80B487B000AFF860C0
:10405000B9607A603B60BA6813465B001344DB08C2
:104060007A6802FB03F37B61BB68802B01D00F4BA6
:1040700016E00F4B1A687B6913440E4A934204D929
:104080003B6800221A600C4B0AE0094B1A683B6837
:104090001A60074B1A687B691344054A13600023B2
:1040A00018461C37BD465DF8047B7047020011803E
:1040B000100000201C1F00200100118080B483B07C
:1040C00000AF78603960034B18460C37BD465DF889
:1040D000047B70470400118080B586B000AFF860A3
:1040E000B9607A603B60BB687B6100233B610AE09A
:1040F0007869002130223EF0D4FD7B6930337B614A
:104100003B6901333B613A693B689A42F0D3002333
:1041100018461837BD4680BD80B588B000AFF8603E
:10412000B9607A603B60BB68BB61BB6A0133BB624C
:1041300002200E2100F006FA032000F0C3F9BB6A4A
:104140009BB21B029BB243F001039BB2FB8207F1BF
:1041500016031846022100F06FF90023FB6126E0E8
:10416000B869302100F068F9BB693033BB61FB6A84
:104170005A1EFB699A4203D14FF6FF73FB820DE092
:10418000BB6A9AB2FB699BB213449BB201339BB2E8
:104190001B029BB243F0FF039BB2FB8207F11603A5
:1041A0001846022100F048F9FB690133FB61FA6906
:1041B000FB6A9A42D4D3012000F084F902200E2138
:1041C00000F0D2F9002318462037BD4680BD00BF5D
:1041D00080B485B000AF786039607B6803F1C0635C
:1041E000FB60FB683A681A601437BD465DF8047BD3
:1041F000704700BF80B485B000AF786039607B68DD
:1042000003F18063FB60FB683A681A601437BD46AF
:104210005DF8047B704700BF80B582B000AF0346F5
:104220003960FB71FB79002B31D0FB79012B2BD04E
:10423000FB79022B25D0FB79032B1FD0FB79042BB4
:1042400019D0FB79052B13D0FB79062B0DD0FB7908
:10425000072B07D0FB79082B02D14FF6FF7318E02C
:10426000002316E04FF6FF7313E04FF6FF7310E0E4
:104270004FF6FF730DE04FF6FF730AE04FF6FF7342
:1042800007E04FF6FF7304E04FF6FF7301E04FF6CF
:10429000FF733A68134103F00103002B04D10D486A
:1042A0004FF45D71FBF7BCFFFA7913465B001344D2
:1042B0001B010C3303F1804303F508233A68012105
:1042C00001FA02F218461146FFF794FF0837BD467F
:1042D00080BD00BF1440040080B582B000AF03462B
:1042E0003960FB71FB79002B31D0FB79012B2BD08E
:1042F000FB79022B25D0FB79032B1FD0FB79042BF4
:1043000019D0FB79052B13D0FB79062B0DD0FB7947
:10431000072B07D0FB79082B02D14FF6FF7318E06B
:10432000002316E04FF6FF7313E04FF6FF7310E023
:104330004FF6FF730DE04FF6FF730AE04FF6FF7381
:1043400007E04FF6FF7304E04FF6FF7301E04FF60E
:10435000FF733A68134103F00103002B04D10D48A9
:1043600040F2A131FBF75CFFFA7913465B0013447E
:104370001B010C3303F1804303F508233A68012144
:1043800001FA02F218461146FFF722FF0837BD4630
:1043900080BD00BF1440040080B582B000AF7860DB
:1043A00039607B68022B04DD07484FF4A971FBF7E5
:1043B00037FF064A7B6804331B0113443A685A608E
:1043C0000837BD4680BD00BF7C4004000020064089
:1043D000B0B588B000AF0023FB61134B3C1D1D46F8
:1043E0000FCD0FC495E8030084E803000F480121B6
:1043F000FCF72AFB0E4BFB603B1D0E481946FFF7EE
:104400005DFA0C4B0A225A670A4A0A4B9B6F23F04B
:10441000072343F0407343F4C0639367FB69184676
:104420002037BD46B0BD00BFE44004000082040058
:10443000E06735000004014080B584B000AF7860CB
:1044400039600023FB6020E03B68012B04D07B68CF
:1044500003F00103002B0CD07B681B78124819462F
:10446000FFF754FB3B68013B3B607B6801337B609B
:104470000BE07B681B880C481946FFF75DFB3B6827
:10448000023B3B607B6802337B603B68002BDBD1E7
:1044900000BF054B1B6903F02003002BF9D0FB681C
:1044A00018461037BD4680BD0004014080B582B07B
:1044B00000AF00237B6000F06DFB7B681846083777
:1044C000BD4680BD80B584B000AF78600023FB603E
:1044D000786800F027FCFB6818461037BD4680BDA1
:1044E00080B582B000AF00237B6004480121FCF757
:1044F000ABFA7B6818460837BD4680BD00550800FA
:1045000080B586B000AFF860B9603B601346FB71C0
:1045100000237B61FB79002B0DD10423FB7400BFCA
:10452000FB68DAB2FB7C1046B9681A463B68FEF7B6
:10453000ADFE7B6900E0024B18461837BD4680BDD2
:104540000100138080B584B000AF7860396000232B
:10455000FB607B68DBB218463968FFF7BDFEFB687D
:1045600018461037BD4680BD80B584B000AF786076
:1045700039600023FB607B68DBB218463968FFF7BF
:104580004BFEFB6818461037BD4680BD80B588B02D
:1045900000AFF860B9607A600023FB614FF40063FC
:1045A000BB6102237B6112480121FCF74DFA0B200D
:1045B000B9697A69FEF724FF0E4A0E4B9B6923F016
:1045C000407353610B4A0B4B9B6843F40063936049
:1045D000FB68DBB21846B96804220023FEF756FEDA
:1045E000786800F01BF8FB6918462037BD4680BD8F
:1045F0000065080000600E4080B582B000AF7860B2
:1046000005480121FCF720FA78680321FDF750F9ED
:104610000837BD4680BD00BF0005080080B588B0E2
:1046200000AF7860204A07F114031068516803C393
:1046300012891A8000233B761C48FFF7DDFF1C48D7
:104640000121FCF701FA00233B7500237B75012350
:10465000FB7507F114031846FEF756FF154A07F1DC
:104660000C03106818609188927999809A710123DF
:104670007B7307F10C0301201946FEF7F9FE0C4885
:10468000FCF790FA02467B68B2FBF3F3013B012092
:104690001946FFF781FE084B00229A600120FEF7C1
:1046A00023FF2037BD4680BDFC40040005002000EC
:1046B00080091200084104000020064080B483B045
:1046C00000AF7860002318460C37BD465DF8047BC8
:1046D000704700BF80B483B000AF7860FEE700BFD2
:1046E00080B483B000AF786039603B684FF400520B
:1046F0005A60002318460C37BD465DF8047B7047AE
:1047000080B483B000AF7860012318460C37BD46F3
:104710005DF8047B704700BF80B485B000AFF860DF
:10472000B9607A60002318461437BD465DF8047BF3
:10473000704700BF80B586B000AFF860B9607A609E
:1047400000237B6111E000F08DF938613B69B3F122
:10475000FF3F09D0BB685A1CBA603A69D2B21A70DE
:104760007B6901337B6100E004E07B685A1E7A605C
:10477000002BE8D17B69002B02DC4FF0FF3300E017
:104780007B6918461837BD4680BD00BF90B585B01F
:1047900000AF7860184B1B68002B02D1164B174AEC
:1047A0001A60154B1B68FB60134B1A687B68134437
:1047B000EFF3088214462246934212D9104B1B682D
:1047C0009B6818463EF046F904460E483EF0F5FB5D
:1047D000034620460B491A4600F016F801203EF029
:1047E00025F9054B1A687B681344034A1360FB687C
:1047F00018461437BD4690BD1C1F00209857022054
:104800009C0100201041040080B586B000AFF86024
:10481000B9607A6000237B6109E0BB685A1CBA600A
:104820001B78184600F05CF97B6901337B617A697B
:104830007B689A42F1DB7B6818461837BD4680BD1D
:1048400080B483B000AF0346FB71084997F9073085
:104850005B09FA7902F01F02012000FA02F241F826
:1048600023200C37BD465DF8047B704700E100E073
:1048700080B483B000AF0346FB71094997F9073054
:104880005B09FA7902F01F02012000FA02F260339C
:1048900041F823200C37BD465DF8047B704700BF0C
:1048A00000E100E080B483B000AF786039607B68DD
:1048B0003A689A640C37BD465DF8047B704700BFC8
:1048C00080B483B000AF786039607B68DA6C3B6895
:1048D0001A437B68DA640C37BD465DF8047B704789
:1048E00098B500AF164B1B6903F08003002B26D050
:1048F000144B1C681248FFF7F5F803461A46124B92
:104900001A55104B1B6801330E4A13600F4B1B687E
:1049100001330E4A13600B4B1B68082B02D1094B65
:1049200000221A60094B1B68082B08DD054B00228A
:104930001A60064B00221A60054B00221A6098BDCF
:1049400000100140241F00202C1F0020281F0020E1
:10495000201F002080B483B000AF78607B68002BFC
:1049600003D0064B01221A7002E0044B00221A7099
:104970000C37BD465DF8047B704700BF341F002034
:10498000B0B588B000AF30480121FCF75DF82F4882
:104990000121FCF759F80720042104220123FEF726
:1049A00075FC0720052101220023FEF76FFC284B30
:1049B000FB61284B3C1D1D460FCD0FC495E803003D
:1049C00084E803000420012104220123FEF75EFC99
:1049D00021480121FCF738F800233B713B1DF869A1
:1049E0001946FEF7E3FEFB6903225A67FB699B6FDA
:1049F00023F4E06323F0070343F4806343F00403EC
:104A0000FA69936712480421FFF74CFF2720FFF74C
:104A10002FFF0F480421FFF753FF2720FFF710FF58
:104A2000F8690521FEF774FE0C4B1B689B6818465D
:104A30000021022200233EF0BBF9094B01221A702B
:104A40002037BD46B0BD00BF4041050000550800FD
:104A5000001001402C41040000B204009C01002021
:104A6000351F002080B582B000AF4FF0FF337B6070
:104A7000174B1B7883F00103DBB2002B01D0FFF74B
:104A80007FFFFDF777FC3860124B1B68002B16DDAB
:104A9000114B1B68114AD35CDBB27B600E4B1B6869
:104AA00001330D4A13600C4B1B68082B02D10A4BD3
:104AB00000221A60074B1B68013B064A13603868E6
:104AC000FDF768FC7B6818460837BD4680BD00BF0F
:104AD000351F0020281F0020201F00202C1F002031
:104AE00080B582B000AF0346FB71144B1B7883F096
:104AF0000103DBB2002B01D0FFF742FF104B1B7804
:104B0000002B06D0FB790A2B03D10E480D21FEF7AE
:104B1000FDFFFB790B481946FEF7F8FF084B1B78A1
:104B2000002B06D0FB790D2B03D106480A21FEF796
:104B3000EDFFFB7918460837BD4680BD351F0020C4
:104B4000341F00200010014080B483B000AF034642
:104B5000FB71094997F907305B09FA7902F01F02E6
:104B6000012000FA02F2603341F823200C37BD46E1
:104B70005DF8047B704700BF00E100E080B400AF47
:104B8000034B9B681846BD465DF8047B704700BF29
:104B90000020064080B58AB000AF002387F8273098
:104BA000002387F82630002387F82530002387F874
:104BB0002430002387F82330544A3B46106851685C
:104BC00003C312891A800023FB610023BB61504B91
:104BD000D3F8B03003F00103002B06D14D4801217A
:104BE000FBF732FF012387F826304B48FCF7FAFC2D
:104BF0000346FB75FB7D032B02D0012387F824308D
:104C0000434BD3F8903003F04003002B02D1012333
:104C100087F8233040480321FCF74AFE3F48FBF762
:104C2000F7FE38613A4BD3F8F03003F00103002B64
:104C300006D13A480121FBF707FF012387F8253009
:104C4000FDF798FBF860364B1B6803F00103002B5F
:104C500015D0334B1B68FB61314B5B6ABB61304B3A
:104C600000221A602E4B00225A622D4B40F2FF7236
:104C70001A621F20FFF768FF012387F827300023FF
:104C8000BB700023FB7008233B713B461846FEF7C0
:104C90003BFC00F063F8F868FDF77CFB97F82730E1
:104CA000002B0AD01D483969FBF7C0FE1C4AFB697E
:104CB00013601B4ABB69536202E00020FEF714FC3C
:104CC00097F82530002B03D014480021FBF7BCFED9
:104CD00097F82430002B04D0FB7D0F481946FCF7D1
:104CE000E7FD97F82330002B04D00120002100229B
:104CF000FDF752F997F82630002B03D00548002124
:104D0000FBF7A2FE2837BD4680BD00BF444104002A
:104D100000400E4000050800050020008009120038
:104D20000020064080B483B000AF78607B680A49F9
:104D3000002B0CD0013B88221202003253430A6838
:104D4000D80AD20A5043800901D00138FDD80C3767
:104D5000BD465DF8047B70471400002080B584B028
:104D600000AF0823BB60324B4FF480521A601BE047
:104D700000F060F8786000BF00F05CF802467B68E5
:104D80009A42F9D000F056F87860294B1B68184613
:104D900000F058F800F04EF802467B68D31A7B60AA
:104DA0007B68002B00D006E0214B1B685B00204A8B
:104DB0001360002BDCD11E4B1B685B081C4A136080
:104DC0001B4B1B68FB6024E0194B1A68FB681343FC
:104DD000174A136000F02EF8786000BF00F02AF840
:104DE00002467B689A42F9D000F024F87860104BB4
:104DF0001B68184600F026F800F01CF802467B6895
:104E00009A4206D0FB68DA43094B1B681340084AF4
:104E10001360BB685A1EBA60002B05D0FB685B08A4
:104E2000FB60FB68002BCFD11037BD4680BD00BFB3
:104E30001400002080B500AFFFF7A0FE034618461F
:104E400080BD00BF80B483B000AF78607B68013B59
:104E5000FDD80C37BD465DF8047B7047B0B582B015
:104E600000AF28480121FBF7EFFD27480121FBF7A0
:104E7000EBFD00237B603CE000233B602AE02348FD
:104E80003B687A68D9001346DB009B1A9B000B44F1
:104E900003441D791D483B687A68D9001346DB003E
:104EA0009B1A9B000B4403449C6818497A6813467C
:104EB000DB009B1A9B000B441B78002B01D00023C6
:104EC00000E00123284621460422FEF7DFF93B6873
:104ED00001333B600D497A681346DB009B1A9B0047
:104EE0000B445B781A463B689A42C8DC7B68013306
:104EF0007B607B68012BBFDD002318460837BD4669
:104F0000B0BD00BF404105000055080050410400FD
:104F100080B485B000AFF860B9607A603B60FB6830
:104F20001B0CDAB2BB681A70FB681B0ADAB27B682A
:104F30001A70FB68DAB23B681A701437BD465DF828
:104F4000047B704780B588B000AF78607B68002B29
:104F500001D1052331E07B6800225A607B686FF045
:104F60007F429A6007F11803184600F041FCF8618F
:104F7000FB69002B01D0FB691FE0BA697B681A60EE
:104F80000023BB600023FB60BB691B88013B3B61C6
:104F9000BB695B88013B7B6107F1080378681946B0
:104FA00000F012F8F861FB69002B01D0FB6904E006
:104FB0007868044900F096FBFB6918462037BD4627
:104FC00080BD00BFA844040090B587B000AF7860F2
:104FD00039607B68002B02D03B68002B01D1052390
:104FE0003FE03B681A683B689B689A4205DA3B6879
:104FF0005A683B68DB689A4201DB042331E03B6876
:105000001B68002B13DB3B685B68002B0FDB3B68E6
:105010009A687B681B681B88013B9A4207DC3B68E7
:10502000DA687B681B685B88013B9A4201DD0323D9
:1050300017E03B681B68BB603B685B68FB603B68D4
:105040009B683B613B68DB687B617B6803F10C0418
:1050500007F108030FCB84E80F00786800F056F8DA
:10506000034618461C37BD4690BD00BFB0B588B09A
:1050700002AF78607B68002B01D105232AE07B68B2
:10508000586807F10B0107F10A0207F1090300F064
:1050900069F8786800F022F878617B69002B01D00C
:1050A0007B6917E07B681B681B893B617B681B6819
:1050B0005B89FB60FD7ABC7A7A7A3B69F96801FB0F
:1050C00003F300920193002000212A46234600F0BA
:1050D0000BFE034618461837BD46B0BD80B582B0FA
:1050E00000AF78607B68002B01D105230AE07B6864
:1050F0001B681A887B681B685B880020002100F011
:1051000093FB034618460837BD4680BD90B583B073
:1051100000AF78607B68002B01D105231DE07B6820
:10512000DB6898B27B681B6999B27B685B699AB24D
:105130007B68DB689BB2D31A9BB201339CB27B685D
:105140009B699AB27B681B699BB2D31A9BB20133ED
:105150009BB2224600F068FB034618460C37BD465A
:1051600090BD00BF80B584B000AFF860B9607A60D0
:105170003B60F868B9687A683B68FFF7C9FE10378A
:10518000BD4680BD90B589B002AFF860B9607A6065
:10519000FB68002B01D1052326E0FB680C33184681
:1051A000B9687A6800F088F8034683F00103DBB23F
:1051B000002B01D0012317E0FB68986807F1170165
:1051C00007F1160207F11503FFF7A2FEBB6898B2BC
:1051D0007B6899B2FA7DBC7D7B7D009301230193AE
:1051E000234600F081FD034618461C37BD4690BD9E
:1051F00090B589B002AFF860B9607A603B60FB6837
:10520000002B01D1052325E0FB680C331846B96853
:105210007A6800F051F8034683F00103DBB2002BFB
:1052200001D0012316E007F1170107F1160207F17B
:1052300015033868FFF76CFEBB6898B27B6899B2BB
:10524000FA7DBC7D7B7D009301230193234600F012
:105250004BFD034618461C37BD4690BD80B586B051
:1052600000AFF860B9607A603B60BB6898B27B6859
:1052700099B23B689AB23B6A9BB200F0D5FA78616A
:105280007B69002B01D07B6912E03B683A6A02FB24
:1052900003F3002000217A6A00F00CFB78617B693F
:1052A000002B01D07B6903E0F868FFF72FFF03466E
:1052B00018461837BD4680BD80B485B000AFF86091
:1052C000B9607A60FB68002B13D0FB681A68BB6872
:1052D0009A420EDCFB689A68BB689A4209DBFB685D
:1052E0005A687B689A4204DCFB68DA687B689A42F9
:1052F00001DA002300E0012318461437BD465DF8AB
:10530000047B704780B485B000AF78607B681A6812
:105310007B689B689A4209DD7B681B68FB607B6841
:105320009A687B681A607B68FA689A607B685A683A
:105330007B68DB689A4209DD7B685B68FB607B68A1
:10534000DA687B685A607B68FA68DA601437BD46B1
:105350005DF8047B704700BFB0B58CB002AF7860D9
:1053600039603B6807F108040FCB84E80F0007F1B0
:1053700008031846FFF7C6FFBA687B68DB689A42E5
:1053800002DA7B68DB68BB603A697B685B699A42DA
:1053900002DD7B685B693B61FA687B681B699A4246
:1053A00002DA7B681B69FB607A697B689B699A42B9
:1053B00002DD7B689B697B617B68986807F11B0154
:1053C00007F11A0207F11903FFF7CCFE3A69BB682F
:1053D000D31A01337B627A69FB68D31A01333B62CB
:1053E000BB6898B2FB6899B27B6A9AB23B6A9BB27F
:1053F00000F01AFAF861FB69002B01D0FB6918E094
:10540000FD7EBC7E7B7E7A6A396A01FB02F20093E4
:105410000192002000212A46234600F065FCF86135
:10542000FB69002B01D0FB6903E07868FFF76EFE93
:10543000034618462837BD46B0BD00BF80B58CB0C6
:1054400000AFF8607A603B600B46FB7200237B6222
:10545000FB68002B01D10523D7E0FB7A1F2B02D973
:10546000FB7A7E2B01D90223CFE0FB6893F828302A
:10547000022B0ED1FB7A9BB2303BFB85FB7A3A2B99
:1054800001D10A23FB85FB7A202B06D10B23FB8558
:1054900003E0FB7A9BB2203BFB85FA8DFB681B8CFB
:1054A000013B9A4201DD0223AFE0FB68DB693B620E
:1054B000FB68DB69FB61FB68DB69BB610023BB85C3
:1054C00095E0FB6893F82230012B02D0022B06D026
:1054D0000CE0FB8D3A6A13441B787B850CE0FB8D56
:1054E0005B00FA6913441B887B8505E0FB8D9B00FC
:1054F000BA6913441B687B8500233B853CE07B8DA8
:1055000003F00103002B16D03A8D7B68D118BA8DB9
:105510003B681344F8681A46FFF734FE78617B69EC
:10552000012B01D97B6970E07B69002B1ED17B6A5E
:1055300001337B621AE097F83830002B16D03A8D91
:105540007B68D118BA8D3B681A44FB685B68F868C1
:10555000FFF74EFE78617B69012B01D97B6954E02E
:105560007B69002B02D17B6A01337B627B8D5B08F8
:105570007B853B8D01333B85FB6893F824309BB2E0
:105580003A8D9A42BBD31DE097F83830002B16D0E5
:105590003A8D7B68D118BA8D3B681A44FB685B680A
:1055A000F868FFF725FE78617B69012B01D97B69DB
:1055B0002BE07B69002B02D17B6A01337B623B8D40
:1055C00001333B853A8DFB6893F824301946FB681C
:1055D00093F827300B449A42D6DBFB6893F82330CC
:1055E0009AB2FB8D1344FB85BB8D0133BB85FB68F1
:1055F00093F825309BB2BA8D9A42FFF462AF7B6A72
:10560000002B0CBF01230023DBB218463037BD4608
:1056100080BD00BF80B58CB002AFF860B9607A6021
:105620003B6000237B62FB68002B02D0BB68002B31
:1056300001D1052352E0FB6893F82830002B01D1FB
:1056400002234BE03B68FB613B6BBB6100233B6289
:105650003AE0BA683B6A13441B780A2B0DD13B68C9
:10566000FB61FB6893F825301A46BB691344FA685E
:1056700092F826201344BB6123E0BA683B6A1344C6
:105680001A7897F834300093F8681146FA69BB69C4
:10569000FFF7D4FE78617B69012B01D97B691DE09E
:1056A0007B69002B02D17B6A01337B62FB6893F834
:1056B00024301A46FB6893F827301344FA691344E0
:1056C000FB613B6A01333B623A6A7B689A42C0D312
:1056D0007B6A002B0CBF01230023DBB2184628375E
:1056E000BD4680BD80B582B000AF786039607B6810
:1056F000002B01D1052313E03B68002B08D17B6808
:105700001C331846002110223DF0CBFA052307E098
:105710007B681C331846396810223DF0B7FA002325
:1057200018460837BD4680BD80B586B002AF7860A8
:105730002B4B1B78002B01D000234DE0FEF73CFBE8
:10574000F860FB68002B01D0FB6845E0002025498C
:10575000FEF75CFBF860FB68002B01D0FB683BE0C8
:10576000214800F0D1FCF860FB68002B01D0FB68F9
:1057700032E01D4B1B68002B01D10B232CE0194B91
:105780005B689AB2194B1A80164BDB689AB2174BBA
:105790005A80164B00229A80144B0022DA80134B59
:1057A0001A88124B1A81114B5A88104B5A810C4B94
:1057B00001221A700D4B1B881A460C4B5B8803FBA9
:1057C00002F31A46002300930192002000210022D8
:1057D000002300F089FA002318461037BD4680BD2B
:1057E000361F0020381F0020641F0020681F002083
:1057F00080B483B000AF7860094B1B7883F001035D
:10580000DBB2002B01D0012303E07B68054A1A605C
:10581000002318460C37BD465DF8047B704700BF77
:10582000361F0020681F002090B482B000AF0446ED
:10583000084611461A462346FB800346BB800B46AA
:105840007B8013463B80194B1B7883F00103DBB24E
:10585000002B01D0012324E0FA887B881344144AEA
:105860001288934206DCBA883B881344104A528857
:10587000934201DD042314E07B88002B02D03B8897
:10588000002B01D105230CE0094AFB889380084ACC
:10589000BB88D380064A7B881381054A3B885381A5
:1058A000002318460837BD4690BC7047361F0020BD
:1058B000681F002080B594B000AFBA607B600346DB
:1058C000FB810B46BB81914B1B7883F00103DBB25C
:1058D000002B01D00123FFE18D4B1B68002B01D170
:1058E0000123F9E18B4B5B891A46BB89D31A894A9C
:1058F000128902FB03F2FB89D31ABB627A68BB6A86
:105900009A4201D90323E7E1834B5B7C002B01D052
:105910000A23E1E100237B640023BB637E4B9B6889
:10592000DB087B6200237B6300233B63794BDA88CF
:10593000BB891344BB81764B1B68BA89796A01FB2A
:1059400002F213443B62C1E1724B1B891A46FB8988
:10595000D31A1A467B68934228BF1346FB647A68C1
:10596000FB6CD31A7B60BB6B7A6A02FB03F31A46AB
:105970003B6A1344FB63674B9A88FB891344FB81A2
:10598000654B1B7C002BC0F28481012B40F3AB8064
:10599000022B00D07DE1FA8913465B001344002BF3
:1059A00000DA0733DB10FB62FA8913465B0013440D
:1059B00003F007037B64FB6AFA6B13441B78D9B2CC
:1059C0007B6CC3F10803FF2242FA03F3DBB20A4601
:1059D0001340DBB287F8433080E043E0FB6C002BE0
:1059E00029D07B6BBA681344FB61FB691A683B6B77
:1059F00022FA03F3DBB203F0070387F84B303B6B6B
:105A000003333B6397F84B207B6C02FA03F3DAB263
:105A100097F843301343DBB287F843303B6B082BD6
:105A200005DD3B6B083B3B637B6B01337B63FB6CAE
:105A3000013BFB6413E0FB6AFA6B13441B78D9B299
:105A4000FF227B6C02FA03F3DBB20A461340DAB2A0
:105A500097F843301343DBB287F8433005E07B6CA3
:105A600003337B647B6C072BB8DDFB6AFA6B134452
:105A700097F843201A70FB6A0133FB62002387F812
:105A800043307B6C082B1FDD97F84B207B6CC3F1F8
:105A90000B0342FA03F387F84330FB6AFA6B1344B3
:105AA000FA6AF96B0A441278D0B27A6C083AFF218C
:105AB00001FA02F2D2B201460A40D1B297F843206D
:105AC0000A43D2B2D2B21A707A6C144B1340002B34
:105AD00003DA013B63F0070301337B64FB6C002BAB
