:1000000000000820E50800001109000011090000A7
:100010001109000011090000110900001109000078
:100020001109000011090000110900001109000068
:100030001109000010090000C3A60000110900000A
:100040001109000011090000110900001109000048
:100050001109000011090000110900001109000038
:100060001109000011090000110900001109000028
:100070001109000011090000110900001109000018
:100080001109000011090000110900001109000008
:1000900011090000110900001109000011090000F8
:1000A00011090000110900001109000011090000E8
:1000B0001109000011090000110900001BB4000023
:1000C00011090000110900001109000011090000C8
:1000D00011090000110900001109000011090000B8
:1000E00011090000110900001109000011090000A8
:1000F0001109000011090000110900001109000098
:100100001109000011090000110900001109000087
:100110001109000011090000110900001109000077
:100120001109000011090000110900001109000067
:100130001109000011090000110900001109000057
:100140001109000011090000110900001109000047
:1001500010B5054C237833B9044B13B10448AFF301
:1001600000800123237010BD240100200000000046
:10017000DCF1000008B5034B1BB103490348AFF3A2
:10018000008008BD0000000028010020DCF1000014
:10019000154B002B08BF134B9D46A3F5803A002159
:1001A0008B460F461348144A121A0BF0ACFB0F4B48
:1001B000002B00D098470E4B002B00D09847002012
:1001C000002104000D000D48002802D00C48AFF3B8
:1001D00000800BF069FB200029000BF06BF90BF09D
:1001E0004FFB00BF000008000000082000000000D6
:1001F0000000000024010020DC5500200000000069
:100200000000000080B485B000AF786039607B6882
:1002100003F10473DA003B6813449B00FB60FB6846
:100220001B6818461437BD465DF8047B704780B4E0
:1002300085B000AF786039607B6803F1C063FB6014
:10024000FB683A681A6000BF1437BD465DF8047B4E
:10025000704780B485B000AF786039607B6803F187
:100260008063FB60FB683A681A6000BF1437BD46C4
:100270005DF8047B7047000080B582B000AF034694
:100280003960FB71FB79002B31D0FB79012B2BD02E
:10029000FB79022B25D0FB79032B1FD0FB79042B94
:1002A00019D0FB79052B13D0FB79062B0DD0FB79E8
:1002B000072B07D0FB79082B02D14FF6FF7318E00C
:1002C000002316E04FF6FF7313E04FF6FF7310E0C4
:1002D0004FF6FF730DE04FF6FF730AE04FF6FF7322
:1002E00007E04FF6FF7304E04FF6FF7301E04FF6AF
:1002F000FF733A68134103F00103002B04D14FF45C
:1003000077710C4803F08CF8FA7913465B001344BC
:100310001B010C3303F1804303F5082301213A68E4
:1003200001FA02F211461846FFF793FF00BF0837A3
:10033000BD4680BD44B9000080B582B000AF034621
:100340003960FB71FB79002B31D0FB79012B2BD06D
:10035000FB79022B25D0FB79032B1FD0FB79042BD3
:1003600019D0FB79052B13D0FB79062B0DD0FB7927
:10037000072B07D0FB79082B02D14FF6FF7318E04B
:10038000002316E04FF6FF7313E04FF6FF7310E003
:100390004FF6FF730DE04FF6FF730AE04FF6FF7361
:1003A00007E04FF6FF7304E04FF6FF7301E04FF6EE
:1003B000FF733A68134103F00103002B04D140F2AC
:1003C000F6310B4803F02CF8FA7913465B0013441E
:1003D0001B010C3303F1804303F5082339681846E9
:1003E000FFF710FF034618460837BD4680BD00BF23
:1003F00044B9000080B582B000AF03463960FB719C
:10040000FB79002B31D0FB79012B2BD0FB79022B10
:1004100025D0FB79032B1FD0FB79042B19D0FB7956
:10042000052B13D0FB79062B0DD0FB79072B07D0BA
:10043000FB79082B02D14FF6FF7318E0002316E07A
:100440004FF6FF7313E04FF6FF7310E04FF6FF73A4
:100450000DE04FF6FF730AE04FF6FF7307E04FF62B
:10046000FF7304E04FF6FF7301E04FF6FF733A6845
:10047000134103F00103002B04D140F20B410C485F
:1004800002F0CEFFFA7913465B0013441B010C33D4
:1004900003F1804303F5082301213A6801FA02F2CF
:1004A00011461846FFF7C3FE00BF0837BD4680BDA2
:1004B00044B9000090B587B000AF786000237B613D
:1004C00001233B617B68002B4BDB7B68012B48DC05
:1004D0000023FB6038E02548FB687A68D9001346A2
:1004E000DB009B1A9B000B44034404331C781F4819
:1004F000FB687A68D9001346DB009B1A9B000B440B
:10050000034408331B6819462046FFF715FF0346CE
:10051000002B14BF01230023FB7214497A68134691
:10052000DB009B1A9B000B441B78FA7A9A4201D19C
:100530003B6900E000237A6913447B613B695B00FF
:100540003B61FB680133FB6008497A681346DB00B6
:100550009B1A9B000B4401331B781A46FB6893429D
:10056000B9DB7B6918461C37BD4690BDBCB900009D
:1005700090B585B000AF786039600123BB607B68BF
:10058000002B65DB7B68012B62DC0023FB6052E003
:100590003A68BB681340BA689A420CBF0123002333
:1005A000DBB218462C497A681346DB009B1A9B0085
:1005B0000B441B7898421CD12748FB687A68D90005
:1005C0001346DB009B1A9B000B44034404331C7846
:1005D0002148FB687A68D9001346DB009B1A9B0010
:1005E0000B44034408331B6819462046FFF702FFFB
:1005F0001BE01948FB687A68D9001346DB009B1A98
:100600009B000B44034404331C781348FB687A684E
:10061000D9001346DB009B1A9B000B4403440833AC
:100620001B6819462046FFF727FEBB685B00BB60CE
:10063000FB680133FB6008497A681346DB009B1AAC
:100640009B000B4401331B781A46FB6893429FDBE7
:1006500000BF1437BD4690BDBCB9000090B583B053
:1006600000AF0121274803F09DFB0121264803F03C
:1006700099FB00237B603DE000233B602AE0234898
:100680003B687A68D9001346DB009B1A9B000B4439
:10069000034404331C781D483B687A68D90013462C
:1006A000DB009B1A9B000B4403440833186817496E
:1006B0007A681346DB009B1A9B000B441B7883F07F
:1006C0000103DBB204220146204605F067FF3B68C8
:1006D00001333B600D497A681346DB009B1A9B008F
:1006E0000B4401331B781A463B689342C7DB7B6897
:1006F00001337B607B68012BBEDD002318460C377D
:10070000BD4690BD4041050000550A00BCB900003F
:1007100080B584B000AF78607B68002B13DB7B680A
:10072000012B10DC7868FFF7C5FEF860FB68002B32
:1007300002D14FF0FF3300E0002319467868FFF73D
:1007400017FF002301E04FF0FF3318461037BD4676
:1007500080BD000080B582B000AF00F0DBF87860AB
:100760000A4B1B68094A43F080731360084B002250
:100770001A60084B1B68074A43F00103136078684E
:1007800002F032FE00BF0837BD4680BDFCED00E040
:10079000041000E0001000E080B483B000AF054B0F
:1007A0001B687B607B6818460C37BD465DF8047B90
:1007B000704700BF041000E0B0B586B000AF7860AD
:1007C00000F0A8F803464FF00004C7E904347B6842
:1007D0001C464FF00005D7E904010B4A4FF0000317
:1007E0000AF0CEFE02460B46204629460AF0C8FE15
:1007F00003460C46C7E90234D7E9023418462146BD
:100800001837BD46B0BD00BF40420F0080B400AFF6
:100810004FF0804301225A64154BD3F8B030144A8C
:1008200043F00103C2F8B030114BD3F8E030104A66
:1008300043F00803C2F8E0300E4B1B680D4A43F446
:10084000805313600A4BD3F8E030094A23F00803C1
:10085000C2F8E030064BD3F8B030054A23F001036C
:10086000C2F8B03000BFBD465DF8047B704700BFE2
:1008700000400E403440054080B584B000AF1123E5
:10088000FB60FFF7C3FF104805F0BEFA0521F868CA
:1008900004F062F901210D4803F084FA0123FB7290
:1008A0000323BB720A4B7B60FB7A002201211846AE
:1008B00004F06CFCBB7A1946786804F04DF900BF6F
:1008C0001037BD4680BD00BFF4B9000000050A0026
:1008D0000500240080B400AF00BFBD465DF8047B76
:1008E00070470000064880470649074A074B9A426E
:1008F000BEBF51F8040B42F8040BF8E7FFF748FCC1
:10090000750A0000E8F1000000000020240100202A
:10091000FEE700BF80B582B000AF00F025F8786038
:100920000A4BD3F808311B0AC3F308033B603B684A
:1009300001337A68B2FBF3F37B60054A7B6813608E
:100940007B6818460837BD4680BD00BF00400E409A
:100950000800002080B400AF024B1846BD465DF889
:10096000047B704700A24A0480B483B000AF334BCD
:10097000D3F8943003F00703023B042B49D801A2BB
:1009800052F823F0A9090000A1090000990900000C
:10099000090A0000B1090000294B1B687B603CE09C
:1009A0004FF400437B6038E0264B1B687B6034E0EB
:1009B000224B9B681B0C03F01F03073B072B1FD820
:1009C00001A252F823F000BFE9090000010A00006B
:1009D000010A0000010A0000EF090000010A0000FE
:1009E000F5090000FB090000174B7B600BE0174B7B
:1009F0007B6008E0164B7B6005E0164B7B6002E0F5
:100A000000237B6000BF08E0134B1B685B087B6022
:100A100003E0114B1B687B6000BF084BD3F800312B
:100A20001B0A03F01F0301337A68B2FBF3F3184685
:100A30000C37BD465DF8047B704700BF00400E4098
:100A400004000020000000200024F4000048E80119
:100A5000006CDC0280F0FA020C00002080B400AFD1
:100A6000034B1B681846BD465DF8047B704700BF0A
:100A70000000002080B400AF074B084A9A60064B84
:100A8000D3F88830044A43F47003C2F8883000BFBA
:100A9000BD465DF8047B704700ED00E000000000FB
:100AA00080B400AF4FF400431846BD465DF8047BA8
:100AB000704780B400AF4FF47A731846BD465DF8B6
:100AC000047B704780B400AF034B1B681846BD46DB
:100AD0005DF8047B704700BF0400002080B582B041
:100AE00000AF1F4B7B607B6802221A617B68022289
:100AF0005A617B681B4A9A617B681B4ADA617B6892
:100B00004FF480621A627B6800229A627B6800223E
:100B10005A627B680022DA627B68124A9A647B68B8
:100B2000124ADA647B6810221A657B6800229A6593
:100B30007B6800225A657B680022DA657B68073390
:100B40000B4918460AF0E7FE7B680A4918460AF086
:100B5000E2FE7B6820229A7100BF0837BD4680BD47
:100B60008C2F002004BA0000400100204005002026
:100B700010BA000014BA000080B58AB000AFF86067
:100B8000B9607A603C4B1B78002B01D1FFF7A6FFC0
:100B9000FA6813465B001344DB004833364A1344BB
:100BA000BB61BB68FB61BB691B693B62BB69DB68FE
:100BB0007B6100237B623A6A7B699A422AD9BB69CE
:100BC0009A683B6AD31A3B613A697B68934228BFB3
:100BD00013463B61BB695A683B6A13443A6919463C
:100BE000F8690AF085FE7A6A3B6913447B62FA6908
:100BF0003B691344FB617A683B69D31A7B603A6AAC
:100C00003B6913443B62BB699B683A6A9A4201D1D3
:100C100000233B627A693B6AD31A3B613A697B687D
:100C2000934228BF13463B613B69002B18D0BB6938
:100C30005A683B6A13443A691946F8690AF058FE43
:100C40007A6A3B6913447B62FA693B691344FB612E
:100C50007A683B69D31A7B603A6A3B6913443B620A
:100C60007B6A002B02D0BB693A6A1A617B6A18461C
:100C70002837BD4680BD00BF8C2F002080B586B0D0
:100C800000AFF860B9607A603B602E4B1B78002B98
:100C900001D1FFF723FF2B4B1B691A46FB689342D8
:100CA00048D204F075FC3861FB68002B32D025492E
:100CB000FB685A1C13465B001344DB000B44BA6804
:100CC0001A602049FB685A1C13465B001344DB0082
:100CD0000B4404337A681A601A49FA6813465B00B9
:100CE0001344DB000B4420333A681A601549FA6854
:100CF00013465B001344DB000B44283300221A60C8
:100D00001049FA6813465B001344DB000B4424339C
:100D100000221A600B49FA6813465B001344DB009B
:100D20000B442C333A6A1A60386904F041FC002302
:100D30007B6102E04FF0FF337B617B691846183717
:100D4000BD4680BD8C2F002080B586B000AFF86016
:100D5000B9607A603B602E4B1B78002B01D1FFF706
:100D6000BDFE2B4B5B691A46FB68934247D204F0E9
:100D70000FFC3861FB68002B31D02549FA68134617
:100D80005B001344DB000B444833BA681A60204907
:100D9000FA6813465B001344DB000B444C337A685B
:100DA0001A601B49FA6813465B001344DB000B44CE
:100DB00050333A681A601649FA6813465B001344C8
:100DC000DB000B44583300221A601149FA681346BD
:100DD0005B001344DB000B44543300221A600C49BF
:100DE000FA6813465B001344DB000B445C333A6A39
:100DF0001A60386904F0DCFB00237B6102E04FF0ED
:100E0000FF337B617B6918461837BD4680BD00BF44
:100E10008C2F0020F0B400EB4003DFF8800000EBE3
:100E2000C30000F118063069F768756887422ED351
:100E3000B368DC1B631E934212D37D19D01900BF27
:100E400011F8013B05F8013B013A05D011F8013BCF
:100E500005F8013B013AF3D1F0600120F0BC704786
:100E6000C018904217D37819121B11F8013B00F8F3
:100E7000013B013CF9D1141C05D011F8013B05F8E8
:100E8000013B013AF9D1F4600120F0BC7047C01B6E
:100E900001389042D1D20020F0BC70478C2F002046
:100EA00080B487B000AFF860B9607A6000233B611E
:100EB00002E03B6901333B61BA683B6913441B782C
:100EC000002BF6D13A697B689A4201D97B683B6175
:100ED0003B69FE2B06D8FB685A1CFA603A69D2B20D
:100EE0001A7011E0FB685A1CFA60FF221A70FB6846
:100EF0005A1CFA603A69D2B21A703B69190AFB6847
:100F00005A1CFA60CAB21A7000237B610AE0BA6800
:100F1000531CBB60FB68591CF96012781A707B691E
:100F200001337B617A693B699A42F0D3FB681846CA
:100F30001C37BD465DF8047B704780B483B000AFBA
:100F400078607B68043318460C37BD465DF8047B37
:100F5000704780B582B000AFFB1C0122194601200A
:100F6000FFF70AFE03467B607B68002B44DDFB78BD
:100F7000042B1AD0042B06DC022B10D0022B11DC20
:100F8000012B09D02DE0062B15D0062B10DB072BEB
:100F900014D0802B15D024E000F07CFA31E000F072
:100FA0002DFB2EE000F0F8FC2BE000F0C1FC28E067
:100FB00000F046FB25E000F043FF22E000F022FFB6
:100FC0001FE0FB1C012219460120FFF7D5FD034657
:100FD0007B607B68002B11DDFB78184600F096FEE5
:100FE0000CE0FB785BB2002B0ADAFB1C01221946ED
:100FF0000120FFF7C1FD03E000BF02E000BF00E0F9
:1010000000BF00BF0837BD4680BD000080B58CB072
:1010100000AF01233B713B1D0133FB61FB69FB62A8
:10102000334B5B69BB620BE0BB6ADAB2FB6A591CEB
:10103000F96262F07F02D2B21A70BB6ADB09BB624E
:10104000BB6A7F2BF0D8FB6A5A1CFA62BA6AD2B22A
:101050001A70FB6AFB61274B1B68BB61244BDB6882
:10106000BA69D31A7B617B691B017B617B691B11A8
:101070007B61FB697B627B693B620BE03B6ADAB2B6
:101080007B6A591C796262F07F02D2B21A703B6AA5
:10109000DB093B623B6A7F2BF0D87B6A5A1C7A6281
:1010A0003A6AD2B21A707B6AFB61FA693B1DD31AA5
:1010B0001A463B1D19460120FFF7ACFE03463B6173
:1010C0003B69002B09D00A4ABB69D360084B1B78E7
:1010D000013BDAB2064B1A7004E0054B5B69013341
:1010E000034A53613B6918463037BD4680BD00BF97
:1010F00058150020041000E080B58AB000AFF860F9
:10110000B9607A60654B1B78012B10D0634B1B785C
:10111000002B00F0A780614B1B78022B09D1FFF751
:1011200075FF5E4B1B78012B40F09E8001E000BFF5
:1011300000E000BF7B681F2B09D8584BDA697B6839
:1011400022FA03F303F00103002B40F08F807B6849
:10115000172B07D8FB68013BFB607B68DAB2FB68A2
:101160001A703DE0BA68FB68D31AFB61FB697F2BFC
:1011700012D9FB69DA09FB68013BFB60D2B2FB685C
:101180001A70FB69DBB2FA68013AFA6063F07F0318
:10119000DAB2FB681A7006E0FB68013BFB60FB6992
:1011A000DAB2FB681A707B687F2B12D97B68DA0988
:1011B000FB68013BFB60D2B2FB681A707B68DBB254
:1011C000FA68013AFA6063F07F03DAB2FB681A70DA
:1011D00006E0FB68013BFB607B68DAB2FB681A70D3
:1011E0002F4B1B68BB612D4BDB68BA69D31A7B613F
:1011F0007B691B017B617B691B097B61BB687B622F
:101200007B693B620BE03B6ADAB27B6A591C79620C
:1012100062F07F02D2B21A703B6ADB093B623B6A22
:101220007F2BF0D87B6A5A1C7A623A6AD2B21A7063
:101230007B6ABB60BA68FB68D31A1A46F96801205A
:10124000FFF7E8FD03463B613B69002B03D0134ADF
:10125000BB69D3600BE0114B1B780133DAB20F4B43
:101260001A7004E000BF02E000BF00E000BF0D4BB9
:10127000DA6E0C4B1B6F9A420BD0084B9B78002BFD
:1012800007D1064B01229A70FFF763FE034B002241
:101290009A7000BF2837BD4680BD00BF581500209A
:1012A000041000E08C2F002080B586B002AFF860FB
:1012B000B9607A603B60002300934FF48053144A76
:1012C00014490120FFF7DAFC002300930823124A97
:1012D00010490120FFF738FD104B4FF080521A6182
:1012E0000F4B1B680D4AD3600C4A7B6813620B4A94
:1012F000FB685360094ABB689360084A3B685362C5
:10130000064B00221A7000BF1037BD4680BD00BFDB
:101310005005002028BA0000501500205815002064
:10132000041000E080B483B000AF7860044A7B68AA
:10133000136100BF0C37BD465DF8047B704700BFEA
:101340005815002080B584B000AF786004F020F913
:10135000F8600848FFF7F1FDB8607A68B968B868C6
:10136000FFF7CAFEF86804F023F900BF1037BD4646
:1013700080BD00BF8815002080B588B000AF7860C0
:10138000396004F005F978611648FFF7D6FD386139
:101390003B69FB60FB68FB613B68BB610BE0BB69C1
:1013A000DAB2FB69591CF96162F07F02D2B21A709D
:1013B000BB69DB09BB61BB697F2BF0D8FB695A1C99
:1013C000FA61BA69D2B21A70FB69FB607A68F9688F
:1013D0003869FFF791FE786904F0EAF800BF20371A
:1013E000BD4680BD8815002080B58CB000AFF86088
:1013F000B9607A6004F0CCF8F8612548FFF79DFDEC
:10140000B861BB697B617B69FB62BB68BB620BE057
:10141000BB6ADAB2FB6A591CF96262F07F02D2B28F
:101420001A70BB6ADB09BB62BB6A7F2BF0D8FB6A10
:101430005A1CFA62BA6AD2B21A70FB6A7B617B6983
:101440007B627B683B620BE03B6ADAB27B6A591CC9
:10145000796262F07F02D2B21A703B6ADB093B62AA
:101460003B6A7F2BF0D87B6A5A1C7A623A6AD2B206
:101470001A707B6A7B61FA687969B869FFF73CFE8C
:10148000F86904F095F800BF3037BD4680BD00BF55
:101490008815002080B58CB000AF554B1B78002B11
:1014A00040F0A280524B01221A7004F071F8F860EB
:1014B0000A2250490120FFF7ADFCF86804F078F8E3
:1014C0000A20FFF73FFF04F063F8B8604A48FFF7CF
:1014D00034FD78607B683B603B68FB62444B5B6833
:1014E000BB620BE0BB6ADAB2FB6A591CF96262F0BC
:1014F0007F02D2B21A70BB6ADB09BB62BB6A7F2B68
:10150000F0D8FB6A5A1CFA62BA6AD2B21A70FB6A45
:101510003B603B687B62364B9B683B620BE03B6AFF
:10152000DAB27B6A591C796262F07F02D2B21A7019
:101530003B6ADB093B623B6A7F2BF0D87B6A5A1C13
:101540007A623A6AD2B21A707B6A3B603B68FB618E
:10155000274B1B69BB610BE0BB69DAB2FB69591C05
:10156000F96162F07F02D2B21A70BB69DB09BB611C
:10157000BB697F2BF0D8FB695A1CFA61BA69D2B2F9
:101580001A70FB693B603B687B6102233B610BE0A7
:101590003B69DAB27B69591C796162F07F02D2B291
:1015A0001A703B69DB093B613B697F2BF0D87B6993
:1015B0005A1C7A613A69D2B21A707B693B60182270
:1015C00039687868FFF798FDB86803F0F1FF084BB9
:1015D0005B6A002B02D0064B5B6A984700F0DCF98F
:1015E00000F0A6F900F02CFC00BF3037BD4680BDEE
:1015F000581500201CBA00008815002080B582B064
:1016000000AF03F0C5FF78600B48FFF796FC386029
:101610000A4B1B78002B07D00B2239683868FFF77C
:101620006BFD064B00221A70786803F0C1FF00BF03
:101630000837BD4680BD00BF881500205815002022
:1016400080B58CB000AF03F0A3FFF8604548FFF70A
:1016500074FCB860BB687B607B68FB62424B5B6874
:10166000BB620BE0BB6ADAB2FB6A591CF96262F03A
:101670007F02D2B21A70BB6ADB09BB62BB6A7F2BE6
:10168000F0D8FB6A5A1CFA62BA6AD2B21A70FB6AC4
:101690007B607B687B62344B9B683B620BE03B6A00
:1016A000DAB27B6A591C796262F07F02D2B21A7098
:1016B0003B6ADB093B623B6A7F2BF0D87B6A5A1C92
:1016C0007A623A6AD2B21A707B6A7B607B68FB618D
:1016D000254B1B69BB610BE0BB69DAB2FB69591C86
:1016E000F96162F07F02D2B21A70BB69DB09BB619B
:1016F000BB697F2BF0D8FB695A1CFA61BA69D2B278
:101700001A70FB697B607B687B6102233B610BE0A5
:101710003B69DAB27B69591C796162F07F02D2B20F
:101720001A703B69DB093B613B697F2BF0D87B6911
:101730005A1C7A613A69D2B21A707B697B601822AE
:101740007968B868FFF7D8FCF86803F031FF064BFA
:101750005B6A002B02D0044B5B6A984700BF3037AE
:10176000BD4680BD881500205815002080B592B078
:1017700000AF786003F00CFF78616B48FFF7DDFB8A
:1017800038613B69FB60FB687B647B681A68674B68
:101790001B69D31A9B083B640BE03B6CDAB27B6C91
:1017A000591C796462F07F02D2B21A703B6CDB097B
:1017B0003B643B6C7F2BF0D87B6C5A1C7A643A6C90
:1017C000D2B21A707B6CFB60FB68FB637B689B6822
:1017D000BB630BE0BB6BDAB2FB6B591CF96362F0C5
:1017E0007F02D2B21A70BB6BDB09BB63BB6B7F2B72
:1017F000F0D8FB6B5A1CFA63BA6BD2B21A70FB6B4F
:10180000FB607B685B6820221946F868FFF748FB9D
:10181000F8600922F9683869FFF76EFC3B69FB60E4
:10182000FB687B637B681A68404B1B69D31A9B0873
:101830003B630BE03B6BDAB27B6B591C796362F064
:101840007F02D2B21A703B6BDB093B633B6B7F2B91
:10185000F0D87B6B5A1C7A633A6BD2B21A707B6BEE
:10186000FB60FB68FB627B68DB68BB620BE0BB6A0A
:10187000DAB2FB6A591CF96262F07F02D2B21A70C6
:10188000BB6ADB09BB62BB6A7F2BF0D8FB6A5A1CC0
:10189000FA62BA6AD2B21A70FB6AFB60FB687B62BA
:1018A0007B681B693B620BE03B6ADAB27B6A591CBE
:1018B000796262F07F02D2B21A703B6ADB093B6246
:1018C0003B6A7F2BF0D87B6A5A1C7A623A6AD2B2A2
:1018D0001A707B6AFB60FB68FB610023BB610BE055
:1018E000BB69DAB2FB69591CF96162F07F02D2B2BE
:1018F0001A70BB69DB09BB61BB697F2BF0D8FB6940
:101900005A1CFA61BA69D2B21A70FB69FB601522DF
:10191000F9683869FFF7F0FB786903F049FE00BF0A
:101920004837BD4680BD00BF8815002058150020EF
:1019300080B500AF074B1B6A002B08D0054B1B6A14
:101940005B68002B03D0034B1B6A5B68984700BFA2
:1019500080BD00BF5815002080B586B000AF78600C
:1019600003F016FE78610B48FFF7E7FA3861802232
:1019700079683869FFF794FAF8600E22F9683869D7
:10198000FFF7BAFB786903F013FE00BF1837BD46B6
:1019900080BD00BF8815002090B583B000AF144B08
:1019A0001B6A002B19D0124B1B6A1B68002B14D02A
:1019B0000F4B1B6A1B689847C7E900013868D7E9D5
:1019C00000124FF000034FF00004130000241A46E9
:1019D00001460D20FFF708FD05E0064B1B68194680
:1019E0000C20FFF7C9FC00BF0C37BD4690BD00BFFF
:1019F00058150020041000E080B582B000AF03F05D
:101A0000C7FD78600748FFF798FA386011223968F7
:101A10003868FFF771FB786803F0CAFD00BF08372C
:101A2000BD4680BD8815002080B588B000AF7860C5
:101A300003F0AEFD78611A48FFF77FFA38613B6921
:101A4000FB60184B1B697A68D31A9B087B60FB68A4
:101A5000FB617B68BB610BE0BB69DAB2FB69591CB7
:101A6000F96162F07F02D2B21A70BB69DB09BB6117
:101A7000BB697F2BF0D8FB695A1CFA61BA69D2B2F4
:101A80001A70FB69FB600822F9683869FFF734FBBC
:101A9000786903F08DFD00BF2037BD4680BD00BFD3
:101AA000881500205815002080B588B000AF7860F8
:101AB00003F06EFD78611A48FFF73FFA38613B6921
:101AC000FB60184B1B697A68D31A9B087B60FB6824
:101AD000FB617B68BB610BE0BB69DAB2FB69591C37
:101AE000F96162F07F02D2B21A70BB69DB09BB6197
:101AF000BB697F2BF0D8FB695A1CFA61BA69D2B274
:101B00001A70FB69FB600422F9683869FFF7F4FA80
:101B1000786903F04DFD00BF2037BD4680BD00BF92
:101B2000881500205815002080B588B000AF786077
:101B300003F02EFD78611A48FFF7FFF938613B6921
:101B4000FB60184B1B697A68D31A9B087B60FB68A3
:101B5000FB617B68BB610BE0BB69DAB2FB69591CB6
:101B6000F96162F07F02D2B21A70BB69DB09BB6116
:101B7000BB697F2BF0D8FB695A1CFA61BA69D2B2F3
:101B80001A70FB69FB600622F9683869FFF7B4FA3E
:101B9000786903F00DFD00BF2037BD4680BD00BF52
:101BA000881500205815002080B58AB000AF7860F5
:101BB000396003F0EDFC78612748FFF7BEF9386122
:101BC0003B69FB60254B1B697A68D31A9B087B60D5
:101BD000FB687B627B683B620BE03B6ADAB27B6A44
:101BE000591C796262F07F02D2B21A703B6ADB093B
:101BF0003B623B6A7F2BF0D87B6A5A1C7A623A6A56
:101C0000D2B21A707B6AFB60FB68FB613B68BB6108
:101C10000BE0BB69DAB2FB69591CF96162F07F0223
:101C2000D2B21A70BB69DB09BB61BB697F2BF0D8EC
:101C3000FB695A1CFA61BA69D2B21A70FB69FB607F
:101C40000722F9683869FFF757FA786903F0B0FCA2
:101C500000BF2837BD4680BD8815002058150020DC
:101C600080B588B000AF7860396003F091FC78618E
:101C70001B48FFF762F938613B69FB60FB68FB6159
:101C8000184B1B697A68D31A9B08BB610BE0BB69D0
:101C9000DAB2FB69591CF96162F07F02D2B21A70A4
:101CA000BB69DB09BB61BB697F2BF0D8FB695A1CA0
:101CB000FA61BA69D2B21A70FB69FB608022396896
:101CC000F868FFF7EDF8F8601922F9683869FFF74E
:101CD00013FA786903F06CFC00BF2037BD4680BD65
:101CE000881500205815002080B483B000AF7860BC
:101CF000054B1B697A68D31A9B0818460C37BD46FA
:101D00005DF8047B704700BF5815002080B58CB08B
:101D100000AF0346FB71394B1B68002B69D0374B72
:101D20001B68FB620023BB6208E0FB6A1B69FB6265
:101D3000FB6A002B07D0BB6A0133BB62FB79BA6A2E
:101D40009A42F2D300E000BFFB6A002B51D003F0AF
:101D50001FFC78612A48FFF7F0F838613B69FB60A7
:101D6000FB687B62FB793B620BE03B6ADAB27B6A21
:101D7000591C796262F07F02D2B21A703B6ADB09A9
:101D80003B623B6A7F2BF0D87B6A5A1C7A623A6AC4
:101D9000D2B21A707B6AFB60FB68FB61FB6A9B68CE
:101DA000BB610BE0BB69DAB2FB69591CF96162F0F7
:101DB0007F02D2B21A70BB69DB09BB61BB697F2BA2
:101DC000F0D8FB695A1CFA61BA69D2B21A70FB6981
:101DD000FB60FB6A1B6880221946F868FFF760F811
:101DE000F8601622F9683869FFF786F9786903F018
:101DF000DFFB00BF3037BD4680BD00BF801500202F
:101E00008815002080B582B000AF0C4B1B68002BFA
:101E10000FD00A4B1B687B607B68DB68002B02D00D
:101E20007B68DB6898477B681B697B607B68002B5D
:101E3000F2D100BF0837BD4680BD00BF801500202D
:101E400080B586B000AF03F0A3FBF8601748FFF73A
:101E500074F8B860BB687B607B687B61144B1B784F
:101E60003B610BE03B69DAB27B69591C796162F036
:101E70007F02D2B21A703B69DB093B613B697F2B61
:101E8000F0D87B695A1C7A613A69D2B21A707B69C0
:101E90007B601B227968B868FFF72EF9F86803F0B9
:101EA00087FB00BF1837BD4680BD00BF88150020E6
:101EB0008415002080B58AB000AF786003F068FB1D
:101EC00078612748FFF739F83861802279683869E6
:101ED000FEF7E6FFF860FB687B6201233B620BE0E4
:101EE0003B6ADAB27B6A591C796262F07F02D2B235
:101EF0001A703B6ADB093B623B6A7F2BF0D87B6A36
:101F00005A1C7A623A6AD2B21A707B6AFB60FB682A
:101F1000FB610023BB610BE0BB69DAB2FB69591CB2
:101F2000F96162F07F02D2B21A70BB69DB09BB6152
:101F3000BB697F2BF0D8FB695A1CFA61BA69D2B22F
:101F40001A70FB69FB601A22F9683869FFF7D4F848
:101F5000786903F02DFB00BF2837BD4680BD00BF68
:101F60008815002080B500AF0448FFF7F5FC044851
:101F7000FFF7F2FC00F07CF900BF80BD30BA000032
:101F800060BA000098B500AF094801F0E9F90446CD
:101F9000074801F0E5F90146064B074A2046FFF7DE
:101FA00083F94FF00050FFF7BDF900BF98BD00BFA7
:101FB00004300020651F000018BB0000F0B585B09C
:101FC00002AF00237B6035E01F497A6813469B000F
:101FD00013449B000B4418681B497A6813469B0006
:101FE00013449B000B4404331C6817497A6813465A
:101FF0009B0013449B000B4408331D6812497A6808
:1020000013469B0013449B000B440C331B681E4675
:102010000D497A6813469B0013449B000B44103310
:102020001B68009333462A46214600F0B7F87B68C8
:1020300001337B60054B1B687A689A42C4D300BFAA
:102040000C37BD46F0BD00BF6C160020EC18002018
:1020500090B585B000AF01F078F9F860F868FEF748
:10206000ABFBC7E90001D7E9003418462146143715
:10207000BD4690BD80B582B000AF786005F0F4F841
:102080000346002B02D17868FFF74EFD00BF0837EA
:10209000BD4680BD80B582B000AF786005F0E4F841
:1020A0000346002B02D17868FFF7FEFC00BF08371B
:1020B000BD4680BD80B582B000AF786005F0D4F831
:1020C0000346002B03D104217868FFF76DFD00BFA4
:1020D0000837BD4680BD000080B586B002AFF8600D
:1020E000B9607A603B6005F0BFF80346002B4BD126
:1020F000274B1B681F2B03D92648FFF7DBFE43E065
:10210000234B1A68244913469B0013449B000B443D
:10211000FA681A601E4B1A681F4913469B00134445
:102120009B000B440433BA681A60194B1A681A49A9
:1021300013469B0013449B000B4408337A681A60D3
:10214000134B1A68144913469B0013449B000B441D
:102150000C333A681A600E4B1A680F4913469B00FD
:1021600013449B000B441033BA691A60084B1B6878
:102170000133074A13603A68BB69009313467A68D3
:10218000B968F86800F00AF81037BD4680BD00BF96
:10219000EC18002074BA00006C16002080B58AB0DC
:1021A00000AFF860B9607A603B6007F11403142255
:1021B0000021184609F0A7FBFB687B61BB68BB6187
:1021C0007B68FB613B683B623B6B7B6207F11403FE
:1021D0001846FFF7CBFA00BF2837BD4680BD000088
:1021E00080B584B000AFF860B9607A607968B8688B
:1021F000FFF736FDB868FFF777FD03461946F86824
:10220000FFF7BAF8174B1B68FF2B03D91648FFF7E7
:1022100051FE24E0134B1A68144913465B00134423
:102220009B000B44BA681A600E4B1A680F4913469C
:102230005B0013449B000B4404337A681A60094B1B
:102240001A680A4913465B0013449B000B44083389
:1022500000221A60034B1B680133024A13601037D7
:10226000BD4680BDF0240020C4BA0000F018002054
:1022700080B582B000AF00237B602BE01A497A68FA
:1022800013465B0013449B000B4408331B68002B70
:102290001DD115497A6813465B0013449B000B441B
:1022A000186811497A6813465B0013449B000B447D
:1022B00004331B681946FFF7D3FC0B497A681346B1
:1022C0005B0013449B000B44083301221A607B68B7
:1022D00001337B60054B1B687A689A42CED300BFFE
:1022E0000837BD4680BD00BFF0180020F024002054
:1022F00080B483B000AF78607B6800221A6000BFB2
:102300000C37BD465DF8047B7047000080B582B095
:1023100000AF7860144B01221A707B68002B01D14A
:1023200001F010F87B6800221A70104B1A687B6865
:102330005A600F4B1A687B689A607B680D4ADA60B6
:102340007B68B7221A617B680B4A5A6100F0F6F984
:1023500000F0ECF9786800F04BFF7B681B78002BED
:102360000837BD4680BD00BFF424002044E20000D1
:1023700090E4000020BB0000ACBB000080B400AFC4
:10238000034B1B681846BD465DF8047B704700BFD1
:10239000F824002080B485B000AF03460A46FB71E4
:1023A0001346BB710023FB73FB79162B63D801A284
:1023B00052F823F011240000172400001D2400000F
:1023C0001D2400001D2400002324000029240000F7
:1023D00029240000292400002F24000035240000B7
:1023E0003B24000041240000472400004724000053
:1023F00047240000592400005F24000065240000E9
:102400006B2400004D2400005324000071240000C0
:102410000123FB7330E00123FB732DE00123FB73E9
:102420002AE00123FB7327E00123FB7324E001234F
:10243000FB7321E00123FB731EE00123FB731BE010
:102440000123FB7318E00123FB7315E00123FB73E9
:1024500012E00123FB730FE00123FB730CE0012367
:10246000FB7309E00123FB7306E00123FB7303E028
:102470000123FB7300E000BFFB7B18461437BD4609
:102480005DF8047B704700BF80B58EB000AFF86088
:10249000B9607A600023FB627B68002B01D100F0F9
:1024A00051FF274B1B68002B08D1786800F04AF8D1
:1024B0007B681B78002B01D0FB6A3DE0204B1B683A
:1024C0007968184600F042FA38637B681B78002B65
:1024D00001D0FB6A30E03B6B7A68F968184605F07A
:1024E0000DFE7B681B78002B17D1BB68002B09D031
:1024F000BB681B7803F00103002B03D0012387F88E
:10250000373002E0002387F837303B6B97F83720ED
:1025100083F834203B6BFB620DE0094B1B681846C7
:1025200007F114031A46396B00F006FB3B7D002BC4
:1025300001D000F007FFFB6A18463837BD4680BD62
:10254000FC24002080B588B004AF78607B68002B45
:1025500001D100F0F7FE7B6800221A705E4B1A680A
:102560007B685A605D4B1A687B689A607B685C4A3E
:10257000DA607B684FF40D621A617B68594A5A61D0
:10258000786804F09BFC7B681B78002B03D078688C
:1025900004F01EFD9DE0544B1B68002B40F095801D
:1025A000FFF7ECFEF8607B68B422F9684F4800F052
:1025B00053F902464C4B1A607B681B78002B03D002
:1025C000786804F005FD84E0474B1B6819467B687A
:1025D00003934FF0FF3302930023019304230093EE
:1025E0003823FA68424800F05FF97B681B78002BBB
:1025F00003D0786804F0ECFC6BE03B4B1B6803F104
:1026000024017B6803934FF0FF330293002301936F
:10261000042300932C23FA68364800F045F97B68C0
:102620001B78002B03D0786804F0D2FC51E02E4BCD
:102630001B6803F16C017B6803934FF0FF33029337
:1026400000230193042300933823FA682A4800F0FA
:102650002BF97B681B78002B03D0786804F0B8FC5A
:1026600037E0214B1B6803F190017B6803934FF027
:10267000FF33029300230193042300930123FA689C
:102680001E4800F011F97B681B78002B03D0786896
:1026900004F09EFC1DE0144B1B6803F148017B68AD
:1026A00003934FF0FF33029300230193042300931D
:1026B0002423FA68124800F0F7F87B681B78002B97
:1026C00003D0786804F084FC03E0786804F080FCB0
:1026D00000BF1037BD4680BD44E2000090E400001A
:1026E000B8BB0000D0BC0000FC24002068BC000087
:1026F0007CBC00008CBC00009CBC0000ACBC00009A
:10270000C0BC000080B584B000AF786002F05EFF0E
:10271000F860054A7B681360F86802F067FF00BF45
:102720001037BD4680BD00BF0025002080B500AF3A
:102730000120FFF7E7FF00BF80BD000080B586B035
:1027400000AF3B461946064800F00CF83B78002BDA
:1027500001D000F0F7FD00BF1837BD4680BD00BFB7
:102760001000002080B584B000AF786039603B680D
:10277000002B01D100F0E6FD7B68002B15D13B68F2
:102780000A221A702F4B9A6A3B685A602E4B9A6A3B
:102790003B689A603B682D4ADA603B6840F2B92298
:1027A0001A613B682A4A5A61FEE702F00FFFB860DF
:1027B000284B1B68FB601FE0FA687B689A4218D1BF
:1027C000B86802F013FF3B6815221A701D4B5A6D52
:1027D0003B685A601C4B5A6D3B689A603B681B4AC9
:1027E000DA603B684FF430721A613B68184A5A61EC
:1027F00024E0FB68DB68FB60FB68002BDCD1154B39
:102800001A687B68DA60134A7B681360B86802F064
:10281000EDFE3B6800221A700A4B1A683B685A604A
:10282000094B1A683B689A603B68084ADA603B6863
:1028300040F2CB221A613B68054A5A611037BD4607
:1028400080BD00BF44E2000090E40000DCBC00005A
:1028500068BD00001C30002080B58AB004AFF8606D
:10286000B9607A603B60BB687B613B68002B01D13B
:1028700000F068FD7B69002B01D10A4B7B613B684E
:102880000293002301930123009304237A6879695A
:10289000F86800F0F1F938613B6918461837BD4611
:1028A00080BD00BF1000002080B58AB004AFF86082
:1028B000B9607A603B607B687B61FB6A002B01D169
:1028C00000F040FDBB68002B15D1FB6A0A221A708C
:1028D000194B9A6AFB6A5A60184B9A6AFB6A9A60AB
:1028E000FB6A174ADA60FB6A40F214421A61FB6A1B
:1028F000144A5A61FEE77B69002B01D1124B7B61C0
:10290000BB6800221A70BB680022DA61BB68002233
:102910001A62FB6A0393BB6A02937B6A01933B6A68
:1029200000933B687A69B968F86800F0B9FA00BFAB
:102930001837BD4680BD00BF44E2000090E40000AF
:10294000DCBC000074BD00001000002090B58BB00E
:1029500004AF786039603B68002B01D100F0F2FCD5
:102960007B68002B15D13B680A221A706E4B9A6A5D
:102970003B685A606D4B9A6A3B689A603B686C4A48
:10298000DA603B6840F2D7421A613B68694A5A6193
:10299000FEE702F01BFE78617B685B69B3F1FF3FE5
:1029A0001FD07B689A697B685B699A4219D3786902
:1029B00002F01CFE3B6818221A705B4B1A6E3B68D3
:1029C0005A605A4B1A6E3B689A603B68584ADA6004
:1029D0003B6840F2E2421A613B68564A5A61002362
:1029E0009DE07B689B695A1C7B689A617B681B69C8
:1029F000002B2DD07B681B69FB607B681B7803F084
:102A00000203002B02D1FB681B6805E07B689B6812
:102A1000043BFA6813441B687A681361786902F012
:102A2000E5FD3B6800221A703F4B1A683B685A600C
:102A30003E4B1A683B689A603B683D4ADA603B68E7
:102A400040F2F1421A613B683A4A5A61FB6866E01B
:102A5000786902F0CBFD00233B617B6859687B6895
:102A600098687B68DC687B681B7803F00103002BA7
:102A700003D07B685B681B6900E001233A6802921F
:102A800000220192009323460246386900F0F4F8D0
:102A9000F8603B681B78002B0CD002F097FD786142
:102AA0007B689B695A1E7B689A61786902F09EFD7B
:102AB000002334E07B68DB69002B2FD07B68DC6966
:102AC0007B6859687B681B6AFA687868A047034688
:102AD000FB72FB7A012B21D002F078FD78617B68D4
:102AE0009B695A1E7B689A61786902F07FFD3B689A
:102AF0001A221A700C4B9A6E3B685A600B4B9A6EF6
:102B00003B689A603B680A4ADA603B6840F21B52B5
:102B10001A613B68074A5A61002300E0FB681846C7
:102B20001C37BD4690BD00BF44E2000090E40000A9
:102B3000DCBC000088BD000080B586B000AFF86046
:102B4000B9607A607B68002B01D100F0FBFBFB6869
:102B5000002B15D17B680A221A70434B9A6A7B6856
:102B60005A60424B9A6A7B689A607B68404ADA6096
:102B70007B6840F23D521A617B683E4A5A61FEE72B
:102B8000BB68002B15D17B680A221A70364B9A6AF3
:102B90007B685A60354B9A6A7B689A607B68344AD6
:102BA000DA607B6840F23E521A617B68314A5A61B2
:102BB000FEE702F00BFD7861FB689B69002B18D1E2
:102BC000786902F013FD7B6817221A70264BDA6DC4
:102BD0007B685A60254BDA6D7B689A607B68244A73
:102BE000DA607B6840F247521A617B68214A5A6179
:102BF00037E0FB689B695A1EFB689A61786902F0AE
:102C0000F5FCFB681B7803F00203002B05D0FB6882
:102C10009B68043BBA68134400E0BB683B6102F068
:102C2000D5FC7861FB681A693B691A60FB68BA6871
:102C30001A61786902F0DAFC7B6800221A700A4B8C
:102C40001A687B685A60094B1A687B689A607B68CF
:102C5000074ADA607B6840F257521A617B68054A7E
:102C60005A611837BD4680BD44E2000090E4000080
:102C7000DCBC00009CBD000080B588B002AFF860ED
:102C8000B9607A603B607B68002B15D1BB6A082273
:102C90001A70374B1A6ABB6A5A60364B1A6ABB6A9B
:102CA0009A60BB6A344ADA60BB6A4FF4D9621A612F
:102CB000BB6A324A5A61FEE73B68002B05D03B688D
:102CC0005A1E3B681340002B02D03B68002B01D1F9
:102CD000012300E00023002B15D1BB6A08221A70E3
:102CE000234B1A6ABB6A5A60224B1A6ABB6A9A6003
:102CF000BB6A214ADA60BB6A40F2CC621A61BB6AE5
:102D00001E4A5A61FEE702F061FC7861BB6A0193DA
:102D10007B6A00933B6A3A687968B86800F030F8DB
:102D20003861BB6A1B78002B19D0786902F05EFC11
:102D3000BB6A16221A700E4B9A6DBB6A5A600D4B15
:102D40009A6DBB6A9A60BB6A0B4ADA60BB6A40F252
:102D5000D7621A61BB6A094A5A61002303E07869A5
:102D600002F044FC3B6918461837BD4680BD00BFE1
:102D700044E2000090E40000DCBC0000B0BD0000B4
:102D800080B48BB000AFF860B9607A603B607B685C
:102D9000002B01D07B6800E004233A68934238BFDF
:102DA00013467B62FB689B681A467B6A5B421A404B
:102DB000FB689B6819467B6A013B0B40002B01D0E6
:102DC0007B6A00E0002313443B623A6ABB681A4402
:102DD0003B685B421A40396ABB6819443B68013B57
:102DE0000B40002B01D03B6800E000231344FB6143
:102DF000FB685B681A46FB689B68D31A0133BB61AA
:102E0000FB689B681A46FB699B1A7B61BA697B6900
:102E10009A421ED23B6B002B04D07A69BB69D21A4E
:102E20003B6B1A607B6B16221A70194B9A6D7B6B89
:102E30005A60184B9A6D7B6B9A607B6B164ADA600E
:102E40007B6B40F222721A617B6B144A5A61002339
:102E500018E0FA69FB689A607B6B00221A700C4BD1
:102E60001A687B6B5A600B4B1A687B6B9A607B6BA2
:102E7000094ADA607B6B4FF4E5621A617B6B074AA3
:102E80005A613B6A18462C37BD465DF8047B704793
:102E900044E2000090E40000DCBC0000C8BD00007B
:102EA00090B593B004AFF860B9607A603B603B685E
:102EB000002B15D17B6D08221A70924B1A6A7B6D1C
:102EC0005A60914B1A6A7B6D9A607B6D8F4ADA600B
:102ED0007B6D40F293721A617B6D8D4A5A61FEE7F9
:102EE0003B6DB3F1FF3F03D0FA6C3B6D9A4201D8C2
:102EF000012300E00023002B15D17B6D08221A70FE
:102F0000804B1A6A7B6D5A607F4B1A6A7B6D9A60A0
:102F10007B6D7E4ADA607B6D40F297721A617B6D41
:102F20007B4A5A61FEE7BB6C002B08D0BB6C5A1E73
:102F3000BB6C1340002B02D1BB6C032B02D8BB6CC3
:102F4000002B01D1012300E00023002B15D17B6D64
:102F500008221A706B4B1A6A7B6D5A606A4B1A6AA8
:102F60007B6D9A607B6D694ADA607B6D40F29C7282
:102F70001A617B6D664A5A61FEE7BB6C002B01D07B
:102F8000BB6C00E00423FB61BB681B7803F0020309
:102F9000002B10D03B6823F003033A6802F00302D1
:102FA000002A01D1002200E0042213443B633B6B62
:102FB00004333B6304E03B68042B38BF04233B63CA
:102FC000FB6C002B00F0DF80BB681B7803F0010373
:102FD000002B02D1FB69BB6206E07B681B69FA69C2
:102FE000934238BF1346BB62BB6A5A423B6B1A40DE
:102FF000BB6A591E3B6B0B40002B01D0BB6A00E043
:1030000000231344BB61BB69FA6C02FB03F37B62D0
:103010003A6BBB69D31A7A6A13447B62BB681B782C
:1030200003F00103002B11D07B681B695A427B6AB5
:103030001A407B681B69591E7B6A0B40002B02D02B
:103040007B681B6900E0002313447B627B6D029365
:103050000023019301230093BB6A7A6A7968F868B8
:10306000FFF70AFE78637B6D1B78002B40F0B3807E
:10307000BB687A6B1A61BB681B7803F00203002BF4
:1030800002D17B6B3B620EE03B6823F003033A689E
:1030900002F00302002A01D1002200E004221344BE
:1030A0007A6B13443B620123FB623EE03B6A796B1F
:1030B000BA690A441A60BB68DB69002B2AD0BB6876
:1030C000DC69BB681B6A7A6B7968B868A0470346FD
:1030D000BB75BB7D012B1DD07B6D1A221A70094B6D
:1030E0009A6E7B6D5A60084B9A6E7B6D9A607B6D11
:1030F000064ADA607B6D40F2D9721A617B6D044A30
:103100005A6169E044E2000090E40000DCBC000089
:10311000E0BD00003A6ABB6913443B627A6BBB694D
:1031200013447B63FB6A0133FB62FA6AFB6C9A42CD
:10313000BCD33B6A00221A60BB68DB69002B25D038
:10314000BB68DC69BB681B6A7A6B7968B868A047A2
:103150000346FB75FB7D012B18D07B6D1A221A707C
:103160001F4B9A6E7B6D5A601E4B9A6E7B6D9A60F8
:103170007B6D1D4ADA607B6D40F2E9721A617B6DEE
:103180001A4A5A6128E0BB6800221A61BB687A6853
:103190005A60BB683A6B9A60BB68FA69DA60BB68D0
:1031A0003A6D5A61BB6800229A617B6D00221A70E9
:1031B0000B4B1A687B6D5A600A4B1A687B6D9A60DC
:1031C0007B6D094ADA607B6D40F2FC721A617B6D9F
:1031D000064A5A6100E000BF3C37BD4690BD00BFC3
:1031E00044E2000090E40000DCBC0000E0BD000010
:1031F00090B589B004AF78607B68002B01D100F0F6
:10320000A1F87B6800221A70424B1A687B685A60EA
:10321000414B1A687B689A607B68404ADA607B6839
:10322000C4221A617B683E4A5A613E4B5B68002BA0
:103230006DD000210220FFF7ADF80346FB7300219B
:103240000320FFF7A7F803461A46FB7B1340FB73E6
:1032500000210420FFF79EF803461A46FB7B13402B
:10326000FB73FB7B012B14D07B6806221A70294B61
:103270009A697B685A60284B9A697B689A607B6878
:10328000264ADA607B68CA221A617B68244A5A613E
:10329000FEE7FFF773F8B8607B682C22B968224814
:1032A000FFF7DAFA0246214B1A607B681B78002B85
:1032B00028D11E4B1B68181D1A4B1B68194A5268EF
:1032C0007968039102920193042300930823BA685A
:1032D00001461748FFF7E8FA7B681B78002B13D1EB
:1032E000124B1C687A6800211248FFF7CDF8A062E3
:1032F0007B681B78002B09D10C4B1B681846FEF726
:10330000F7FF04E000BF02E000BF00E000BF143799
:10331000BD4690BD44E2000090E40000FCBD00000A
:10332000E4BE00002400002094BE0000042500201C
:10333000A8BE0000C0BE000080B500AF00F064F879
:1033400000BF80BD80B400AFFEE780B582B000AFA3
:10335000FDF722FA78607B6818460837BD4680BDC5
:1033600080B584B000AF78607B68002B01D1FFF797
:10337000E9FF184B1B68FB60FB68002B01D00022A3
:1033800000E009227B681A70FB68002B01D0002343
:1033900000E00923104A52F823207B685A60FB683A
:1033A000002B01D0002300E009230C4A52F823200F
:1033B0007B689A607B680A4ADA607B684FF4F9722E
:1033C0001A617B68074A5A61FB6818461037BD4688
:1033D00080BD00BF2050002044E2000090E40000C7
:1033E000DCE6000060E7000080B483B000AF7860E6
:1033F000044A7B68136000BF0C37BD465DF8047B50
:10340000704700BF2050002080B500AF034B002262
:103410001A60FDF79FF900BF80BD00BF205000205B
:1034200080B483B000AF78603960FEE780B487B0C5
:1034300000AFF860B9607A60FB6803F10473DA00EA
:10344000BB6813449B007B617B697A681A6000BF8C
:103450001C37BD465DF8047B704780B485B000AF73
:10346000786039607B6803F10473DA003B681344C9
:103470009B00FB60FB681B6818461437BD465DF86F
:10348000047B704780B485B000AF786039607B689A
:1034900003F1C063FB60FB683A681A6000BF143731
:1034A000BD465DF8047B704780B485B000AF78609E
:1034B00039607B6803F18063FB60FB683A681A60DF
:1034C00000BF1437BD465DF8047B704780B582B0FD
:1034D00000AF78607B681F2B04D94FF496710548C4
:1034E000FFF79EFF01227B6802FA03F318460837B4
:1034F000BD4680BD74E7000080B584B000AF786041
:103500007B68B3F5004F04D340F696310E48FFF7C1
:1035100087FF7B680133B3FA83F3DBB2C3F11F0388
:10352000FB60F868FFF7D2FF0346013B7A689A42D6
:1035300004D040F69C310448FFF772FFFB68184640
:103540001037BD4680BD00BFF0E7000080B400AF7B
:10355000064B1B6803F04003002B01D1012300E060
:1035600000231846BD465DF8047B70473C300E4092
:1035700080B500AFFFF7EAFF034683F00103DBB23B
:10358000002B08D100BF12210448FFF766FF034655
:10359000002BF8D100E000BF80BD00BF04300E401A
:1035A00080B500AFFFF7E4FF034B5B681B0C03F033
:1035B0000303DBB2184680BD00300E4080B584B0F6
:1035C00000AF78600123FB607B68124A934204D805
:1035D0000023FB600023BB6008E07B680E4A934237
:1035E00002D80123BB6001E00223BB60FA6810210E
:1035F0000A48FFF71BFF094BD3F8003123F0407254
:10360000BB681B0605491343C1F8003100BF1037E2
:10361000BD4680BD0048E8010090D00300400E4048
:1036200080B483B000AF054B1B687B607B68184695
:103630000C37BD465DF8047B704700BF2C000020AE
:1036400080B582B000AFFDF78FF97860064BD3F8F4
:1036500000311B0A03F01F0301337A6802FB03F3F6
:1036600018460837BD4680BD00400E4080B582B088
:1036700000AF0F4801F0D6F80346FB70FB78072B2C
:1036800005D0092B07D1FDF76FF978600BE0FFF744
:10369000C7FF786007E000237B6040F612510548C1
:1036A000FFF7BEFE00BF7B6818460837BD4680BDE9
:1036B00006000E0068E8000080B584B000AF7860B6
:1036C0007B68002B02D0012B06D00BE0224801F0D2
:1036D000A9F80346FB720CE0204801F0A3F803466A
:1036E000FB7206E040F632511D48FFF799FE0023B9
:1036F0002EE0FB7A013B072B21D801A252F823F0E0
:10370000213700003F3700003F3700002F3700000F
:103710003F3700003F3700002737000037370000F1
:103720000023FB6013E0FFF77BFFF8600FE0FDF77D
:1037300095F9F8600BE0FFF783FFF86007E00023DE
:10374000FB6040F649510648FFF76AFE00BFFB6880
:1037500018461037BD4680BDB8003200B9003400AD
:1037600068E8000080B582B000AF1C4801F05AF84C
:103770000346FB70FB78043B062B21D801A252F8CC
:1037800023F000BFA9370000A1370000C1370000B7
:10379000B1370000C1370000C1370000B937000061
:1037A0000F4B1B687B6013E0FDF758F978600FE062
:1037B000FFF736FF78600BE00A4B1B687B6007E081
:1037C00000237B6040F673510748FFF729FE00BFD6
:1037D0007B6818460837BD4680BD00BF0A7B3600AF
:1037E0000C0000203000002068E8000080B584B0A4
:1037F00000AF78607B68002B1AD11F4801F012F8E7
:103800000346FB7200BFFB7A043B062B27D801A2BC
:1038100052F823F0473800003F3800005F380000BE
:103820004F3800005F3800005F3800005738000054
:1038300040F68E511148FFF7F3FD002318E0104BBE
:103840001B68FB6013E0FDF709F9F8600FE0FFF774
:10385000E7FEF8600BE00B4B1B68FB6007E0002302
:10386000FB6040F6A5510548FFF7DAFD00BFFB6895
:1038700018461037BD4680BD0B7C380068E8000054
:103880000C0000203000002080B582B000AF24483A
:1038900000F0C8FF0346FB70FB78023B092B31D8D0
:1038A00001A252F823F000BFF5380000FD380000F7
:1038B000D9380000ED380000053900000539000056
:1038C0000539000005390000D1380000E13800005A
:1038D000144B1B687B601DE0FDF7C0F8786019E0B1
:1038E000FDF7BCF803465B007B6013E00E4B1B68E2
:1038F0007B600FE0FDF7E6F878600BE0FDF7D0F8AD
:10390000786007E000237B6040F6FC510748FFF732
:1039100087FD00BF7B6818460837BD4680BD00BFE5
:103920000C7F3A00300000200C00002068E8000006
:1039300080B584B000AF786039604FF080435B6839
:1039400003F04073FB600023BB6012E01C4ABB68BD
:10395000DB0013441A793B68DBB29A4206D1184A5D
:10396000BB6852F833307A689A4206D9BB68013393
:10397000BB60BB68062BE9D900E000BFBB68072B22
:1039800007D10323FB604FF465610E48FFF748FD44
:1039900005E00B4ABB68DB0013445B79FB60FB6806
:1039A0001B06FB604FF080435B6823F040724FF0D2
:1039B0008041FB6813434B6000BF1037BD4680BD9C
:1039C000E0E8000068E8000080B582B000AF4FF08A
:1039D00080431B6C002B14BF01230023FB714FF0AD
:1039E000804341F671321A64FCF7B4FF03460021AC
:1039F0001846FFF79DFFFB79002B03D04FF0804363
:103A000000221A6400BF0837BD4680BD80B584B06F
:103A100000AF786039600C4BFB603B68022B01D132
:103A20000A4BFB607A68FB689A4204D90849094846
:103A3000FFF728FD03E006490648FFF735FD00BF04
:103A40001037BD4680BD00BF80D543020024F4007E
:103A5000020202000001004080B582B000AF786031
:103A600039607B680B4A934209D93B68002B06D129
:103A70004FF480514FF08040FFF704FD05E04FF414
:103A800080514FF08040FFF70FFD00BF0837BD4663
:103A900080BD00BF80F0FA0280B584B000AF7860CE
:103AA00039604FF080431B6C002B14BF01230023AF
:103AB000FB734FF0804341F671321A6439687868BD
:103AC000FFF736FF39687868FFF7A0FF3968786834
:103AD000FFF7C2FFFB7B002B03D04FF08043002297
:103AE0001A6400BF1037BD4680BD000080B400AF2F
:103AF000044B5B6A1B0903F003031846BD465DF8DF
:103B0000047B704700400E4080B483B000AF786003
:103B1000074B5B6A23F030027B681B0104491343A7
:103B20004B6200BF0C37BD465DF8047B704700BF99
:103B300000400E4090B585B000AF78600023BB60B8
:103B40007B68474A934212D0454A934203D8454A7C
:103B500093420CD005E0444A934208D0434A934232
:103B600005D04FF475614248FFF75AFC00E000BFF2
:103B7000786800F057FE0346FB607B68384A934242
:103B800014D0374A934203D8364A934207D022E0F2
:103B9000354A934211D0354A934215D01BE0354B3C
:103BA000D3F8803003F00703FB601AE0314BD3F801
:103BB000843003F00703FB6013E02E4BD3F88C3006
:103BC00003F00703FB600CE02A4BD3F8883003F0C6
:103BD0000703FB6005E040F67F712548FFF720FCF6
:103BE00000BFFB68042B2ED801A252F823F000BFBF
:103BF000413C0000053C00000D3C00001D3C000065
:103C0000153C0000FCF74CFFB86024E0FCF75AFFBD
:103C1000B86020E0FCF74DFFB8601CE0FCF7A4FEA4
:103C20000446144BD3F800311B0E03F00303013399
:103C30001846FFF74BFC0346B4FBF3F3BB600AE006
:103C40000023BB6007E00023BB6040F6D771084843
:103C5000FFF7E6FB00BFBB6818461437BD4690BDB2
:103C60000300200002001E000400220005002400C2
:103C700068E8000000400E4080B483B000AF786078
:103C80000A4BD3F8443103F00103002B08D100BFE5
:103C9000064BD3F840217B681340002BF8D100E09D
:103CA00000BF0C37BD465DF8047B704700400E40F6
:103CB00080B500AF0321064800F00AFB0321054848
:103CC00000F006FB0321044800F002FB00BF80BDAA
:103CD00040410500504107006041090080B582B0B5
:103CE00000AFFCF741FE3860FFF75AFC0346022B99
:103CF0001AD13A68224B1344224AA2FB0323DB0D5C
:103D00007B607B68002B02D07B68013B7B6079681D
:103D10001D4800F0DDFA79681C4800F0D9FA79688E
:103D20001B4800F0D5FA27E03A681A4B13441A4AA8
:103D3000A2FB03231B0E7B607B68002B02D07B68F9
:103D4000013B7B607968104800F0C2FA796810483E
:103D500000F0BEFA3A68114B1344114AA2FB032348
:103D60009B0E7B607B68002B02D07B68013B7B60F5
:103D70007968064800F0ACFA00BF0837BD4680BD40
:103D8000FF2C31016BCA5F6B4041050050410700B9
:103D9000604109007FF0FA02893BE655FFA14A0421
:103DA000B5FA9BEE80B586B000AF78600B46FB702D
:103DB00000233B617B681B0A03F00F03013B0E2BC2
:103DC0006AD801A252F823F0053E0000113E00001F
:103DD000993E0000993E00000B3E00001D3E000091
:103DE000273E0000313E00003D3E0000933E0000B3
:103DF000493E00006B3E0000993E0000173E000067
:103E00008D3E0000314B7B614CE0314B7B6149E0E2
:103E1000304B7B6146E0304B7B6143E02F4B7B6155
:103E200001233B613EE02E4B7B6110233B6139E077
:103E30002C4B7B614FF480733B6133E02A4B7B61F9
:103E40004FF480333B612DE0284B7B61FB78002BE6
:103E500014BF01230023DBB283F00103DBB2FB704C
:103E6000FB7803F00103FB701CE0214B7B61FB78C6
:103E7000002B14BF01230023DBB283F00103DBB26C
:103E8000FB70FB7803F00103FB700BE0194B7B61C7
:103E900008E0194B7B6105E041F2DB311748FFF781
:103EA000BFFA10E07B681B0B03F01F03FB603B694C
:103EB000002B02D03869FFF7DFFEFB781A46F9685D
:103EC0007869FFF7B3FA1837BD4680BD00400E4051
:103ED000B0400E40C0400E40C4400E40E0400E4096
:103EE000E8400E40EC400E40F0400E4060410E4075
:103EF00064410E40F0410E4050410E4068E8000021
:103F000080B584B000AF78607B6803F47813B3F5B4
:103F1000D01F00F04D81B3F5D01F3CD8B3F5402F32
:103F200000F0C980B3F5402F18D8B3F5802F77D0B3
:103F3000B3F5802F06D8002B6ED0B3F5003F00F00C
:103F4000AB80ACE1B3F5002F00F08880B3F5202FF3
:103F500000F09380B3F5C02F71D0A0E1B3F5901FAE
:103F600000F0BD80B3F5901F08D8B3F5602F00F0C6
:103F70006281B3F5801F00F0628190E1B3F5B01F5C
:103F800000F0CA80B3F5C01F00F0D880B3F5A01FC1
:103F900000F0B48083E1B3F5381F00F0F580B3F58D
:103FA000381F1CD8B3F5001F00F0FD80B3F5001FCB
:103FB00008D8B3F5E01F00F00D81B3F5F01F00F055
:103FC00089806CE1B3F5201F00F02B81B3F5281F29
:103FD00000F0C780B3F5101F00F028815FE1B3F552
:103FE000501F00F03F81B3F5501F08D8B3F5401FB4
:103FF00000F00381B3F5481F00F025814FE1B3F5D0
:10400000601F00F04381B3F5681F00F04481B3F5F1
:10401000581F00F0378142E1FCF7A6FCF86046E14A
:10402000FCF7A2FCF860A44BD3F80C311B0AC3F3D5
:1040300008030133FA68B2FBF3F3FB6037E1FCF7E6
:1040400093FCF8609C4BD3F818311B0AC3F30803A8
:104050000133FA68B2FBF3F3FB6028E1FCF784FC60
:10406000F860954BD3F81C311B0AC3F308030133E6
:10407000FA68B2FBF3F3FB6019E1FCF775FCF8603A
:104080008D4BD3F804311B0AC3F308030133FA68DC
:10409000B2FBF3F3FB600AE1FCF766FCF860864BC9
:1040A000D3F808311B0AC3F308030133FA68B2FBE3
:1040B000F3F3FB60FBE0FCF757FCF8607E4BD3F8B2
:1040C00014311B0A03F01F030133FA68B2FBF3F348
:1040D000FB60ECE07948FFF72DFDF860E7E07748FA
:1040E000FFF728FDF860744BD3F820311B0C03F068
:1040F0000F03FA6822FA03F3FB60D8E07048FFF779
:1041000019FDF8606C4BD3F8303103F00303FA6803
:1041100022FA03F3FB60CAE06848FFF70BFDF86082
:10412000654BD3F8203103F00F031846FFF7CEF9A3
:104130000246FB68B3FBF2F3FB60B8E05F48FFF7B1
:10414000F9FCF8605C4BD3F820311B0903F00F0336
:104150001846FFF7BBF90246FB68B3FBF2F3FB60BE
:10416000A5E05648FFF7E6FCF860534BD3F8203142
:104170001B0B03F007031846FFF7A8F90246FB687C
:10418000B3FBF2F3FB6092E04C48FFF7D3FCF8601E
:10419000494BD3F820311B0A03F00303FA6822FAD3
:1041A00003F3FB6083E04748FFF7C4FCF8607EE060
:1041B0004448FFF7BFFCF8603F4BD3F8283103F0C9
:1041C00003031846FFF782F90246FB68B3FBF2F3DC
:1041D000FB606CE03B48FFF7ADFCF860364BD3F872
:1041E00028311B0903F003031846FFF76FF9024655
:1041F000FB68B3FBF2F3FB6059E03248FFF79AFC2F
:10420000F8602D4BD3F828311B0B03F00303043364
:104210001846FFF75BF90246FB68B3FBF2F3FB605D
:1042200045E02948FFF786FCF86040E02448FFF7A6
:1042300081FCF8603BE0FFF719FAF86037E0FFF720
:10424000EFF9F86033E00020FFF736FAF8601A4B18
:10425000D3F85C3103F003030133FA68B2FBF3F3E4
:10426000FB6024E00120FFF727FAF860124BD3F837
:104270005C311B0C03F003030133FA68B2FBF3F368
:10428000FB6014E0FFF76EFAF86010E00020FFF723
:10429000ADFAF8600BE0FFF7F7FAF86007E00023EB
:1042A000FB6041F201510948FFF7BAF800BFFB6813
:1042B00018461037BD4680BD00400E4002001E006B
:1042C00005002400030020000400220068E800002C
:1042D00080B584B000AF786039607B681B0903F05B
:1042E0000F03FB60FB68013B0B2B00F2808201A2F5
:1042F00052F823F02543000081430000EF470000FF
:10430000A9430000D74300000544000033440000E7
:104310008D4400004546000011470000554700004D
:10432000C14700003B681F2B04D941F2F451BA4841
:10433000FFF776F8FFF748FBB848FFF73FF9FFF7BC
:10434000B7FCB74BD3F8003123F4F8523B681B029B
:10435000B3491343C1F80031FCF7DCFAB860FFF74A
:104360001FF903461946B868FFF796FBAD48FFF7FB
:10437000C7FD03461846FFF721F9FFF7AFFC3CE203
:104380003B681F2B04D941F20A61A348FFF748F8A4
:10439000A34BD3F8143123F4F8523B681B02A04915
:1043A0001343C1F8143128E23B68B3F5007F04D30E
:1043B00041F211619848FFF733F8994BD3F80C316B
:1043C00023F4FF3323F480733A68120294491343B1
:1043D000C1F80C3111E23B68B3F5007F04D341F220
:1043E00018618D48FFF71CF88D4BD3F8183123F472
:1043F000FF3323F480733A68120289491343C1F8EA
:104400001831FAE13B68B3F5007F04D34FF4B151A2
:104410008148FFF705F8824BD3F81C3123F4FF33B2
:1044200023F480733A6812027D491343C1F81C31AA
:10443000E3E13B68B3F5007F04D341F2276176489E
:10444000FEF7EEFFFFF7C0FA7448FFF7B7F8744BBA
:10445000D3F8083123F4FF3323F480733A6812024F
:104460006F491343C1F80831FCF754FAB860FFF7FD
:1044700097F803461946B868FFF70EFB6948FFF73F
:104480003FFD03461846FFF799F8B6E17B68664A98
:10449000934266D0644A934209D8644A93422ED02C
:1044A000634A934242D0634A93420CD0ACE0624AE2
:1044B000934200F08D80614A93426ED0604A9342ED
:1044C00000F08680A0E03B68B3F5004F04D941F2CC
:1044D0003B615148FEF7A4FF3868FFF70DF83860DC
:1044E0000420FFF7C9FB4E4BD3F8203123F4702290
:1044F0003B681B044A491343C1F820318AE03B68FA
:10450000022B04D941F24C614348FEF789FF4FF476
:104510008020FFF7B1FB424BD3F8303123F0030288
:104520003F493B681343C1F8303173E03B68B3F552
:10453000004F04D941F269613748FEF771FF3868CE
:10454000FEF7DAFF38600420FFF796FB344BD3F810
:10455000203123F00F0232493B681343C1F8203168
:1045600058E03B68B3F5004F04D941F278612A481E
:10457000FEF756FF3868FEF7BFFF38600420FFF7EC
:104580007BFB274BD3F8203123F0F0023B681B0163
:1045900023491343C1F820313CE03B68082B04D980
:1045A00041F287611C48FEF73BFF3868FEF7A4FF25
:1045B00038600420FFF760FB194BD3F8203123F457
:1045C00040723B681B0216491343C1F8203121E0B9
:1045D0003B68B3F5004F04D941F297610E48FEF7EE
:1045E0001FFF3868FEF788FF38600420FFF744FBA0
:1045F0000B4BD3F8203123F4E0423B681B030849FE
:104600001343C1F8203105E041F2A5610248FEF7ED
:1046100007FF00BFF1E000BF68E800000148E801C3
:1046200000400E4000050A0080161800A009140082
:10463000800616008046120000362C0080262E00D0
:1046400080002A007B686F4A93421FD06E4A9342D3
:1046500037D06E4A934254D13B68082B04D941F2BB
:10466000AE616B48FEF7DCFE3868FEF745FF386048
:104670004020FFF701FB674BD3F8283123F00302FA
:1046800064493B681343C1F8283140E03B68082B7C
:1046900004D941F2BD615E48FEF7C2FE3868FEF7FC
:1046A0002BFF38604020FFF7E7FA5A4BD3F8283148
:1046B00023F030023B681B0156491343C1F82831EF
:1046C00025E03B687F2B02D83B680E2B04D841F2D3
:1046D000CC614F48FEF7A4FE3868FEF70DFF034695
:1046E000043B3B604020FFF7C7FA4A4BD3F8283120
:1046F00023F440523B681B0346491343C1F8283159
:1047000005E041F2DB614248FEF78AFE00BF74E03B
:104710007B68414A934216D13B68022B04D941F28F
:10472000E5613B48FEF77CFE4FF48020FFF7A4FADA
:10473000384BD3F8303123F0030236493B6813433A
:10474000C1F8303105E041F2F5613148FEF768FE0D
:1047500000BF52E07B68314A934203D0304A934213
:1047600013D026E03B68032B04D94FF4B8512848F6
:10477000FEF756FE274BD3F85C3123F003022549A0
:104780003B681343C1F85C3119E03B68032B04D943
:1047900041F208711E48FEF743FE1E4BD3F85C3110
:1047A00023F440323B681B041A491343C1F85C31BF
:1047B00005E041F20E711648FEF732FE00BF1CE024
:1047C0003B68B3F5007F04D341F216711048FEF741
:1047D00027FE104BD3F8043123F4FF3323F4807306
:1047E0003A6812020B491343C1F8043105E041F263
:1047F0001D710748FEF714FE00BF00BF1037BD460D
:1048000080BD00BF90171C009037300090071A0041
:1048100068E8000000400E40A0091400B800320013
:10482000B900340080B584B000AF78600123FB7319
:104830007B6803F00F03BB60BB68013B0B2B00F2EE
:10484000748101A252F823F079480000D548000095
:10485000054900007D4900004D490000AD490000B8
:104860002B4B0000D1490000134A0000574A0000BA
:10487000974A0000D74A0000B54BD3F8943003F0B4
:104880000703023B052B21D801A252F823F000BFF9
:10489000B5480000AF480000A9480000BB48000030
:1048A000C7480000C14800000223FB7311E0032346
:1048B000FB730EE00423FB730BE00D23FB7308E096
:1048C0000E23FB7305E00A23FB7302E00523FB7351
:1048D00000BF37E19E4BD3F8803003F00703022B73
:1048E00006D0042B07D0012B08D10323FB7308E06B
:1048F0000223FB7305E00C23FB7302E00123FB732F
:1049000000BF1FE1924BD3F8843003F00703013B53
:10491000032B17D801A252F823F000BF2D49000045
:10492000334900003F490000394900000323FB736D
:104930000BE00223FB7308E00C23FB7305E0062366
:10494000FB7302E00123FB7300BFFBE0804BD3F855
:10495000883003F00703022B06D0042B07D0012B6D
:1049600008D10323FB7308E00223FB7305E00C234B
:10497000FB7302E00123FB7300BFE3E0744BD3F849
:104980008C3003F00703022B06D0042B07D0012B39
:1049900008D10323FB7308E00223FB7305E00C231B
:1049A000FB7302E00123FB7300BFCBE0684B1B6F7E
:1049B00003F00303002B04D0012B05D10923FB7363
:1049C00005E00723FB7302E00123FB7300BFB9E09E
:1049D0005F4BD3F85C3103F03003102B0CD0102B5D
:1049E00002D8002B05D010E0202B08D0302B09D0A6
:1049F0000BE00123FB730BE00723FB7308E00423A8
:104A0000FB7305E00823FB7302E00123FB7300BF87
:104A100098E04F4BD3F85C3103F44013B3F5801F9B
:104A20000FD0B3F5801F02D8002B07D08AE0B3F572
:104A3000001F09D0B3F5401F09D083E00123FB73A9
:104A400008E00723FB7305E00423FB7302E008235F
:104A5000FB7300BF76E03E4BD3F8603103F00303F5
:104A6000032B6AD801A252F823F000BF7D4A000050
:104A7000834A0000894A00008F4A00000523FB7327
:104A800008E00423FB7305E00723FB7302E00A231D
:104A9000FB7300BF51E02E4BD3F8643103F00303E6
:104AA000032B4CD801A252F823F000BFBD4A0000EE
:104AB000C34A0000C94A0000CF4A00000523FB7327
:104AC00008E00423FB7305E00723FB7302E00A23DD
:104AD000FB7300BF33E01E4BD3F8F03103F0070344
:104AE000052B2ED801A252F823F000BF054B000081
:104AF0000B4B0000114B0000174B00001D4B00003A
:104B0000234B00000A23FB730EE00423FB730BE02E
:104B10000B23FB7308E00523FB7305E00223FB7303
:104B200002E00323FB7300BF0BE00023FB7341F69D
:104B300028110848FEF774FC04E000BF02E000BF43
:104B400000E000BFFB7B18461037BD4680BD00BFAC
:104B500000400E4068E8000080B58AB000AF786081
:104B60000B46FB7003237B62032387F8233000236B
:104B7000BB6100237B617B68112B19D1FB78042B6F
:104B800003D1FBF76BFF78610BE0FB78052B08D1B5
:104B900000F0F0FA0246BF4B9A4202D900F0EAFA5E
:104BA00078617B69002B03D00021786900F0EAFD71
:104BB0007B6803F00F033B613B69013B0B2B00F269
:104BC000C98201A252F823F0F94B0000194D0000F0
:104BD000694D00002D4D00004B4D0000114E0000AE
:104BE000555100003B4E0000E14E0000614F0000B7
:104BF000EF4F00007B500000FB78023B0C2B53D89A
:104C000001A252F823F000BF3D4C0000494C0000C7
:104C1000554C0000674C0000A94C0000A94C000056
:104C2000A94C0000A94C0000914C0000A94C0000C8
:104C30009D4C0000794C0000854C000004237B62F1
:104C4000002387F8233035E003237B62012387F8B4
:104C500023302FE002237B62022387F823308E4823
:104C6000FEF7ACFC26E001237B62032387F82330A8
:104C70008948FEF7A3FC1DE005237B62032387F828
:104C8000233017E007237B62072387F8233011E0E6
:104C900006237B62052387F823300BE041F6E911F8
:104CA0007E48FEF7BDFB5BE241F6EE117B48FEF766
:104CB000B7FB55E297F82330072B06D097F823303F
:104CC00001220121184600F061FAFEF77DFEFEF791
:104CD000EFFF7B69002B01D0FEF74AFC704A7B6A2C
:104CE00053677048FFF70CF903461846FEF766FC59
:104CF000FBF710FEF860FEF753FC03461946F86810
:104D0000FEF7CAFE7B69002B03D10121002000F0D1
:104D100039FDFEF7E3FF23E2634BBB61FB78062B13
:104D200004D141F62A215D48FEF77AFBBB69002BCE
:104D300001D0BB6900E05D4BBB61FB78062B04D161
:104D400041F634215548FEF76BFBBB69002B01D0BF
:104D5000BB6900E0564BBB61FB78062B04D141F6E2
:104D60003E214E48FEF75CFBBB69002B01D0BB69BE
:104D700000E0504BBB61FB78013B0B2B3ED801A2FE
:104D800052F823F0B54D0000BB4D0000CB4D0000A4
:104D9000FD4D0000FD4D0000DB4D0000FD4D00000D
:104DA000FD4D0000FD4D0000FD4D0000FD4D0000DB
:104DB000F74D00000023FB6126E0012201210020C5
:104DC00000F0E4F90223FB611EE001220121012031
:104DD00000F0DCF90123FB6116E0FBF79BFD0346C5
:104DE0001846FEF7EBFB012200213348FEF71EFBBD
:104DF0000323FB6108E00423FB6105E041F66A211F
:104E00002648FEF70DFBABE1BB69FA691A60A7E122
:104E1000FB78072B02D0092B04D007E0204B00229F
:104E20001A6709E01E4B01221A6705E041F6F421DA
:104E30001A48FEF7F5FA93E192E1FB78013B072B64
:104E40003CD801A252F823F0694E0000BD4E00008C
:104E5000BD4E00007F4E0000BD4E0000BD4E000064
:104E60006F4E00008F4E00000023FB612CE00122FA
:104E70000121042000F08AF90123FB6124E00122D2
:104E80000121022000F082F90223FB611CE00323D0
:104E9000FB6119E0002D31010148E80168E80000DC
:104EA00000400E4000050A0080400E408C400E403D
:104EB00088400E4084400E40B0400E4041F65231D2
:104EC000A948FEF7ADFA4BE1A84BD3F85C3123F0CB
:104ED0003002FB691B01A5491343C1F85C313FE176
:104EE000FB78013B072B29D801A252F823F000BF21
:104EF000114F00003D4F00003D4F0000274F0000C4
:104F00003D4F00003D4F0000174F0000374F00009D
:104F10000023FB6118E001220121042000F036F992
:104F20000123FB6110E001220121022000F02EF993
:104F30000223FB6108E00323FB6105E041F67531C4
:104F40008948FEF76DFA0BE1884BD3F85C3123F406
:104F50004012FB691B0585491343C1F85C31FFE032
:104F6000FB78043B062B31D801A252F823F000BF96
:104F70009D4F00008D4F0000CD4F0000AD4F000051
:104F8000CD4F0000CD4F0000BD4F00000122012198
:104F9000032000F0FBF80023FB611DE0012201214A
:104FA000022000F0F3F80123FB6115E0012201214A
:104FB000042000F0EBF80223FB610DE00122012147
:104FC000052000F0E3F80323FB6105E041F69C3186
:104FD0006548FEF725FAC3E0644BD3F8603123F04F
:104FE00003026249FB691343C1F86031B8E0FB7802
:104FF000043B062B30D801A252F823F029500000C0
:10500000195000005950000039500000595000005C
:10501000595000004950000001220121032000F0F6
:10502000B5F80023FB611DE001220121022000F000
:10503000ADF80123FB6115E001220121042000F0FD
:10504000A5F80223FB610DE001220121052000F0FB
:105050009DF80323FB6105E041F6C3314248FEF7AA
:10506000DFF97DE0414BD3F8643123F003023F497F
:10507000FB691343C1F8643172E0FB78023B092BF2
:1050800057D801A252F823F0135100002351000019
:10509000C1500000035100003351000033510000A3
:1050A0003351000033510000B1500000D1500000D6
:1050B00001220121052000F069F80023FB613EE098
:1050C00001220121022000F061F80123FB6136E09A
:1050D000FBF7C4FC0246264B9A4204D941F6DE3166
:1050E0002148FEF79DF9214B5B6A204A43F00803F3
:1050F000536201220121022000F048F80223FB61E3
:105100001DE001220121032000F040F80323FB6190
:1051100015E001220121002000F038F80423FB6192
:105120000DE001220121012000F030F80523FB6190
:1051300005E041F6FD310C48FEF772F910E00B4B2B
:10514000D3F8F03123F007020849FB691343C1F893
:10515000F03105E041F629410348FEF761F900BF4F
:105160002837BD4680BD00BF68E8000000400E4003
:1051700040787D0180B400AF034B1B681846BD46E4
:105180005DF8047B704700BF0C00002080B588B03C
:1051900000AF0346FB710B46BB7113467B71FB7975
:1051A000052B49D801A252F823F000BF0D52000090
:1051B000FB510000D7510000C5510000E95100002B
:1051C0002352000001237B6102233B610123FB6129
:1051D0000023BB6136E004237B6108233B6103238A
:1051E000FB610223BB612DE010237B6120233B6127
:1051F0000523FB610423BB6124E040237B61802302
:105200003B610723FB610623BB611BE04FF4807306
:105210007B614FF400733B610923FB610823BB6191
:1052200010E04FF480637B614FF400633B610B231C
:10523000FB610A23BB6105E042F22F014248FEF701
:10524000EFF87DE0BB79002B5ED00023FB73FB7988
:10525000022B1AD1FEF74AFC0346012B15D13B4B1A
:10526000DB6B03F48063002B04D142F23E0136482D
:10527000FEF7D6F80123FB73354B5B6A03F003039B
:10528000032B02D10220FEF73FFC314A7B691366F3
:1052900000BFB9692F48FEF7E0F80346002BF8D0AD
:1052A0007B79002B4CD000BFF9692A48FEF7D5F86E
:1052B0000346002BF8D0FB79022B41D1FB7B002B5E
:1052C0003ED0234B5B6A03F00303032B03D0002182
:1052D000022000F021F9022000F03EF8B86001221F
:1052E00000210220FFF752FFB968022000F074F895
:1052F000174A7B69136600BFF9691648FEF7ADF8D7
:105300000346002BF8D01BE0114A3B69136600BF2F
:105310000F4BD3F890300121BA6901FA02F2134021
:10532000002BF5D17B79002B0AD000BF084BD3F8B6
:1053300090300121FA6901FA02F21340002BF5D1F5
:105340002037BD4680BD00BF68E8000000300E4039
:1053500000400E4090400E4080B584B000AF034640
:10536000FB71FB79013B042B24D801A252F823F0F6
:1053700085530000B553000091530000A95300006D
:105380009D530000124B1B6AC3F30803FB6019E036
:105390000F4B1B6903F07F03FB6013E00C4B9B6812
:1053A00003F07F03FB600DE0094B9B6903F07F0373
:1053B000FB6007E00023FB6042F2BB010548FEF7FB
:1053C0002FF800BFFB6818461037BD4680BD00BFF0
:1053D00000400E4068E8000080B582B000AF034690
:1053E0003960FB71FB79013B042B00F2848001A240
:1053F00052F823F009540000F7540000495400000B
:10540000BD540000835400003B68B3F5007F04D313
:1054100042F2E1013D48FEF703F83B68C3F308039D
:105420003B6000BF1A213A48FEF717F80346002BED
:10543000F8D1384B1B6A23F4FF7323F0010335497D
:105440003A6813430B625CE03B687F2B04D942F25D
:10545000EE012E48FDF7E4FF3B6803F07F033B605D
:1054600000BF18212A48FDF7F8FF0346002BF8D1AA
:10547000284B1B6923F07F0226493B6813430B61CD
:105480003FE03B687F2B04D942F2FC011F48FDF747
:10549000C7FF3B6803F07F033B6000BF1E211C4831
:1054A000FDF7DBFF0346002BF8D11A4B9B6823F076
:1054B0007F0218493B6813438B6022E03B687F2BD7
:1054C00004D942F209111148FDF7AAFF3B6803F025
:1054D0007F033B6000BF19210D48FDF7BEFF034667
:1054E000002BF8D10B4B9B6923F07F0209493B68E5
:1054F00013438B6105E042F232110448FDF790FF3F
:1055000000BF00BF0837BD4680BD00BF68E800008F
:1055100040410E4000400E4080B584B000AF0346CD
:105520000A46FB711346BB71FB79022B04D042F291
:105530004A111448FDF774FFFEF7D8FA0346012B11
:1055400003D14FF48003FB600EE0BB79002B03D145
:105550004FF48003FB6007E00B4BFB6042F26511E8
:105560000848FDF75DFF00BF00BF084BD3F890204F
:10557000FB681340FA689A42F7D1012318461037A6
:10558000BD4680BD68E80000FF3F473A00400E403E
:1055900080B483B000AFEFF310833B603B687B6067
:1055A00072B67B6818460C37BD465DF8047B7047C1
:1055B00080B483B000AF78607B68002B00D162B606
:1055C00000BF0C37BD465DF8047B704780B483B0E4
:1055D00000AFEFF310833B603B687B6072B67B6883
:1055E00018460C37BD465DF8047B704780B483B025
:1055F00000AF78607B68002B00D162B600BF0C372B
:10560000BD465DF8047B704780B400AF064B5B6815
:10561000C3F30803002B14BF01230023DBB2184699
:10562000BD465DF8047B704700ED00E080B487B0B4
:1056300000AFF860B9607A60FB6803F10473DA00C8
:10564000BB6813449B007B617B697A681A6000BF6A
:105650001C37BD465DF8047B704780B485B000AF51
:10566000786039607B6803F10473DA003B681344A7
:105670009B00FB60FB681B6818461437BD465DF84D
:10568000047B704780B400AF064B1B6803F04003F7
:10569000002B01D1012300E000231846BD465DF830
:1056A000047B70473C300E4080B500AFFFF7EAFF47
:1056B000034683F00103DBB2002B08D100BF1221A7
:1056C0000448FFF7CAFF0346002BF8D100E000BFF3
:1056D00080BD00BF04300E4080B500AFFFF7E4FF8F
:1056E000034B5B681B0C03F00303DBB2184680BD61
:1056F00000300E4080B483B000AF7860044A7B680D
:10570000D36200BF0C37BD465DF8047B704700BF15
:1057100000300E4080B400AF034B5B6A1846BD46B4
:105720005DF8047B704700BF00300E4080B400AFCE
:10573000034B00225A6300BFBD465DF8047B7047EF
:1057400000300E4080B400AF044B4AF6E8525A6372
:1057500000BFBD465DF8047B704700BF00300E40BF
:1057600080B483B000AF0346FB71FB79C3F1020341
:10577000102202FA03F318460C37BD465DF8047B8D
:105780007047000080B584B000AF78600B46FB70B6
:10579000FFF778FF034683F00103DBB2002B28D12B
:1057A0007B68002B0FD1154BD3F800311B0A03F097
:1057B0001F030133BB60FBF7D7F80246BB6802FB4F
:1057C00003F3FB6001E07B68FB600D4B1B78002B53
:1057D00009D0FB680B4A934205D8FB781946022092
:1057E00000F012F806E0FB781946002000F00CF8F3
:1057F00000E000BF1037BD4680BD00BF00400E4036
:1058000010250020002D310190B587B000AF034670
:105810000A46FB711346BB71FFF734FF034683F062
:105820000103DBB2002B3AD1FFF756FF03461A46BD
:10583000FB79934235D01D4BD3F800311B0A03F09E
:105840001F0301337B61FBF78FF838613B697A698D
:1058500002FB03F3FB60FB79022B0CD1FB68144ABB
:10586000934204D940F2B2511248FDF7D9FD02210A
:105870003869FEF711F9104CFB791846FFF770FFF5
:1058800003462361BB79002B01D0FFF70DFFFB79A5
:10589000002B07D100213869FEF7FEF802E000BFB7
:1058A00000E000BF1C37BD4690BD00BF00400E4069
:1058B000002D310118E9000000300E4080B400AF27
:1058C00001231846BD465DF8047B704780B582B061
:1058D00000AF0C4BDB6E0B4A43F08073D3660021A4
:1058E0000948FFF7BAFE78607B68002B03D00420DC
:1058F00000F03EFD02E0002000F03AFD00BF083756
:10590000BD4680BD00300E404C300E4080B58AB0A0
:1059100000AF01237B627B6A1B053B62404BDB6C63
:105920001B0A03F00F03FB613E4B1B881A463D4BDD
:105930001B8828335B08134403F12801FB695A1CB8
:1059400013469B001344B1FBF3F3013BBB61BB69FE
:105950007B6107233B613A697B69934228BF134609
:10596000BB61BB691B06BB61BB6923F0E063002B15
:1059700004D04FF4FA612C48FDF752FD3B6A23F442
:10598000E003002B04D040F2D1712748FDF748FD19
:10599000234BDB6C23F0EE62B9693B6A0B43204971
:1059A0001343CB64214BB3F90030002B33DB1F4B87
:1059B000B3F90030FB81FA89FB8928335B08134473
:1059C00003F12802FB6901335900FB6901335B08CD
:1059D0000B44B2FBF3F3BB60BB687B6007233B6007
:1059E0003A687B68934228BF1346BB60BB681B01C3
:1059F000BB60BB6823F07003002B04D040F2E97158
:105A00000948FDF70DFD064B1B6D23F0700204499C
:105A1000BB6813430B6500BF2837BD4680BD00BF80
:105A200000300E400825002018E900000C25002059
:105A300080B483B000AF78600B467B807B689AB2FD
:105A4000054B1A80054A7B88138000BF0C37BD4682
:105A50005DF8047B704700BF082500200C2500205E
:105A600080B582B000AF0346FB71FB79002B02D0FA
:105A7000012B04D007E0094B094A9A6509E0074B5E
:105A8000084A9A6505E040F615010748FDF7C8FC8D
:105A900000BF00BF0837BD4680BD00BF00300E40CC
:105AA00077402057372110B718E9000080B584B03F
:105AB00000AF0346FB710B46BB7113467B71334B42
:105AC000D3F88031FB60BB79032B1DD801A252F8BB
:105AD00023F000BFE55A0000ED5A0000F75A00001D
